{
	"contracts/ERC721/APE.sol": {
		"WTFApe": {
			"abi": [
				{
					"inputs": [
						{
							"internalType": "string",
							"name": "name_",
							"type": "string"
						},
						{
							"internalType": "string",
							"name": "symbol_",
							"type": "string"
						}
					],
					"stateMutability": "nonpayable",
					"type": "constructor"
				},
				{
					"inputs": [
						{
							"internalType": "address",
							"name": "receiver",
							"type": "address"
						}
					],
					"name": "ERC721InvalidReceiver",
					"type": "error"
				},
				{
					"anonymous": false,
					"inputs": [
						{
							"indexed": true,
							"internalType": "address",
							"name": "owner",
							"type": "address"
						},
						{
							"indexed": true,
							"internalType": "address",
							"name": "approved",
							"type": "address"
						},
						{
							"indexed": true,
							"internalType": "uint256",
							"name": "tokenId",
							"type": "uint256"
						}
					],
					"name": "Approval",
					"type": "event"
				},
				{
					"anonymous": false,
					"inputs": [
						{
							"indexed": true,
							"internalType": "address",
							"name": "owner",
							"type": "address"
						},
						{
							"indexed": true,
							"internalType": "address",
							"name": "operator",
							"type": "address"
						},
						{
							"indexed": false,
							"internalType": "bool",
							"name": "approved",
							"type": "bool"
						}
					],
					"name": "ApprovalForAll",
					"type": "event"
				},
				{
					"anonymous": false,
					"inputs": [
						{
							"indexed": true,
							"internalType": "address",
							"name": "from",
							"type": "address"
						},
						{
							"indexed": true,
							"internalType": "address",
							"name": "to",
							"type": "address"
						},
						{
							"indexed": true,
							"internalType": "uint256",
							"name": "tokenId",
							"type": "uint256"
						}
					],
					"name": "Transfer",
					"type": "event"
				},
				{
					"inputs": [],
					"name": "MAX_APES",
					"outputs": [
						{
							"internalType": "uint256",
							"name": "",
							"type": "uint256"
						}
					],
					"stateMutability": "view",
					"type": "function"
				},
				{
					"inputs": [
						{
							"internalType": "address",
							"name": "to",
							"type": "address"
						},
						{
							"internalType": "uint256",
							"name": "tokenId",
							"type": "uint256"
						}
					],
					"name": "approve",
					"outputs": [],
					"stateMutability": "nonpayable",
					"type": "function"
				},
				{
					"inputs": [
						{
							"internalType": "address",
							"name": "owner",
							"type": "address"
						}
					],
					"name": "balanceOf",
					"outputs": [
						{
							"internalType": "uint256",
							"name": "",
							"type": "uint256"
						}
					],
					"stateMutability": "view",
					"type": "function"
				},
				{
					"inputs": [
						{
							"internalType": "uint256",
							"name": "tokenId",
							"type": "uint256"
						}
					],
					"name": "getApproved",
					"outputs": [
						{
							"internalType": "address",
							"name": "",
							"type": "address"
						}
					],
					"stateMutability": "view",
					"type": "function"
				},
				{
					"inputs": [
						{
							"internalType": "address",
							"name": "owner",
							"type": "address"
						},
						{
							"internalType": "address",
							"name": "operator",
							"type": "address"
						}
					],
					"name": "isApprovedForAll",
					"outputs": [
						{
							"internalType": "bool",
							"name": "",
							"type": "bool"
						}
					],
					"stateMutability": "view",
					"type": "function"
				},
				{
					"inputs": [
						{
							"internalType": "address",
							"name": "to",
							"type": "address"
						},
						{
							"internalType": "uint256",
							"name": "tokenId",
							"type": "uint256"
						}
					],
					"name": "mint",
					"outputs": [],
					"stateMutability": "nonpayable",
					"type": "function"
				},
				{
					"inputs": [],
					"name": "name",
					"outputs": [
						{
							"internalType": "string",
							"name": "",
							"type": "string"
						}
					],
					"stateMutability": "view",
					"type": "function"
				},
				{
					"inputs": [
						{
							"internalType": "uint256",
							"name": "tokenId",
							"type": "uint256"
						}
					],
					"name": "ownerOf",
					"outputs": [
						{
							"internalType": "address",
							"name": "owner",
							"type": "address"
						}
					],
					"stateMutability": "view",
					"type": "function"
				},
				{
					"inputs": [
						{
							"internalType": "address",
							"name": "from",
							"type": "address"
						},
						{
							"internalType": "address",
							"name": "to",
							"type": "address"
						},
						{
							"internalType": "uint256",
							"name": "tokenId",
							"type": "uint256"
						}
					],
					"name": "safeTransferFrom",
					"outputs": [],
					"stateMutability": "nonpayable",
					"type": "function"
				},
				{
					"inputs": [
						{
							"internalType": "address",
							"name": "from",
							"type": "address"
						},
						{
							"internalType": "address",
							"name": "to",
							"type": "address"
						},
						{
							"internalType": "uint256",
							"name": "tokenId",
							"type": "uint256"
						},
						{
							"internalType": "bytes",
							"name": "_data",
							"type": "bytes"
						}
					],
					"name": "safeTransferFrom",
					"outputs": [],
					"stateMutability": "nonpayable",
					"type": "function"
				},
				{
					"inputs": [
						{
							"internalType": "address",
							"name": "operator",
							"type": "address"
						},
						{
							"internalType": "bool",
							"name": "approved",
							"type": "bool"
						}
					],
					"name": "setApprovalForAll",
					"outputs": [],
					"stateMutability": "nonpayable",
					"type": "function"
				},
				{
					"inputs": [
						{
							"internalType": "bytes4",
							"name": "interfaceID",
							"type": "bytes4"
						}
					],
					"name": "supportsInterface",
					"outputs": [
						{
							"internalType": "bool",
							"name": "",
							"type": "bool"
						}
					],
					"stateMutability": "pure",
					"type": "function"
				},
				{
					"inputs": [],
					"name": "symbol",
					"outputs": [
						{
							"internalType": "string",
							"name": "",
							"type": "string"
						}
					],
					"stateMutability": "view",
					"type": "function"
				},
				{
					"inputs": [
						{
							"internalType": "uint256",
							"name": "tokenId",
							"type": "uint256"
						}
					],
					"name": "tokenURI",
					"outputs": [
						{
							"internalType": "string",
							"name": "",
							"type": "string"
						}
					],
					"stateMutability": "view",
					"type": "function"
				},
				{
					"inputs": [
						{
							"internalType": "address",
							"name": "from",
							"type": "address"
						},
						{
							"internalType": "address",
							"name": "to",
							"type": "address"
						},
						{
							"internalType": "uint256",
							"name": "tokenId",
							"type": "uint256"
						}
					],
					"name": "transferFrom",
					"outputs": [],
					"stateMutability": "nonpayable",
					"type": "function"
				}
			],
			"devdoc": {
				"kind": "dev",
				"methods": {},
				"version": 1
			},
			"evm": {
				"assembly": "    /* \"contracts/ERC721/APE.sol\":99:680  contract WTFApe is ERC721{... */\n  mstore(0x40, 0x80)\n    /* \"contracts/ERC721/APE.sol\":154:159  10000 */\n  0x2710\n    /* \"contracts/ERC721/APE.sol\":131:159  uint public MAX_APES = 10000 */\n  0x06\n  sstore\n    /* \"contracts/ERC721/APE.sol\":178:264  constructor(string memory name_, string memory symbol_) ERC721(name_, symbol_){... */\n  callvalue\n  dup1\n  iszero\n  tag_1\n  jumpi\n  0x00\n  dup1\n  revert\ntag_1:\n  pop\n  mload(0x40)\n  sub(codesize, bytecodeSize)\n  dup1\n  bytecodeSize\n  dup4\n  codecopy\n  dup2\n  dup2\n  add\n  0x40\n  mstore\n  dup2\n  add\n  swap1\n  tag_2\n  swap2\n  swap1\n  tag_3\n  jump\t// in\ntag_2:\n    /* \"contracts/ERC721/APE.sol\":241:246  name_ */\n  dup2\n    /* \"contracts/ERC721/APE.sol\":248:255  symbol_ */\n  dup2\n    /* \"contracts/ERC721/ERC721.sol\":931:936  name_ */\n  dup2\n    /* \"contracts/ERC721/ERC721.sol\":924:928  name */\n  0x00\n    /* \"contracts/ERC721/ERC721.sol\":924:936  name = name_ */\n  swap1\n  dup2\n  tag_7\n  swap2\n  swap1\n  tag_8\n  jump\t// in\ntag_7:\n  pop\n    /* \"contracts/ERC721/ERC721.sol\":956:963  symbol_ */\n  dup1\n    /* \"contracts/ERC721/ERC721.sol\":947:953  symbol */\n  0x01\n    /* \"contracts/ERC721/ERC721.sol\":947:963  symbol = symbol_ */\n  swap1\n  dup2\n  tag_9\n  swap2\n  swap1\n  tag_8\n  jump\t// in\ntag_9:\n  pop\n    /* \"contracts/ERC721/ERC721.sol\":857:971  constructor(string memory name_, string memory symbol_) {... */\n  pop\n  pop\n    /* \"contracts/ERC721/APE.sol\":178:264  constructor(string memory name_, string memory symbol_) ERC721(name_, symbol_){... */\n  pop\n  pop\n    /* \"contracts/ERC721/APE.sol\":99:680  contract WTFApe is ERC721{... */\n  jump(tag_11)\n    /* \"#utility.yul\":7:82   */\ntag_12:\n    /* \"#utility.yul\":40:46   */\n  0x00\n    /* \"#utility.yul\":73:75   */\n  0x40\n    /* \"#utility.yul\":67:76   */\n  mload\n    /* \"#utility.yul\":57:76   */\n  swap1\n  pop\n    /* \"#utility.yul\":7:82   */\n  swap1\n  jump\t// out\n    /* \"#utility.yul\":88:205   */\ntag_13:\n    /* \"#utility.yul\":197:198   */\n  0x00\n    /* \"#utility.yul\":194:195   */\n  dup1\n    /* \"#utility.yul\":187:199   */\n  revert\n    /* \"#utility.yul\":211:328   */\ntag_14:\n    /* \"#utility.yul\":320:321   */\n  0x00\n    /* \"#utility.yul\":317:318   */\n  dup1\n    /* \"#utility.yul\":310:322   */\n  revert\n    /* \"#utility.yul\":334:451   */\ntag_15:\n    /* \"#utility.yul\":443:444   */\n  0x00\n    /* \"#utility.yul\":440:441   */\n  dup1\n    /* \"#utility.yul\":433:445   */\n  revert\n    /* \"#utility.yul\":457:574   */\ntag_16:\n    /* \"#utility.yul\":566:567   */\n  0x00\n    /* \"#utility.yul\":563:564   */\n  dup1\n    /* \"#utility.yul\":556:568   */\n  revert\n    /* \"#utility.yul\":580:682   */\ntag_17:\n    /* \"#utility.yul\":621:627   */\n  0x00\n    /* \"#utility.yul\":672:674   */\n  0x1f\n    /* \"#utility.yul\":668:675   */\n  not\n    /* \"#utility.yul\":663:665   */\n  0x1f\n    /* \"#utility.yul\":656:661   */\n  dup4\n    /* \"#utility.yul\":652:666   */\n  add\n    /* \"#utility.yul\":648:676   */\n  and\n    /* \"#utility.yul\":638:676   */\n  swap1\n  pop\n    /* \"#utility.yul\":580:682   */\n  swap2\n  swap1\n  pop\n  jump\t// out\n    /* \"#utility.yul\":688:868   */\ntag_18:\n    /* \"#utility.yul\":736:813   */\n  0x4e487b7100000000000000000000000000000000000000000000000000000000\n    /* \"#utility.yul\":733:734   */\n  0x00\n    /* \"#utility.yul\":726:814   */\n  mstore\n    /* \"#utility.yul\":833:837   */\n  0x41\n    /* \"#utility.yul\":830:831   */\n  0x04\n    /* \"#utility.yul\":823:838   */\n  mstore\n    /* \"#utility.yul\":857:861   */\n  0x24\n    /* \"#utility.yul\":854:855   */\n  0x00\n    /* \"#utility.yul\":847:862   */\n  revert\n    /* \"#utility.yul\":874:1155   */\ntag_19:\n    /* \"#utility.yul\":957:984   */\n  tag_53\n    /* \"#utility.yul\":979:983   */\n  dup3\n    /* \"#utility.yul\":957:984   */\n  tag_17\n  jump\t// in\ntag_53:\n    /* \"#utility.yul\":949:955   */\n  dup2\n    /* \"#utility.yul\":945:985   */\n  add\n    /* \"#utility.yul\":1087:1093   */\n  dup2\n    /* \"#utility.yul\":1075:1085   */\n  dup2\n    /* \"#utility.yul\":1072:1094   */\n  lt\n    /* \"#utility.yul\":1051:1069   */\n  0xffffffffffffffff\n    /* \"#utility.yul\":1039:1049   */\n  dup3\n    /* \"#utility.yul\":1036:1070   */\n  gt\n    /* \"#utility.yul\":1033:1095   */\n  or\n    /* \"#utility.yul\":1030:1118   */\n  iszero\n  tag_54\n  jumpi\n    /* \"#utility.yul\":1098:1116   */\n  tag_55\n  tag_18\n  jump\t// in\ntag_55:\n    /* \"#utility.yul\":1030:1118   */\ntag_54:\n    /* \"#utility.yul\":1138:1148   */\n  dup1\n    /* \"#utility.yul\":1134:1136   */\n  0x40\n    /* \"#utility.yul\":1127:1149   */\n  mstore\n    /* \"#utility.yul\":917:1155   */\n  pop\n    /* \"#utility.yul\":874:1155   */\n  pop\n  pop\n  jump\t// out\n    /* \"#utility.yul\":1161:1290   */\ntag_20:\n    /* \"#utility.yul\":1195:1201   */\n  0x00\n    /* \"#utility.yul\":1222:1242   */\n  tag_57\n  tag_12\n  jump\t// in\ntag_57:\n    /* \"#utility.yul\":1212:1242   */\n  swap1\n  pop\n    /* \"#utility.yul\":1251:1284   */\n  tag_58\n    /* \"#utility.yul\":1279:1283   */\n  dup3\n    /* \"#utility.yul\":1271:1277   */\n  dup3\n    /* \"#utility.yul\":1251:1284   */\n  tag_19\n  jump\t// in\ntag_58:\n    /* \"#utility.yul\":1161:1290   */\n  swap2\n  swap1\n  pop\n  jump\t// out\n    /* \"#utility.yul\":1296:1604   */\ntag_21:\n    /* \"#utility.yul\":1358:1362   */\n  0x00\n    /* \"#utility.yul\":1448:1466   */\n  0xffffffffffffffff\n    /* \"#utility.yul\":1440:1446   */\n  dup3\n    /* \"#utility.yul\":1437:1467   */\n  gt\n    /* \"#utility.yul\":1434:1490   */\n  iszero\n  tag_60\n  jumpi\n    /* \"#utility.yul\":1470:1488   */\n  tag_61\n  tag_18\n  jump\t// in\ntag_61:\n    /* \"#utility.yul\":1434:1490   */\ntag_60:\n    /* \"#utility.yul\":1508:1537   */\n  tag_62\n    /* \"#utility.yul\":1530:1536   */\n  dup3\n    /* \"#utility.yul\":1508:1537   */\n  tag_17\n  jump\t// in\ntag_62:\n    /* \"#utility.yul\":1500:1537   */\n  swap1\n  pop\n    /* \"#utility.yul\":1592:1596   */\n  0x20\n    /* \"#utility.yul\":1586:1590   */\n  dup2\n    /* \"#utility.yul\":1582:1597   */\n  add\n    /* \"#utility.yul\":1574:1597   */\n  swap1\n  pop\n    /* \"#utility.yul\":1296:1604   */\n  swap2\n  swap1\n  pop\n  jump\t// out\n    /* \"#utility.yul\":1610:1749   */\ntag_22:\n    /* \"#utility.yul\":1699:1705   */\n  dup3\n    /* \"#utility.yul\":1694:1697   */\n  dup2\n    /* \"#utility.yul\":1689:1692   */\n  dup4\n    /* \"#utility.yul\":1683:1706   */\n  mcopy\n    /* \"#utility.yul\":1740:1741   */\n  0x00\n    /* \"#utility.yul\":1731:1737   */\n  dup4\n    /* \"#utility.yul\":1726:1729   */\n  dup4\n    /* \"#utility.yul\":1722:1738   */\n  add\n    /* \"#utility.yul\":1715:1742   */\n  mstore\n    /* \"#utility.yul\":1610:1749   */\n  pop\n  pop\n  pop\n  jump\t// out\n    /* \"#utility.yul\":1755:2189   */\ntag_23:\n    /* \"#utility.yul\":1844:1849   */\n  0x00\n    /* \"#utility.yul\":1869:1935   */\n  tag_65\n    /* \"#utility.yul\":1885:1934   */\n  tag_66\n    /* \"#utility.yul\":1927:1933   */\n  dup5\n    /* \"#utility.yul\":1885:1934   */\n  tag_21\n  jump\t// in\ntag_66:\n    /* \"#utility.yul\":1869:1935   */\n  tag_20\n  jump\t// in\ntag_65:\n    /* \"#utility.yul\":1860:1935   */\n  swap1\n  pop\n    /* \"#utility.yul\":1958:1964   */\n  dup3\n    /* \"#utility.yul\":1951:1956   */\n  dup2\n    /* \"#utility.yul\":1944:1965   */\n  mstore\n    /* \"#utility.yul\":1996:2000   */\n  0x20\n    /* \"#utility.yul\":1989:1994   */\n  dup2\n    /* \"#utility.yul\":1985:2001   */\n  add\n    /* \"#utility.yul\":2034:2037   */\n  dup5\n    /* \"#utility.yul\":2025:2031   */\n  dup5\n    /* \"#utility.yul\":2020:2023   */\n  dup5\n    /* \"#utility.yul\":2016:2032   */\n  add\n    /* \"#utility.yul\":2013:2038   */\n  gt\n    /* \"#utility.yul\":2010:2122   */\n  iszero\n  tag_67\n  jumpi\n    /* \"#utility.yul\":2041:2120   */\n  tag_68\n  tag_16\n  jump\t// in\ntag_68:\n    /* \"#utility.yul\":2010:2122   */\ntag_67:\n    /* \"#utility.yul\":2131:2183   */\n  tag_69\n    /* \"#utility.yul\":2176:2182   */\n  dup5\n    /* \"#utility.yul\":2171:2174   */\n  dup3\n    /* \"#utility.yul\":2166:2169   */\n  dup6\n    /* \"#utility.yul\":2131:2183   */\n  tag_22\n  jump\t// in\ntag_69:\n    /* \"#utility.yul\":1850:2189   */\n  pop\n    /* \"#utility.yul\":1755:2189   */\n  swap4\n  swap3\n  pop\n  pop\n  pop\n  jump\t// out\n    /* \"#utility.yul\":2209:2564   */\ntag_24:\n    /* \"#utility.yul\":2276:2281   */\n  0x00\n    /* \"#utility.yul\":2325:2328   */\n  dup3\n    /* \"#utility.yul\":2318:2322   */\n  0x1f\n    /* \"#utility.yul\":2310:2316   */\n  dup4\n    /* \"#utility.yul\":2306:2323   */\n  add\n    /* \"#utility.yul\":2302:2329   */\n  slt\n    /* \"#utility.yul\":2292:2414   */\n  tag_71\n  jumpi\n    /* \"#utility.yul\":2333:2412   */\n  tag_72\n  tag_15\n  jump\t// in\ntag_72:\n    /* \"#utility.yul\":2292:2414   */\ntag_71:\n    /* \"#utility.yul\":2443:2449   */\n  dup2\n    /* \"#utility.yul\":2437:2450   */\n  mload\n    /* \"#utility.yul\":2468:2558   */\n  tag_73\n    /* \"#utility.yul\":2554:2557   */\n  dup5\n    /* \"#utility.yul\":2546:2552   */\n  dup3\n    /* \"#utility.yul\":2539:2543   */\n  0x20\n    /* \"#utility.yul\":2531:2537   */\n  dup7\n    /* \"#utility.yul\":2527:2544   */\n  add\n    /* \"#utility.yul\":2468:2558   */\n  tag_23\n  jump\t// in\ntag_73:\n    /* \"#utility.yul\":2459:2558   */\n  swap2\n  pop\n    /* \"#utility.yul\":2282:2564   */\n  pop\n    /* \"#utility.yul\":2209:2564   */\n  swap3\n  swap2\n  pop\n  pop\n  jump\t// out\n    /* \"#utility.yul\":2570:3423   */\ntag_3:\n    /* \"#utility.yul\":2669:2675   */\n  0x00\n    /* \"#utility.yul\":2677:2683   */\n  dup1\n    /* \"#utility.yul\":2726:2728   */\n  0x40\n    /* \"#utility.yul\":2714:2723   */\n  dup4\n    /* \"#utility.yul\":2705:2712   */\n  dup6\n    /* \"#utility.yul\":2701:2724   */\n  sub\n    /* \"#utility.yul\":2697:2729   */\n  slt\n    /* \"#utility.yul\":2694:2813   */\n  iszero\n  tag_75\n  jumpi\n    /* \"#utility.yul\":2732:2811   */\n  tag_76\n  tag_13\n  jump\t// in\ntag_76:\n    /* \"#utility.yul\":2694:2813   */\ntag_75:\n    /* \"#utility.yul\":2873:2874   */\n  0x00\n    /* \"#utility.yul\":2862:2871   */\n  dup4\n    /* \"#utility.yul\":2858:2875   */\n  add\n    /* \"#utility.yul\":2852:2876   */\n  mload\n    /* \"#utility.yul\":2903:2921   */\n  0xffffffffffffffff\n    /* \"#utility.yul\":2895:2901   */\n  dup2\n    /* \"#utility.yul\":2892:2922   */\n  gt\n    /* \"#utility.yul\":2889:3006   */\n  iszero\n  tag_77\n  jumpi\n    /* \"#utility.yul\":2925:3004   */\n  tag_78\n  tag_14\n  jump\t// in\ntag_78:\n    /* \"#utility.yul\":2889:3006   */\ntag_77:\n    /* \"#utility.yul\":3030:3104   */\n  tag_79\n    /* \"#utility.yul\":3096:3103   */\n  dup6\n    /* \"#utility.yul\":3087:3093   */\n  dup3\n    /* \"#utility.yul\":3076:3085   */\n  dup7\n    /* \"#utility.yul\":3072:3094   */\n  add\n    /* \"#utility.yul\":3030:3104   */\n  tag_24\n  jump\t// in\ntag_79:\n    /* \"#utility.yul\":3020:3104   */\n  swap3\n  pop\n    /* \"#utility.yul\":2823:3114   */\n  pop\n    /* \"#utility.yul\":3174:3176   */\n  0x20\n    /* \"#utility.yul\":3163:3172   */\n  dup4\n    /* \"#utility.yul\":3159:3177   */\n  add\n    /* \"#utility.yul\":3153:3178   */\n  mload\n    /* \"#utility.yul\":3205:3223   */\n  0xffffffffffffffff\n    /* \"#utility.yul\":3197:3203   */\n  dup2\n    /* \"#utility.yul\":3194:3224   */\n  gt\n    /* \"#utility.yul\":3191:3308   */\n  iszero\n  tag_80\n  jumpi\n    /* \"#utility.yul\":3227:3306   */\n  tag_81\n  tag_14\n  jump\t// in\ntag_81:\n    /* \"#utility.yul\":3191:3308   */\ntag_80:\n    /* \"#utility.yul\":3332:3406   */\n  tag_82\n    /* \"#utility.yul\":3398:3405   */\n  dup6\n    /* \"#utility.yul\":3389:3395   */\n  dup3\n    /* \"#utility.yul\":3378:3387   */\n  dup7\n    /* \"#utility.yul\":3374:3396   */\n  add\n    /* \"#utility.yul\":3332:3406   */\n  tag_24\n  jump\t// in\ntag_82:\n    /* \"#utility.yul\":3322:3406   */\n  swap2\n  pop\n    /* \"#utility.yul\":3124:3416   */\n  pop\n    /* \"#utility.yul\":2570:3423   */\n  swap3\n  pop\n  swap3\n  swap1\n  pop\n  jump\t// out\n    /* \"#utility.yul\":3429:3528   */\ntag_25:\n    /* \"#utility.yul\":3481:3487   */\n  0x00\n    /* \"#utility.yul\":3515:3520   */\n  dup2\n    /* \"#utility.yul\":3509:3521   */\n  mload\n    /* \"#utility.yul\":3499:3521   */\n  swap1\n  pop\n    /* \"#utility.yul\":3429:3528   */\n  swap2\n  swap1\n  pop\n  jump\t// out\n    /* \"#utility.yul\":3534:3714   */\ntag_26:\n    /* \"#utility.yul\":3582:3659   */\n  0x4e487b7100000000000000000000000000000000000000000000000000000000\n    /* \"#utility.yul\":3579:3580   */\n  0x00\n    /* \"#utility.yul\":3572:3660   */\n  mstore\n    /* \"#utility.yul\":3679:3683   */\n  0x22\n    /* \"#utility.yul\":3676:3677   */\n  0x04\n    /* \"#utility.yul\":3669:3684   */\n  mstore\n    /* \"#utility.yul\":3703:3707   */\n  0x24\n    /* \"#utility.yul\":3700:3701   */\n  0x00\n    /* \"#utility.yul\":3693:3708   */\n  revert\n    /* \"#utility.yul\":3720:4040   */\ntag_27:\n    /* \"#utility.yul\":3764:3770   */\n  0x00\n    /* \"#utility.yul\":3801:3802   */\n  0x02\n    /* \"#utility.yul\":3795:3799   */\n  dup3\n    /* \"#utility.yul\":3791:3803   */\n  div\n    /* \"#utility.yul\":3781:3803   */\n  swap1\n  pop\n    /* \"#utility.yul\":3848:3849   */\n  0x01\n    /* \"#utility.yul\":3842:3846   */\n  dup3\n    /* \"#utility.yul\":3838:3850   */\n  and\n    /* \"#utility.yul\":3869:3887   */\n  dup1\n    /* \"#utility.yul\":3859:3940   */\n  tag_86\n  jumpi\n    /* \"#utility.yul\":3925:3929   */\n  0x7f\n    /* \"#utility.yul\":3917:3923   */\n  dup3\n    /* \"#utility.yul\":3913:3930   */\n  and\n    /* \"#utility.yul\":3903:3930   */\n  swap2\n  pop\n    /* \"#utility.yul\":3859:3940   */\ntag_86:\n    /* \"#utility.yul\":3987:3989   */\n  0x20\n    /* \"#utility.yul\":3979:3985   */\n  dup3\n    /* \"#utility.yul\":3976:3990   */\n  lt\n    /* \"#utility.yul\":3956:3974   */\n  dup2\n    /* \"#utility.yul\":3953:3991   */\n  sub\n    /* \"#utility.yul\":3950:4034   */\n  tag_87\n  jumpi\n    /* \"#utility.yul\":4006:4024   */\n  tag_88\n  tag_26\n  jump\t// in\ntag_88:\n    /* \"#utility.yul\":3950:4034   */\ntag_87:\n    /* \"#utility.yul\":3771:4040   */\n  pop\n    /* \"#utility.yul\":3720:4040   */\n  swap2\n  swap1\n  pop\n  jump\t// out\n    /* \"#utility.yul\":4046:4187   */\ntag_28:\n    /* \"#utility.yul\":4095:4099   */\n  0x00\n    /* \"#utility.yul\":4118:4121   */\n  dup2\n    /* \"#utility.yul\":4110:4121   */\n  swap1\n  pop\n    /* \"#utility.yul\":4141:4144   */\n  dup2\n    /* \"#utility.yul\":4138:4139   */\n  0x00\n    /* \"#utility.yul\":4131:4145   */\n  mstore\n    /* \"#utility.yul\":4175:4179   */\n  0x20\n    /* \"#utility.yul\":4172:4173   */\n  0x00\n    /* \"#utility.yul\":4162:4180   */\n  keccak256\n    /* \"#utility.yul\":4154:4180   */\n  swap1\n  pop\n    /* \"#utility.yul\":4046:4187   */\n  swap2\n  swap1\n  pop\n  jump\t// out\n    /* \"#utility.yul\":4193:4286   */\ntag_29:\n    /* \"#utility.yul\":4230:4236   */\n  0x00\n    /* \"#utility.yul\":4277:4279   */\n  0x20\n    /* \"#utility.yul\":4272:4274   */\n  0x1f\n    /* \"#utility.yul\":4265:4270   */\n  dup4\n    /* \"#utility.yul\":4261:4275   */\n  add\n    /* \"#utility.yul\":4257:4280   */\n  div\n    /* \"#utility.yul\":4247:4280   */\n  swap1\n  pop\n    /* \"#utility.yul\":4193:4286   */\n  swap2\n  swap1\n  pop\n  jump\t// out\n    /* \"#utility.yul\":4292:4399   */\ntag_30:\n    /* \"#utility.yul\":4336:4344   */\n  0x00\n    /* \"#utility.yul\":4386:4391   */\n  dup3\n    /* \"#utility.yul\":4380:4384   */\n  dup3\n    /* \"#utility.yul\":4376:4392   */\n  shl\n    /* \"#utility.yul\":4355:4392   */\n  swap1\n  pop\n    /* \"#utility.yul\":4292:4399   */\n  swap3\n  swap2\n  pop\n  pop\n  jump\t// out\n    /* \"#utility.yul\":4405:4798   */\ntag_31:\n    /* \"#utility.yul\":4474:4480   */\n  0x00\n    /* \"#utility.yul\":4524:4525   */\n  0x08\n    /* \"#utility.yul\":4512:4522   */\n  dup4\n    /* \"#utility.yul\":4508:4526   */\n  mul\n    /* \"#utility.yul\":4547:4644   */\n  tag_93\n    /* \"#utility.yul\":4577:4643   */\n  0xffffffffffffffffffffffffffffffffffffffffffffffffffffffffffffffff\n    /* \"#utility.yul\":4566:4575   */\n  dup3\n    /* \"#utility.yul\":4547:4644   */\n  tag_30\n  jump\t// in\ntag_93:\n    /* \"#utility.yul\":4665:4704   */\n  tag_94\n    /* \"#utility.yul\":4695:4703   */\n  dup7\n    /* \"#utility.yul\":4684:4693   */\n  dup4\n    /* \"#utility.yul\":4665:4704   */\n  tag_30\n  jump\t// in\ntag_94:\n    /* \"#utility.yul\":4653:4704   */\n  swap6\n  pop\n    /* \"#utility.yul\":4737:4741   */\n  dup1\n    /* \"#utility.yul\":4733:4742   */\n  not\n    /* \"#utility.yul\":4726:4731   */\n  dup5\n    /* \"#utility.yul\":4722:4743   */\n  and\n    /* \"#utility.yul\":4713:4743   */\n  swap4\n  pop\n    /* \"#utility.yul\":4786:4790   */\n  dup1\n    /* \"#utility.yul\":4776:4784   */\n  dup7\n    /* \"#utility.yul\":4772:4791   */\n  and\n    /* \"#utility.yul\":4765:4770   */\n  dup5\n    /* \"#utility.yul\":4762:4792   */\n  or\n    /* \"#utility.yul\":4752:4792   */\n  swap3\n  pop\n    /* \"#utility.yul\":4481:4798   */\n  pop\n  pop\n    /* \"#utility.yul\":4405:4798   */\n  swap4\n  swap3\n  pop\n  pop\n  pop\n  jump\t// out\n    /* \"#utility.yul\":4804:4881   */\ntag_32:\n    /* \"#utility.yul\":4841:4848   */\n  0x00\n    /* \"#utility.yul\":4870:4875   */\n  dup2\n    /* \"#utility.yul\":4859:4875   */\n  swap1\n  pop\n    /* \"#utility.yul\":4804:4881   */\n  swap2\n  swap1\n  pop\n  jump\t// out\n    /* \"#utility.yul\":4887:4947   */\ntag_33:\n    /* \"#utility.yul\":4915:4918   */\n  0x00\n    /* \"#utility.yul\":4936:4941   */\n  dup2\n    /* \"#utility.yul\":4929:4941   */\n  swap1\n  pop\n    /* \"#utility.yul\":4887:4947   */\n  swap2\n  swap1\n  pop\n  jump\t// out\n    /* \"#utility.yul\":4953:5095   */\ntag_34:\n    /* \"#utility.yul\":5003:5012   */\n  0x00\n    /* \"#utility.yul\":5036:5089   */\n  tag_98\n    /* \"#utility.yul\":5054:5088   */\n  tag_99\n    /* \"#utility.yul\":5063:5087   */\n  tag_100\n    /* \"#utility.yul\":5081:5086   */\n  dup5\n    /* \"#utility.yul\":5063:5087   */\n  tag_32\n  jump\t// in\ntag_100:\n    /* \"#utility.yul\":5054:5088   */\n  tag_33\n  jump\t// in\ntag_99:\n    /* \"#utility.yul\":5036:5089   */\n  tag_32\n  jump\t// in\ntag_98:\n    /* \"#utility.yul\":5023:5089   */\n  swap1\n  pop\n    /* \"#utility.yul\":4953:5095   */\n  swap2\n  swap1\n  pop\n  jump\t// out\n    /* \"#utility.yul\":5101:5176   */\ntag_35:\n    /* \"#utility.yul\":5144:5147   */\n  0x00\n    /* \"#utility.yul\":5165:5170   */\n  dup2\n    /* \"#utility.yul\":5158:5170   */\n  swap1\n  pop\n    /* \"#utility.yul\":5101:5176   */\n  swap2\n  swap1\n  pop\n  jump\t// out\n    /* \"#utility.yul\":5182:5451   */\ntag_36:\n    /* \"#utility.yul\":5292:5331   */\n  tag_103\n    /* \"#utility.yul\":5323:5330   */\n  dup4\n    /* \"#utility.yul\":5292:5331   */\n  tag_34\n  jump\t// in\ntag_103:\n    /* \"#utility.yul\":5353:5444   */\n  tag_104\n    /* \"#utility.yul\":5402:5443   */\n  tag_105\n    /* \"#utility.yul\":5426:5442   */\n  dup3\n    /* \"#utility.yul\":5402:5443   */\n  tag_35\n  jump\t// in\ntag_105:\n    /* \"#utility.yul\":5394:5400   */\n  dup5\n    /* \"#utility.yul\":5387:5391   */\n  dup5\n    /* \"#utility.yul\":5381:5392   */\n  sload\n    /* \"#utility.yul\":5353:5444   */\n  tag_31\n  jump\t// in\ntag_104:\n    /* \"#utility.yul\":5347:5351   */\n  dup3\n    /* \"#utility.yul\":5340:5445   */\n  sstore\n    /* \"#utility.yul\":5258:5451   */\n  pop\n    /* \"#utility.yul\":5182:5451   */\n  pop\n  pop\n  pop\n  jump\t// out\n    /* \"#utility.yul\":5457:5530   */\ntag_37:\n    /* \"#utility.yul\":5502:5505   */\n  0x00\n    /* \"#utility.yul\":5457:5530   */\n  swap1\n  jump\t// out\n    /* \"#utility.yul\":5536:5725   */\ntag_38:\n    /* \"#utility.yul\":5613:5645   */\n  tag_108\n  tag_37\n  jump\t// in\ntag_108:\n    /* \"#utility.yul\":5654:5719   */\n  tag_109\n    /* \"#utility.yul\":5712:5718   */\n  dup2\n    /* \"#utility.yul\":5704:5710   */\n  dup5\n    /* \"#utility.yul\":5698:5702   */\n  dup5\n    /* \"#utility.yul\":5654:5719   */\n  tag_36\n  jump\t// in\ntag_109:\n    /* \"#utility.yul\":5589:5725   */\n  pop\n    /* \"#utility.yul\":5536:5725   */\n  pop\n  pop\n  jump\t// out\n    /* \"#utility.yul\":5731:5917   */\ntag_39:\n    /* \"#utility.yul\":5791:5911   */\ntag_111:\n    /* \"#utility.yul\":5808:5811   */\n  dup2\n    /* \"#utility.yul\":5801:5806   */\n  dup2\n    /* \"#utility.yul\":5798:5812   */\n  lt\n    /* \"#utility.yul\":5791:5911   */\n  iszero\n  tag_113\n  jumpi\n    /* \"#utility.yul\":5862:5901   */\n  tag_114\n    /* \"#utility.yul\":5899:5900   */\n  0x00\n    /* \"#utility.yul\":5892:5897   */\n  dup3\n    /* \"#utility.yul\":5862:5901   */\n  tag_38\n  jump\t// in\ntag_114:\n    /* \"#utility.yul\":5835:5836   */\n  0x01\n    /* \"#utility.yul\":5828:5833   */\n  dup2\n    /* \"#utility.yul\":5824:5837   */\n  add\n    /* \"#utility.yul\":5815:5837   */\n  swap1\n  pop\n    /* \"#utility.yul\":5791:5911   */\n  jump(tag_111)\ntag_113:\n    /* \"#utility.yul\":5731:5917   */\n  pop\n  pop\n  jump\t// out\n    /* \"#utility.yul\":5923:6466   */\ntag_40:\n    /* \"#utility.yul\":6024:6026   */\n  0x1f\n    /* \"#utility.yul\":6019:6022   */\n  dup3\n    /* \"#utility.yul\":6016:6027   */\n  gt\n    /* \"#utility.yul\":6013:6459   */\n  iszero\n  tag_116\n  jumpi\n    /* \"#utility.yul\":6058:6096   */\n  tag_117\n    /* \"#utility.yul\":6090:6095   */\n  dup2\n    /* \"#utility.yul\":6058:6096   */\n  tag_28\n  jump\t// in\ntag_117:\n    /* \"#utility.yul\":6142:6171   */\n  tag_118\n    /* \"#utility.yul\":6160:6170   */\n  dup5\n    /* \"#utility.yul\":6142:6171   */\n  tag_29\n  jump\t// in\ntag_118:\n    /* \"#utility.yul\":6132:6140   */\n  dup2\n    /* \"#utility.yul\":6128:6172   */\n  add\n    /* \"#utility.yul\":6325:6327   */\n  0x20\n    /* \"#utility.yul\":6313:6323   */\n  dup6\n    /* \"#utility.yul\":6310:6328   */\n  lt\n    /* \"#utility.yul\":6307:6356   */\n  iszero\n  tag_119\n  jumpi\n    /* \"#utility.yul\":6346:6354   */\n  dup2\n    /* \"#utility.yul\":6331:6354   */\n  swap1\n  pop\n    /* \"#utility.yul\":6307:6356   */\ntag_119:\n    /* \"#utility.yul\":6369:6449   */\n  tag_120\n    /* \"#utility.yul\":6425:6447   */\n  tag_121\n    /* \"#utility.yul\":6443:6446   */\n  dup6\n    /* \"#utility.yul\":6425:6447   */\n  tag_29\n  jump\t// in\ntag_121:\n    /* \"#utility.yul\":6415:6423   */\n  dup4\n    /* \"#utility.yul\":6411:6448   */\n  add\n    /* \"#utility.yul\":6398:6409   */\n  dup3\n    /* \"#utility.yul\":6369:6449   */\n  tag_39\n  jump\t// in\ntag_120:\n    /* \"#utility.yul\":6028:6459   */\n  pop\n  pop\n    /* \"#utility.yul\":6013:6459   */\ntag_116:\n    /* \"#utility.yul\":5923:6466   */\n  pop\n  pop\n  pop\n  jump\t// out\n    /* \"#utility.yul\":6472:6589   */\ntag_41:\n    /* \"#utility.yul\":6526:6534   */\n  0x00\n    /* \"#utility.yul\":6576:6581   */\n  dup3\n    /* \"#utility.yul\":6570:6574   */\n  dup3\n    /* \"#utility.yul\":6566:6582   */\n  shr\n    /* \"#utility.yul\":6545:6582   */\n  swap1\n  pop\n    /* \"#utility.yul\":6472:6589   */\n  swap3\n  swap2\n  pop\n  pop\n  jump\t// out\n    /* \"#utility.yul\":6595:6764   */\ntag_42:\n    /* \"#utility.yul\":6639:6645   */\n  0x00\n    /* \"#utility.yul\":6672:6723   */\n  tag_124\n    /* \"#utility.yul\":6720:6721   */\n  0x00\n    /* \"#utility.yul\":6716:6722   */\n  not\n    /* \"#utility.yul\":6708:6713   */\n  dup5\n    /* \"#utility.yul\":6705:6706   */\n  0x08\n    /* \"#utility.yul\":6701:6714   */\n  mul\n    /* \"#utility.yul\":6672:6723   */\n  tag_41\n  jump\t// in\ntag_124:\n    /* \"#utility.yul\":6668:6724   */\n  not\n    /* \"#utility.yul\":6753:6757   */\n  dup1\n    /* \"#utility.yul\":6747:6751   */\n  dup4\n    /* \"#utility.yul\":6743:6758   */\n  and\n    /* \"#utility.yul\":6733:6758   */\n  swap2\n  pop\n    /* \"#utility.yul\":6646:6764   */\n  pop\n    /* \"#utility.yul\":6595:6764   */\n  swap3\n  swap2\n  pop\n  pop\n  jump\t// out\n    /* \"#utility.yul\":6769:7064   */\ntag_43:\n    /* \"#utility.yul\":6845:6849   */\n  0x00\n    /* \"#utility.yul\":6991:7020   */\n  tag_126\n    /* \"#utility.yul\":7016:7019   */\n  dup4\n    /* \"#utility.yul\":7010:7014   */\n  dup4\n    /* \"#utility.yul\":6991:7020   */\n  tag_42\n  jump\t// in\ntag_126:\n    /* \"#utility.yul\":6983:7020   */\n  swap2\n  pop\n    /* \"#utility.yul\":7053:7056   */\n  dup3\n    /* \"#utility.yul\":7050:7051   */\n  0x02\n    /* \"#utility.yul\":7046:7057   */\n  mul\n    /* \"#utility.yul\":7040:7044   */\n  dup3\n    /* \"#utility.yul\":7037:7058   */\n  or\n    /* \"#utility.yul\":7029:7058   */\n  swap1\n  pop\n    /* \"#utility.yul\":6769:7064   */\n  swap3\n  swap2\n  pop\n  pop\n  jump\t// out\n    /* \"#utility.yul\":7069:8464   */\ntag_8:\n    /* \"#utility.yul\":7186:7223   */\n  tag_128\n    /* \"#utility.yul\":7219:7222   */\n  dup3\n    /* \"#utility.yul\":7186:7223   */\n  tag_25\n  jump\t// in\ntag_128:\n    /* \"#utility.yul\":7288:7306   */\n  0xffffffffffffffff\n    /* \"#utility.yul\":7280:7286   */\n  dup2\n    /* \"#utility.yul\":7277:7307   */\n  gt\n    /* \"#utility.yul\":7274:7330   */\n  iszero\n  tag_129\n  jumpi\n    /* \"#utility.yul\":7310:7328   */\n  tag_130\n  tag_18\n  jump\t// in\ntag_130:\n    /* \"#utility.yul\":7274:7330   */\ntag_129:\n    /* \"#utility.yul\":7354:7392   */\n  tag_131\n    /* \"#utility.yul\":7386:7390   */\n  dup3\n    /* \"#utility.yul\":7380:7391   */\n  sload\n    /* \"#utility.yul\":7354:7392   */\n  tag_27\n  jump\t// in\ntag_131:\n    /* \"#utility.yul\":7439:7506   */\n  tag_132\n    /* \"#utility.yul\":7499:7505   */\n  dup3\n    /* \"#utility.yul\":7491:7497   */\n  dup3\n    /* \"#utility.yul\":7485:7489   */\n  dup6\n    /* \"#utility.yul\":7439:7506   */\n  tag_40\n  jump\t// in\ntag_132:\n    /* \"#utility.yul\":7533:7534   */\n  0x00\n    /* \"#utility.yul\":7557:7561   */\n  0x20\n    /* \"#utility.yul\":7544:7561   */\n  swap1\n  pop\n    /* \"#utility.yul\":7589:7591   */\n  0x1f\n    /* \"#utility.yul\":7581:7587   */\n  dup4\n    /* \"#utility.yul\":7578:7592   */\n  gt\n    /* \"#utility.yul\":7606:7607   */\n  0x01\n    /* \"#utility.yul\":7601:8219   */\n  dup2\n  eq\n  tag_134\n  jumpi\n    /* \"#utility.yul\":8263:8264   */\n  0x00\n    /* \"#utility.yul\":8280:8286   */\n  dup5\n    /* \"#utility.yul\":8277:8354   */\n  iszero\n  tag_135\n  jumpi\n    /* \"#utility.yul\":8329:8338   */\n  dup3\n    /* \"#utility.yul\":8324:8327   */\n  dup8\n    /* \"#utility.yul\":8320:8339   */\n  add\n    /* \"#utility.yul\":8314:8340   */\n  mload\n    /* \"#utility.yul\":8305:8340   */\n  swap1\n  pop\n    /* \"#utility.yul\":8277:8354   */\ntag_135:\n    /* \"#utility.yul\":8380:8447   */\n  tag_136\n    /* \"#utility.yul\":8440:8446   */\n  dup6\n    /* \"#utility.yul\":8433:8438   */\n  dup3\n    /* \"#utility.yul\":8380:8447   */\n  tag_43\n  jump\t// in\ntag_136:\n    /* \"#utility.yul\":8374:8378   */\n  dup7\n    /* \"#utility.yul\":8367:8448   */\n  sstore\n    /* \"#utility.yul\":8236:8458   */\n  pop\n    /* \"#utility.yul\":7571:8458   */\n  jump(tag_133)\n    /* \"#utility.yul\":7601:8219   */\ntag_134:\n    /* \"#utility.yul\":7653:7657   */\n  0x1f\n    /* \"#utility.yul\":7649:7658   */\n  not\n    /* \"#utility.yul\":7641:7647   */\n  dup5\n    /* \"#utility.yul\":7637:7659   */\n  and\n    /* \"#utility.yul\":7687:7724   */\n  tag_137\n    /* \"#utility.yul\":7719:7723   */\n  dup7\n    /* \"#utility.yul\":7687:7724   */\n  tag_28\n  jump\t// in\ntag_137:\n    /* \"#utility.yul\":7746:7747   */\n  0x00\n    /* \"#utility.yul\":7760:7968   */\ntag_138:\n    /* \"#utility.yul\":7774:7781   */\n  dup3\n    /* \"#utility.yul\":7771:7772   */\n  dup2\n    /* \"#utility.yul\":7768:7782   */\n  lt\n    /* \"#utility.yul\":7760:7968   */\n  iszero\n  tag_140\n  jumpi\n    /* \"#utility.yul\":7853:7862   */\n  dup5\n    /* \"#utility.yul\":7848:7851   */\n  dup10\n    /* \"#utility.yul\":7844:7863   */\n  add\n    /* \"#utility.yul\":7838:7864   */\n  mload\n    /* \"#utility.yul\":7830:7836   */\n  dup3\n    /* \"#utility.yul\":7823:7865   */\n  sstore\n    /* \"#utility.yul\":7904:7905   */\n  0x01\n    /* \"#utility.yul\":7896:7902   */\n  dup3\n    /* \"#utility.yul\":7892:7906   */\n  add\n    /* \"#utility.yul\":7882:7906   */\n  swap2\n  pop\n    /* \"#utility.yul\":7951:7953   */\n  0x20\n    /* \"#utility.yul\":7940:7949   */\n  dup6\n    /* \"#utility.yul\":7936:7954   */\n  add\n    /* \"#utility.yul\":7923:7954   */\n  swap5\n  pop\n    /* \"#utility.yul\":7797:7801   */\n  0x20\n    /* \"#utility.yul\":7794:7795   */\n  dup2\n    /* \"#utility.yul\":7790:7802   */\n  add\n    /* \"#utility.yul\":7785:7802   */\n  swap1\n  pop\n    /* \"#utility.yul\":7760:7968   */\n  jump(tag_138)\ntag_140:\n    /* \"#utility.yul\":7996:8002   */\n  dup7\n    /* \"#utility.yul\":7987:7994   */\n  dup4\n    /* \"#utility.yul\":7984:8003   */\n  lt\n    /* \"#utility.yul\":7981:8160   */\n  iszero\n  tag_141\n  jumpi\n    /* \"#utility.yul\":8054:8063   */\n  dup5\n    /* \"#utility.yul\":8049:8052   */\n  dup10\n    /* \"#utility.yul\":8045:8064   */\n  add\n    /* \"#utility.yul\":8039:8065   */\n  mload\n    /* \"#utility.yul\":8097:8145   */\n  tag_142\n    /* \"#utility.yul\":8139:8143   */\n  0x1f\n    /* \"#utility.yul\":8131:8137   */\n  dup10\n    /* \"#utility.yul\":8127:8144   */\n  and\n    /* \"#utility.yul\":8116:8125   */\n  dup3\n    /* \"#utility.yul\":8097:8145   */\n  tag_42\n  jump\t// in\ntag_142:\n    /* \"#utility.yul\":8089:8095   */\n  dup4\n    /* \"#utility.yul\":8082:8146   */\n  sstore\n    /* \"#utility.yul\":8004:8160   */\n  pop\n    /* \"#utility.yul\":7981:8160   */\ntag_141:\n    /* \"#utility.yul\":8206:8207   */\n  0x01\n    /* \"#utility.yul\":8202:8203   */\n  0x02\n    /* \"#utility.yul\":8194:8200   */\n  dup9\n    /* \"#utility.yul\":8190:8204   */\n  mul\n    /* \"#utility.yul\":8186:8208   */\n  add\n    /* \"#utility.yul\":8180:8184   */\n  dup9\n    /* \"#utility.yul\":8173:8209   */\n  sstore\n    /* \"#utility.yul\":7608:8219   */\n  pop\n  pop\n  pop\n    /* \"#utility.yul\":7571:8458   */\ntag_133:\n  pop\n    /* \"#utility.yul\":7161:8464   */\n  pop\n  pop\n  pop\n    /* \"#utility.yul\":7069:8464   */\n  pop\n  pop\n  jump\t// out\n    /* \"contracts/ERC721/APE.sol\":99:680  contract WTFApe is ERC721{... */\ntag_11:\n  dataSize(sub_0)\n  dup1\n  dataOffset(sub_0)\n  0x00\n  codecopy\n  0x00\n  return\nstop\n\nsub_0: assembly {\n        /* \"contracts/ERC721/APE.sol\":99:680  contract WTFApe is ERC721{... */\n      mstore(0x40, 0x80)\n      callvalue\n      dup1\n      iszero\n      tag_1\n      jumpi\n      0x00\n      dup1\n      revert\n    tag_1:\n      pop\n      jumpi(tag_2, lt(calldatasize, 0x04))\n      shr(0xe0, calldataload(0x00))\n      dup1\n      0x6352211e\n      gt\n      tag_18\n      jumpi\n      dup1\n      0xb88d4fde\n      gt\n      tag_19\n      jumpi\n      dup1\n      0xb88d4fde\n      eq\n      tag_14\n      jumpi\n      dup1\n      0xbb8a16bd\n      eq\n      tag_15\n      jumpi\n      dup1\n      0xc87b56dd\n      eq\n      tag_16\n      jumpi\n      dup1\n      0xe985e9c5\n      eq\n      tag_17\n      jumpi\n      jump(tag_2)\n    tag_19:\n      dup1\n      0x6352211e\n      eq\n      tag_10\n      jumpi\n      dup1\n      0x70a08231\n      eq\n      tag_11\n      jumpi\n      dup1\n      0x95d89b41\n      eq\n      tag_12\n      jumpi\n      dup1\n      0xa22cb465\n      eq\n      tag_13\n      jumpi\n      jump(tag_2)\n    tag_18:\n      dup1\n      0x095ea7b3\n      gt\n      tag_20\n      jumpi\n      dup1\n      0x095ea7b3\n      eq\n      tag_6\n      jumpi\n      dup1\n      0x23b872dd\n      eq\n      tag_7\n      jumpi\n      dup1\n      0x40c10f19\n      eq\n      tag_8\n      jumpi\n      dup1\n      0x42842e0e\n      eq\n      tag_9\n      jumpi\n      jump(tag_2)\n    tag_20:\n      dup1\n      0x01ffc9a7\n      eq\n      tag_3\n      jumpi\n      dup1\n      0x06fdde03\n      eq\n      tag_4\n      jumpi\n      dup1\n      0x081812fc\n      eq\n      tag_5\n      jumpi\n    tag_2:\n      0x00\n      dup1\n      revert\n        /* \"contracts/ERC721/ERC721.sol\":1027:1306  function supportsInterface(bytes4 interfaceID) external pure override returns (bool) {... */\n    tag_3:\n      tag_21\n      0x04\n      dup1\n      calldatasize\n      sub\n      dup2\n      add\n      swap1\n      tag_22\n      swap2\n      swap1\n      tag_23\n      jump\t// in\n    tag_22:\n      tag_24\n      jump\t// in\n    tag_21:\n      mload(0x40)\n      tag_25\n      swap2\n      swap1\n      tag_26\n      jump\t// in\n    tag_25:\n      mload(0x40)\n      dup1\n      swap2\n      sub\n      swap1\n      return\n        /* \"contracts/ERC721/ERC721.sol\":326:353  string public override name */\n    tag_4:\n      tag_27\n      tag_28\n      jump\t// in\n    tag_27:\n      mload(0x40)\n      tag_29\n      swap2\n      swap1\n      tag_30\n      jump\t// in\n    tag_29:\n      mload(0x40)\n      dup1\n      swap2\n      sub\n      swap1\n      return\n        /* \"contracts/ERC721/ERC721.sol\":2725:2924  function getApproved(uint tokenId) external view override returns (address) {... */\n    tag_5:\n      tag_31\n      0x04\n      dup1\n      calldatasize\n      sub\n      dup2\n      add\n      swap1\n      tag_32\n      swap2\n      swap1\n      tag_33\n      jump\t// in\n    tag_32:\n      tag_34\n      jump\t// in\n    tag_31:\n      mload(0x40)\n      tag_35\n      swap2\n      swap1\n      tag_36\n      jump\t// in\n    tag_35:\n      mload(0x40)\n      dup1\n      swap2\n      sub\n      swap1\n      return\n        /* \"contracts/ERC721/ERC721.sol\":3352:3655  function approve(address to, uint tokenId) external override {... */\n    tag_6:\n      tag_37\n      0x04\n      dup1\n      calldatasize\n      sub\n      dup2\n      add\n      swap1\n      tag_38\n      swap2\n      swap1\n      tag_39\n      jump\t// in\n    tag_38:\n      tag_40\n      jump\t// in\n    tag_37:\n      stop\n        /* \"contracts/ERC721/ERC721.sol\":4710:5016  function transferFrom(address from, address to, uint tokenId) external override {... */\n    tag_7:\n      tag_41\n      0x04\n      dup1\n      calldatasize\n      sub\n      dup2\n      add\n      swap1\n      tag_42\n      swap2\n      swap1\n      tag_43\n      jump\t// in\n    tag_42:\n      tag_44\n      jump\t// in\n    tag_41:\n      stop\n        /* \"contracts/ERC721/APE.sol\":513:677  function mint(address to, uint tokenId) external {... */\n    tag_8:\n      tag_45\n      0x04\n      dup1\n      calldatasize\n      sub\n      dup2\n      add\n      swap1\n      tag_46\n      swap2\n      swap1\n      tag_39\n      jump\t// in\n    tag_46:\n      tag_47\n      jump\t// in\n    tag_45:\n      stop\n        /* \"contracts/ERC721/ERC721.sol\":5743:5885  function safeTransferFrom(address from, address to, uint tokenId) external override {... */\n    tag_9:\n      tag_48\n      0x04\n      dup1\n      calldatasize\n      sub\n      dup2\n      add\n      swap1\n      tag_49\n      swap2\n      swap1\n      tag_43\n      jump\t// in\n    tag_49:\n      tag_50\n      jump\t// in\n    tag_48:\n      stop\n        /* \"contracts/ERC721/ERC721.sol\":1652:1833  function ownerOf(uint tokenId) public view override returns (address owner) {... */\n    tag_10:\n      tag_51\n      0x04\n      dup1\n      calldatasize\n      sub\n      dup2\n      add\n      swap1\n      tag_52\n      swap2\n      swap1\n      tag_33\n      jump\t// in\n    tag_52:\n      tag_53\n      jump\t// in\n    tag_51:\n      mload(0x40)\n      tag_54\n      swap2\n      swap1\n      tag_36\n      jump\t// in\n    tag_54:\n      mload(0x40)\n      dup1\n      swap2\n      sub\n      swap1\n      return\n        /* \"contracts/ERC721/ERC721.sol\":1390:1570  function balanceOf(address owner) external view override returns (uint256) {... */\n    tag_11:\n      tag_55\n      0x04\n      dup1\n      calldatasize\n      sub\n      dup2\n      add\n      swap1\n      tag_56\n      swap2\n      swap1\n      tag_57\n      jump\t// in\n    tag_56:\n      tag_58\n      jump\t// in\n    tag_55:\n      mload(0x40)\n      tag_59\n      swap2\n      swap1\n      tag_60\n      jump\t// in\n    tag_59:\n      mload(0x40)\n      dup1\n      swap2\n      sub\n      swap1\n      return\n        /* \"contracts/ERC721/ERC721.sol\":360:389  string public override symbol */\n    tag_12:\n      tag_61\n      tag_62\n      jump\t// in\n    tag_61:\n      mload(0x40)\n      tag_63\n      swap2\n      swap1\n      tag_30\n      jump\t// in\n    tag_63:\n      mload(0x40)\n      dup1\n      swap2\n      sub\n      swap1\n      return\n        /* \"contracts/ERC721/ERC721.sol\":2257:2605  function setApprovalForAll(address operator, bool approved) external override {... */\n    tag_13:\n      tag_64\n      0x04\n      dup1\n      calldatasize\n      sub\n      dup2\n      add\n      swap1\n      tag_65\n      swap2\n      swap1\n      tag_66\n      jump\t// in\n    tag_65:\n      tag_67\n      jump\t// in\n    tag_64:\n      stop\n        /* \"contracts/ERC721/ERC721.sol\":5398:5700  function safeTransferFrom(address from, address to, uint tokenId, bytes memory _data) public override {... */\n    tag_14:\n      tag_68\n      0x04\n      dup1\n      calldatasize\n      sub\n      dup2\n      add\n      swap1\n      tag_69\n      swap2\n      swap1\n      tag_70\n      jump\t// in\n    tag_69:\n      tag_71\n      jump\t// in\n    tag_68:\n      stop\n        /* \"contracts/ERC721/APE.sol\":131:159  uint public MAX_APES = 10000 */\n    tag_15:\n      tag_72\n      tag_73\n      jump\t// in\n    tag_72:\n      mload(0x40)\n      tag_74\n      swap2\n      swap1\n      tag_60\n      jump\t// in\n    tag_74:\n      mload(0x40)\n      dup1\n      swap2\n      sub\n      swap1\n      return\n        /* \"contracts/ERC721/ERC721.sol\":7751:8067  function tokenURI(uint256 tokenId) public view virtual override returns (string memory) {... */\n    tag_16:\n      tag_75\n      0x04\n      dup1\n      calldatasize\n      sub\n      dup2\n      add\n      swap1\n      tag_76\n      swap2\n      swap1\n      tag_33\n      jump\t// in\n    tag_76:\n      tag_77\n      jump\t// in\n    tag_75:\n      mload(0x40)\n      tag_78\n      swap2\n      swap1\n      tag_30\n      jump\t// in\n    tag_78:\n      mload(0x40)\n      dup1\n      swap2\n      sub\n      swap1\n      return\n        /* \"contracts/ERC721/ERC721.sol\":1974:2132  function isApprovedForAll(address owner, address operator) external view override returns (bool) {... */\n    tag_17:\n      tag_79\n      0x04\n      dup1\n      calldatasize\n      sub\n      dup2\n      add\n      swap1\n      tag_80\n      swap2\n      swap1\n      tag_81\n      jump\t// in\n    tag_80:\n      tag_82\n      jump\t// in\n    tag_79:\n      mload(0x40)\n      tag_83\n      swap2\n      swap1\n      tag_26\n      jump\t// in\n    tag_83:\n      mload(0x40)\n      dup1\n      swap2\n      sub\n      swap1\n      return\n        /* \"contracts/ERC721/ERC721.sol\":1027:1306  function supportsInterface(bytes4 interfaceID) external pure override returns (bool) {... */\n    tag_24:\n        /* \"contracts/ERC721/ERC721.sol\":1106:1110  bool */\n      0x00\n        /* \"contracts/ERC721/ERC721.sol\":1145:1170  type(IERC721).interfaceId */\n      0x80ac58cd00000000000000000000000000000000000000000000000000000000\n        /* \"contracts/ERC721/ERC721.sol\":1130:1170  interfaceID == type(IERC721).interfaceId */\n      not(0xffffffffffffffffffffffffffffffffffffffffffffffffffffffff)\n      and\n        /* \"contracts/ERC721/ERC721.sol\":1130:1141  interfaceID */\n      dup3\n        /* \"contracts/ERC721/ERC721.sol\":1130:1170  interfaceID == type(IERC721).interfaceId */\n      not(0xffffffffffffffffffffffffffffffffffffffffffffffffffffffff)\n      and\n      eq\n        /* \"contracts/ERC721/ERC721.sol\":1130:1230  interfaceID == type(IERC721).interfaceId ||... */\n      dup1\n      tag_85\n      jumpi\n      pop\n        /* \"contracts/ERC721/ERC721.sol\":1205:1230  type(IERC165).interfaceId */\n      0x01ffc9a700000000000000000000000000000000000000000000000000000000\n        /* \"contracts/ERC721/ERC721.sol\":1190:1230  interfaceID == type(IERC165).interfaceId */\n      not(0xffffffffffffffffffffffffffffffffffffffffffffffffffffffff)\n      and\n        /* \"contracts/ERC721/ERC721.sol\":1190:1201  interfaceID */\n      dup3\n        /* \"contracts/ERC721/ERC721.sol\":1190:1230  interfaceID == type(IERC165).interfaceId */\n      not(0xffffffffffffffffffffffffffffffffffffffffffffffffffffffff)\n      and\n      eq\n        /* \"contracts/ERC721/ERC721.sol\":1130:1230  interfaceID == type(IERC721).interfaceId ||... */\n    tag_85:\n        /* \"contracts/ERC721/ERC721.sol\":1130:1298  interfaceID == type(IERC721).interfaceId ||... */\n      dup1\n      tag_86\n      jumpi\n      pop\n        /* \"contracts/ERC721/ERC721.sol\":1265:1298  type(IERC721Metadata).interfaceId */\n      0x5b5e139f00000000000000000000000000000000000000000000000000000000\n        /* \"contracts/ERC721/ERC721.sol\":1250:1298  interfaceID == type(IERC721Metadata).interfaceId */\n      not(0xffffffffffffffffffffffffffffffffffffffffffffffffffffffff)\n      and\n        /* \"contracts/ERC721/ERC721.sol\":1250:1261  interfaceID */\n      dup3\n        /* \"contracts/ERC721/ERC721.sol\":1250:1298  interfaceID == type(IERC721Metadata).interfaceId */\n      not(0xffffffffffffffffffffffffffffffffffffffffffffffffffffffff)\n      and\n      eq\n        /* \"contracts/ERC721/ERC721.sol\":1130:1298  interfaceID == type(IERC721).interfaceId ||... */\n    tag_86:\n        /* \"contracts/ERC721/ERC721.sol\":1123:1298  return interfaceID == type(IERC721).interfaceId ||... */\n      swap1\n      pop\n        /* \"contracts/ERC721/ERC721.sol\":1027:1306  function supportsInterface(bytes4 interfaceID) external pure override returns (bool) {... */\n      swap2\n      swap1\n      pop\n      jump\t// out\n        /* \"contracts/ERC721/ERC721.sol\":326:353  string public override name */\n    tag_28:\n      0x00\n      dup1\n      sload\n      tag_87\n      swap1\n      tag_88\n      jump\t// in\n    tag_87:\n      dup1\n      0x1f\n      add\n      0x20\n      dup1\n      swap2\n      div\n      mul\n      0x20\n      add\n      mload(0x40)\n      swap1\n      dup2\n      add\n      0x40\n      mstore\n      dup1\n      swap3\n      swap2\n      swap1\n      dup2\n      dup2\n      mstore\n      0x20\n      add\n      dup3\n      dup1\n      sload\n      tag_89\n      swap1\n      tag_88\n      jump\t// in\n    tag_89:\n      dup1\n      iszero\n      tag_90\n      jumpi\n      dup1\n      0x1f\n      lt\n      tag_91\n      jumpi\n      0x0100\n      dup1\n      dup4\n      sload\n      div\n      mul\n      dup4\n      mstore\n      swap2\n      0x20\n      add\n      swap2\n      jump(tag_90)\n    tag_91:\n      dup3\n      add\n      swap2\n      swap1\n      0x00\n      mstore\n      keccak256(0x00, 0x20)\n      swap1\n    tag_92:\n      dup2\n      sload\n      dup2\n      mstore\n      swap1\n      0x01\n      add\n      swap1\n      0x20\n      add\n      dup1\n      dup4\n      gt\n      tag_92\n      jumpi\n      dup3\n      swap1\n      sub\n      0x1f\n      and\n      dup3\n      add\n      swap2\n    tag_90:\n      pop\n      pop\n      pop\n      pop\n      pop\n      dup2\n      jump\t// out\n        /* \"contracts/ERC721/ERC721.sol\":2725:2924  function getApproved(uint tokenId) external view override returns (address) {... */\n    tag_34:\n        /* \"contracts/ERC721/ERC721.sol\":2792:2799  address */\n      0x00\n        /* \"contracts/ERC721/ERC721.sol\":2848:2849  0 */\n      dup1\n        /* \"contracts/ERC721/ERC721.sol\":2820:2850  _owners[tokenId] != address(0) */\n      0xffffffffffffffffffffffffffffffffffffffff\n      and\n        /* \"contracts/ERC721/ERC721.sol\":2820:2827  _owners */\n      0x02\n        /* \"contracts/ERC721/ERC721.sol\":2820:2836  _owners[tokenId] */\n      0x00\n        /* \"contracts/ERC721/ERC721.sol\":2828:2835  tokenId */\n      dup5\n        /* \"contracts/ERC721/ERC721.sol\":2820:2836  _owners[tokenId] */\n      dup2\n      mstore\n      0x20\n      add\n      swap1\n      dup2\n      mstore\n      0x20\n      add\n      0x00\n      keccak256\n      0x00\n      swap1\n      sload\n      swap1\n      0x0100\n      exp\n      swap1\n      div\n      0xffffffffffffffffffffffffffffffffffffffff\n      and\n        /* \"contracts/ERC721/ERC721.sol\":2820:2850  _owners[tokenId] != address(0) */\n      0xffffffffffffffffffffffffffffffffffffffff\n      and\n      sub\n        /* \"contracts/ERC721/ERC721.sol\":2812:2874  require(_owners[tokenId] != address(0), \"token doesn't exist\") */\n      tag_94\n      jumpi\n      mload(0x40)\n      0x08c379a000000000000000000000000000000000000000000000000000000000\n      dup2\n      mstore\n      0x04\n      add\n      tag_95\n      swap1\n      tag_96\n      jump\t// in\n    tag_95:\n      mload(0x40)\n      dup1\n      swap2\n      sub\n      swap1\n      revert\n    tag_94:\n        /* \"contracts/ERC721/ERC721.sol\":2892:2907  _tokenApprovals */\n      0x04\n        /* \"contracts/ERC721/ERC721.sol\":2892:2916  _tokenApprovals[tokenId] */\n      0x00\n        /* \"contracts/ERC721/ERC721.sol\":2908:2915  tokenId */\n      dup4\n        /* \"contracts/ERC721/ERC721.sol\":2892:2916  _tokenApprovals[tokenId] */\n      dup2\n      mstore\n      0x20\n      add\n      swap1\n      dup2\n      mstore\n      0x20\n      add\n      0x00\n      keccak256\n      0x00\n      swap1\n      sload\n      swap1\n      0x0100\n      exp\n      swap1\n      div\n      0xffffffffffffffffffffffffffffffffffffffff\n      and\n        /* \"contracts/ERC721/ERC721.sol\":2885:2916  return _tokenApprovals[tokenId] */\n      swap1\n      pop\n        /* \"contracts/ERC721/ERC721.sol\":2725:2924  function getApproved(uint tokenId) external view override returns (address) {... */\n      swap2\n      swap1\n      pop\n      jump\t// out\n        /* \"contracts/ERC721/ERC721.sol\":3352:3655  function approve(address to, uint tokenId) external override {... */\n    tag_40:\n        /* \"contracts/ERC721/ERC721.sol\":3424:3437  address owner */\n      0x00\n        /* \"contracts/ERC721/ERC721.sol\":3440:3447  _owners */\n      0x02\n        /* \"contracts/ERC721/ERC721.sol\":3440:3456  _owners[tokenId] */\n      0x00\n        /* \"contracts/ERC721/ERC721.sol\":3448:3455  tokenId */\n      dup4\n        /* \"contracts/ERC721/ERC721.sol\":3440:3456  _owners[tokenId] */\n      dup2\n      mstore\n      0x20\n      add\n      swap1\n      dup2\n      mstore\n      0x20\n      add\n      0x00\n      keccak256\n      0x00\n      swap1\n      sload\n      swap1\n      0x0100\n      exp\n      swap1\n      div\n      0xffffffffffffffffffffffffffffffffffffffff\n      and\n        /* \"contracts/ERC721/ERC721.sol\":3424:3456  address owner = _owners[tokenId] */\n      swap1\n      pop\n        /* \"contracts/ERC721/ERC721.sol\":3503:3508  owner */\n      dup1\n        /* \"contracts/ERC721/ERC721.sol\":3489:3508  msg.sender == owner */\n      0xffffffffffffffffffffffffffffffffffffffff\n      and\n        /* \"contracts/ERC721/ERC721.sol\":3489:3499  msg.sender */\n      caller\n        /* \"contracts/ERC721/ERC721.sol\":3489:3508  msg.sender == owner */\n      0xffffffffffffffffffffffffffffffffffffffff\n      and\n      eq\n        /* \"contracts/ERC721/ERC721.sol\":3489:3549  msg.sender == owner || _operatorApprovals[owner][msg.sender] */\n      dup1\n      tag_98\n      jumpi\n      pop\n        /* \"contracts/ERC721/ERC721.sol\":3512:3530  _operatorApprovals */\n      0x05\n        /* \"contracts/ERC721/ERC721.sol\":3512:3537  _operatorApprovals[owner] */\n      0x00\n        /* \"contracts/ERC721/ERC721.sol\":3531:3536  owner */\n      dup3\n        /* \"contracts/ERC721/ERC721.sol\":3512:3537  _operatorApprovals[owner] */\n      0xffffffffffffffffffffffffffffffffffffffff\n      and\n      0xffffffffffffffffffffffffffffffffffffffff\n      and\n      dup2\n      mstore\n      0x20\n      add\n      swap1\n      dup2\n      mstore\n      0x20\n      add\n      0x00\n      keccak256\n        /* \"contracts/ERC721/ERC721.sol\":3512:3549  _operatorApprovals[owner][msg.sender] */\n      0x00\n        /* \"contracts/ERC721/ERC721.sol\":3538:3548  msg.sender */\n      caller\n        /* \"contracts/ERC721/ERC721.sol\":3512:3549  _operatorApprovals[owner][msg.sender] */\n      0xffffffffffffffffffffffffffffffffffffffff\n      and\n      0xffffffffffffffffffffffffffffffffffffffff\n      and\n      dup2\n      mstore\n      0x20\n      add\n      swap1\n      dup2\n      mstore\n      0x20\n      add\n      0x00\n      keccak256\n      0x00\n      swap1\n      sload\n      swap1\n      0x0100\n      exp\n      swap1\n      div\n      0xff\n      and\n        /* \"contracts/ERC721/ERC721.sol\":3489:3549  msg.sender == owner || _operatorApprovals[owner][msg.sender] */\n    tag_98:\n        /* \"contracts/ERC721/ERC721.sol\":3467:3608  require(... */\n      tag_99\n      jumpi\n      mload(0x40)\n      0x08c379a000000000000000000000000000000000000000000000000000000000\n      dup2\n      mstore\n      0x04\n      add\n      tag_100\n      swap1\n      tag_101\n      jump\t// in\n    tag_100:\n      mload(0x40)\n      dup1\n      swap2\n      sub\n      swap1\n      revert\n    tag_99:\n        /* \"contracts/ERC721/ERC721.sol\":3619:3647  _approve(owner, to, tokenId) */\n      tag_102\n        /* \"contracts/ERC721/ERC721.sol\":3628:3633  owner */\n      dup2\n        /* \"contracts/ERC721/ERC721.sol\":3635:3637  to */\n      dup5\n        /* \"contracts/ERC721/ERC721.sol\":3639:3646  tokenId */\n      dup5\n        /* \"contracts/ERC721/ERC721.sol\":3619:3627  _approve */\n      tag_103\n        /* \"contracts/ERC721/ERC721.sol\":3619:3647  _approve(owner, to, tokenId) */\n      jump\t// in\n    tag_102:\n        /* \"contracts/ERC721/ERC721.sol\":3413:3655  {... */\n      pop\n        /* \"contracts/ERC721/ERC721.sol\":3352:3655  function approve(address to, uint tokenId) external override {... */\n      pop\n      pop\n      jump\t// out\n        /* \"contracts/ERC721/ERC721.sol\":4710:5016  function transferFrom(address from, address to, uint tokenId) external override {... */\n    tag_44:\n        /* \"contracts/ERC721/ERC721.sol\":4801:4814  address owner */\n      0x00\n        /* \"contracts/ERC721/ERC721.sol\":4817:4833  ownerOf(tokenId) */\n      tag_105\n        /* \"contracts/ERC721/ERC721.sol\":4825:4832  tokenId */\n      dup3\n        /* \"contracts/ERC721/ERC721.sol\":4817:4824  ownerOf */\n      tag_53\n        /* \"contracts/ERC721/ERC721.sol\":4817:4833  ownerOf(tokenId) */\n      jump\t// in\n    tag_105:\n        /* \"contracts/ERC721/ERC721.sol\":4801:4833  address owner = ownerOf(tokenId) */\n      swap1\n      pop\n        /* \"contracts/ERC721/ERC721.sol\":4866:4912  _isApprovedOrOwner(owner, msg.sender, tokenId) */\n      tag_106\n        /* \"contracts/ERC721/ERC721.sol\":4885:4890  owner */\n      dup2\n        /* \"contracts/ERC721/ERC721.sol\":4892:4902  msg.sender */\n      caller\n        /* \"contracts/ERC721/ERC721.sol\":4904:4911  tokenId */\n      dup5\n        /* \"contracts/ERC721/ERC721.sol\":4866:4884  _isApprovedOrOwner */\n      tag_107\n        /* \"contracts/ERC721/ERC721.sol\":4866:4912  _isApprovedOrOwner(owner, msg.sender, tokenId) */\n      jump\t// in\n    tag_106:\n        /* \"contracts/ERC721/ERC721.sol\":4844:4962  require(... */\n      tag_108\n      jumpi\n      mload(0x40)\n      0x08c379a000000000000000000000000000000000000000000000000000000000\n      dup2\n      mstore\n      0x04\n      add\n      tag_109\n      swap1\n      tag_110\n      jump\t// in\n    tag_109:\n      mload(0x40)\n      dup1\n      swap2\n      sub\n      swap1\n      revert\n    tag_108:\n        /* \"contracts/ERC721/ERC721.sol\":4973:5008  _transfer(owner, from, to, tokenId) */\n      tag_111\n        /* \"contracts/ERC721/ERC721.sol\":4983:4988  owner */\n      dup2\n        /* \"contracts/ERC721/ERC721.sol\":4990:4994  from */\n      dup6\n        /* \"contracts/ERC721/ERC721.sol\":4996:4998  to */\n      dup6\n        /* \"contracts/ERC721/ERC721.sol\":5000:5007  tokenId */\n      dup6\n        /* \"contracts/ERC721/ERC721.sol\":4973:4982  _transfer */\n      tag_112\n        /* \"contracts/ERC721/ERC721.sol\":4973:5008  _transfer(owner, from, to, tokenId) */\n      jump\t// in\n    tag_111:\n        /* \"contracts/ERC721/ERC721.sol\":4790:5016  {... */\n      pop\n        /* \"contracts/ERC721/ERC721.sol\":4710:5016  function transferFrom(address from, address to, uint tokenId) external override {... */\n      pop\n      pop\n      pop\n      jump\t// out\n        /* \"contracts/ERC721/APE.sol\":513:677  function mint(address to, uint tokenId) external {... */\n    tag_47:\n        /* \"contracts/ERC721/APE.sol\":592:593  0 */\n      0x00\n        /* \"contracts/ERC721/APE.sol\":581:588  tokenId */\n      dup2\n        /* \"contracts/ERC721/APE.sol\":581:593  tokenId >= 0 */\n      lt\n      iszero\n        /* \"contracts/ERC721/APE.sol\":581:615  tokenId >= 0 && tokenId < MAX_APES */\n      dup1\n      iszero\n      tag_114\n      jumpi\n      pop\n        /* \"contracts/ERC721/APE.sol\":607:615  MAX_APES */\n      sload(0x06)\n        /* \"contracts/ERC721/APE.sol\":597:604  tokenId */\n      dup2\n        /* \"contracts/ERC721/APE.sol\":597:615  tokenId < MAX_APES */\n      lt\n        /* \"contracts/ERC721/APE.sol\":581:615  tokenId >= 0 && tokenId < MAX_APES */\n    tag_114:\n        /* \"contracts/ERC721/APE.sol\":573:640  require(tokenId >= 0 && tokenId < MAX_APES, \"tokenId out of range\") */\n      tag_115\n      jumpi\n      mload(0x40)\n      0x08c379a000000000000000000000000000000000000000000000000000000000\n      dup2\n      mstore\n      0x04\n      add\n      tag_116\n      swap1\n      tag_117\n      jump\t// in\n    tag_116:\n      mload(0x40)\n      dup1\n      swap2\n      sub\n      swap1\n      revert\n    tag_115:\n        /* \"contracts/ERC721/APE.sol\":651:669  _mint(to, tokenId) */\n      tag_118\n        /* \"contracts/ERC721/APE.sol\":657:659  to */\n      dup3\n        /* \"contracts/ERC721/APE.sol\":661:668  tokenId */\n      dup3\n        /* \"contracts/ERC721/APE.sol\":651:656  _mint */\n      tag_119\n        /* \"contracts/ERC721/APE.sol\":651:669  _mint(to, tokenId) */\n      jump\t// in\n    tag_118:\n        /* \"contracts/ERC721/APE.sol\":513:677  function mint(address to, uint tokenId) external {... */\n      pop\n      pop\n      jump\t// out\n        /* \"contracts/ERC721/ERC721.sol\":5743:5885  function safeTransferFrom(address from, address to, uint tokenId) external override {... */\n    tag_50:\n        /* \"contracts/ERC721/ERC721.sol\":5838:5877  safeTransferFrom(from, to, tokenId, \"\") */\n      tag_121\n        /* \"contracts/ERC721/ERC721.sol\":5855:5859  from */\n      dup4\n        /* \"contracts/ERC721/ERC721.sol\":5861:5863  to */\n      dup4\n        /* \"contracts/ERC721/ERC721.sol\":5865:5872  tokenId */\n      dup4\n        /* \"contracts/ERC721/ERC721.sol\":5838:5877  safeTransferFrom(from, to, tokenId, \"\") */\n      mload(0x40)\n      dup1\n      0x20\n      add\n      0x40\n      mstore\n      dup1\n      0x00\n      dup2\n      mstore\n      pop\n        /* \"contracts/ERC721/ERC721.sol\":5838:5854  safeTransferFrom */\n      tag_71\n        /* \"contracts/ERC721/ERC721.sol\":5838:5877  safeTransferFrom(from, to, tokenId, \"\") */\n      jump\t// in\n    tag_121:\n        /* \"contracts/ERC721/ERC721.sol\":5743:5885  function safeTransferFrom(address from, address to, uint tokenId) external override {... */\n      pop\n      pop\n      pop\n      jump\t// out\n        /* \"contracts/ERC721/ERC721.sol\":1652:1833  function ownerOf(uint tokenId) public view override returns (address owner) {... */\n    tag_53:\n        /* \"contracts/ERC721/ERC721.sol\":1713:1726  address owner */\n      0x00\n        /* \"contracts/ERC721/ERC721.sol\":1747:1754  _owners */\n      0x02\n        /* \"contracts/ERC721/ERC721.sol\":1747:1763  _owners[tokenId] */\n      0x00\n        /* \"contracts/ERC721/ERC721.sol\":1755:1762  tokenId */\n      dup4\n        /* \"contracts/ERC721/ERC721.sol\":1747:1763  _owners[tokenId] */\n      dup2\n      mstore\n      0x20\n      add\n      swap1\n      dup2\n      mstore\n      0x20\n      add\n      0x00\n      keccak256\n      0x00\n      swap1\n      sload\n      swap1\n      0x0100\n      exp\n      swap1\n      div\n      0xffffffffffffffffffffffffffffffffffffffff\n      and\n        /* \"contracts/ERC721/ERC721.sol\":1739:1763  owner = _owners[tokenId] */\n      swap1\n      pop\n        /* \"contracts/ERC721/ERC721.sol\":1799:1800  0 */\n      0x00\n        /* \"contracts/ERC721/ERC721.sol\":1782:1801  owner != address(0) */\n      0xffffffffffffffffffffffffffffffffffffffff\n      and\n        /* \"contracts/ERC721/ERC721.sol\":1782:1787  owner */\n      dup2\n        /* \"contracts/ERC721/ERC721.sol\":1782:1801  owner != address(0) */\n      0xffffffffffffffffffffffffffffffffffffffff\n      and\n      sub\n        /* \"contracts/ERC721/ERC721.sol\":1774:1825  require(owner != address(0), \"token doesn't exist\") */\n      tag_123\n      jumpi\n      mload(0x40)\n      0x08c379a000000000000000000000000000000000000000000000000000000000\n      dup2\n      mstore\n      0x04\n      add\n      tag_124\n      swap1\n      tag_96\n      jump\t// in\n    tag_124:\n      mload(0x40)\n      dup1\n      swap2\n      sub\n      swap1\n      revert\n    tag_123:\n        /* \"contracts/ERC721/ERC721.sol\":1652:1833  function ownerOf(uint tokenId) public view override returns (address owner) {... */\n      swap2\n      swap1\n      pop\n      jump\t// out\n        /* \"contracts/ERC721/ERC721.sol\":1390:1570  function balanceOf(address owner) external view override returns (uint256) {... */\n    tag_58:\n        /* \"contracts/ERC721/ERC721.sol\":1456:1463  uint256 */\n      0x00\n        /* \"contracts/ERC721/ERC721.sol\":1501:1502  0 */\n      dup1\n        /* \"contracts/ERC721/ERC721.sol\":1484:1503  owner != address(0) */\n      0xffffffffffffffffffffffffffffffffffffffff\n      and\n        /* \"contracts/ERC721/ERC721.sol\":1484:1489  owner */\n      dup3\n        /* \"contracts/ERC721/ERC721.sol\":1484:1503  owner != address(0) */\n      0xffffffffffffffffffffffffffffffffffffffff\n      and\n      sub\n        /* \"contracts/ERC721/ERC721.sol\":1476:1528  require(owner != address(0), \"owner = zero address\") */\n      tag_126\n      jumpi\n      mload(0x40)\n      0x08c379a000000000000000000000000000000000000000000000000000000000\n      dup2\n      mstore\n      0x04\n      add\n      tag_127\n      swap1\n      tag_128\n      jump\t// in\n    tag_127:\n      mload(0x40)\n      dup1\n      swap2\n      sub\n      swap1\n      revert\n    tag_126:\n        /* \"contracts/ERC721/ERC721.sol\":1546:1555  _balances */\n      0x03\n        /* \"contracts/ERC721/ERC721.sol\":1546:1562  _balances[owner] */\n      0x00\n        /* \"contracts/ERC721/ERC721.sol\":1556:1561  owner */\n      dup4\n        /* \"contracts/ERC721/ERC721.sol\":1546:1562  _balances[owner] */\n      0xffffffffffffffffffffffffffffffffffffffff\n      and\n      0xffffffffffffffffffffffffffffffffffffffff\n      and\n      dup2\n      mstore\n      0x20\n      add\n      swap1\n      dup2\n      mstore\n      0x20\n      add\n      0x00\n      keccak256\n      sload\n        /* \"contracts/ERC721/ERC721.sol\":1539:1562  return _balances[owner] */\n      swap1\n      pop\n        /* \"contracts/ERC721/ERC721.sol\":1390:1570  function balanceOf(address owner) external view override returns (uint256) {... */\n      swap2\n      swap1\n      pop\n      jump\t// out\n        /* \"contracts/ERC721/ERC721.sol\":360:389  string public override symbol */\n    tag_62:\n      0x01\n      dup1\n      sload\n      tag_129\n      swap1\n      tag_88\n      jump\t// in\n    tag_129:\n      dup1\n      0x1f\n      add\n      0x20\n      dup1\n      swap2\n      div\n      mul\n      0x20\n      add\n      mload(0x40)\n      swap1\n      dup2\n      add\n      0x40\n      mstore\n      dup1\n      swap3\n      swap2\n      swap1\n      dup2\n      dup2\n      mstore\n      0x20\n      add\n      dup3\n      dup1\n      sload\n      tag_130\n      swap1\n      tag_88\n      jump\t// in\n    tag_130:\n      dup1\n      iszero\n      tag_131\n      jumpi\n      dup1\n      0x1f\n      lt\n      tag_132\n      jumpi\n      0x0100\n      dup1\n      dup4\n      sload\n      div\n      mul\n      dup4\n      mstore\n      swap2\n      0x20\n      add\n      swap2\n      jump(tag_131)\n    tag_132:\n      dup3\n      add\n      swap2\n      swap1\n      0x00\n      mstore\n      keccak256(0x00, 0x20)\n      swap1\n    tag_133:\n      dup2\n      sload\n      dup2\n      mstore\n      swap1\n      0x01\n      add\n      swap1\n      0x20\n      add\n      dup1\n      dup4\n      gt\n      tag_133\n      jumpi\n      dup3\n      swap1\n      sub\n      0x1f\n      and\n      dup3\n      add\n      swap2\n    tag_131:\n      pop\n      pop\n      pop\n      pop\n      pop\n      dup2\n      jump\t// out\n        /* \"contracts/ERC721/ERC721.sol\":2257:2605  function setApprovalForAll(address operator, bool approved) external override {... */\n    tag_67:\n        /* \"contracts/ERC721/ERC721.sol\":2366:2376  msg.sender */\n      caller\n        /* \"contracts/ERC721/ERC721.sol\":2354:2376  operator != msg.sender */\n      0xffffffffffffffffffffffffffffffffffffffff\n      and\n        /* \"contracts/ERC721/ERC721.sol\":2354:2362  operator */\n      dup3\n        /* \"contracts/ERC721/ERC721.sol\":2354:2376  operator != msg.sender */\n      0xffffffffffffffffffffffffffffffffffffffff\n      and\n      sub\n        /* \"contracts/ERC721/ERC721.sol\":2346:2414  require(operator != msg.sender, \"ERC721 can't approve for yourself\") */\n      tag_135\n      jumpi\n      mload(0x40)\n      0x08c379a000000000000000000000000000000000000000000000000000000000\n      dup2\n      mstore\n      0x04\n      add\n      tag_136\n      swap1\n      tag_137\n      jump\t// in\n    tag_136:\n      mload(0x40)\n      dup1\n      swap2\n      sub\n      swap1\n      revert\n    tag_135:\n        /* \"contracts/ERC721/ERC721.sol\":2468:2476  approved */\n      dup1\n        /* \"contracts/ERC721/ERC721.sol\":2425:2443  _operatorApprovals */\n      0x05\n        /* \"contracts/ERC721/ERC721.sol\":2425:2455  _operatorApprovals[msg.sender] */\n      0x00\n        /* \"contracts/ERC721/ERC721.sol\":2444:2454  msg.sender */\n      caller\n        /* \"contracts/ERC721/ERC721.sol\":2425:2455  _operatorApprovals[msg.sender] */\n      0xffffffffffffffffffffffffffffffffffffffff\n      and\n      0xffffffffffffffffffffffffffffffffffffffff\n      and\n      dup2\n      mstore\n      0x20\n      add\n      swap1\n      dup2\n      mstore\n      0x20\n      add\n      0x00\n      keccak256\n        /* \"contracts/ERC721/ERC721.sol\":2425:2465  _operatorApprovals[msg.sender][operator] */\n      0x00\n        /* \"contracts/ERC721/ERC721.sol\":2456:2464  operator */\n      dup5\n        /* \"contracts/ERC721/ERC721.sol\":2425:2465  _operatorApprovals[msg.sender][operator] */\n      0xffffffffffffffffffffffffffffffffffffffff\n      and\n      0xffffffffffffffffffffffffffffffffffffffff\n      and\n      dup2\n      mstore\n      0x20\n      add\n      swap1\n      dup2\n      mstore\n      0x20\n      add\n      0x00\n      keccak256\n      0x00\n        /* \"contracts/ERC721/ERC721.sol\":2425:2476  _operatorApprovals[msg.sender][operator] = approved */\n      0x0100\n      exp\n      dup2\n      sload\n      dup2\n      0xff\n      mul\n      not\n      and\n      swap1\n      dup4\n      iszero\n      iszero\n      mul\n      or\n      swap1\n      sstore\n      pop\n        /* \"contracts/ERC721/ERC721.sol\":2578:2586  operator */\n      dup2\n        /* \"contracts/ERC721/ERC721.sol\":2551:2597  ApprovalForAll(msg.sender, operator, approved) */\n      0xffffffffffffffffffffffffffffffffffffffff\n      and\n        /* \"contracts/ERC721/ERC721.sol\":2566:2576  msg.sender */\n      caller\n        /* \"contracts/ERC721/ERC721.sol\":2551:2597  ApprovalForAll(msg.sender, operator, approved) */\n      0xffffffffffffffffffffffffffffffffffffffff\n      and\n      0x17307eab39ab6107e8899845ad3d59bd9653f200f220920489ca2b5937696c31\n        /* \"contracts/ERC721/ERC721.sol\":2588:2596  approved */\n      dup4\n        /* \"contracts/ERC721/ERC721.sol\":2551:2597  ApprovalForAll(msg.sender, operator, approved) */\n      mload(0x40)\n      tag_138\n      swap2\n      swap1\n      tag_26\n      jump\t// in\n    tag_138:\n      mload(0x40)\n      dup1\n      swap2\n      sub\n      swap1\n      log3\n        /* \"contracts/ERC721/ERC721.sol\":2257:2605  function setApprovalForAll(address operator, bool approved) external override {... */\n      pop\n      pop\n      jump\t// out\n        /* \"contracts/ERC721/ERC721.sol\":5398:5700  function safeTransferFrom(address from, address to, uint tokenId, bytes memory _data) public override {... */\n    tag_71:\n        /* \"contracts/ERC721/ERC721.sol\":5511:5524  address owner */\n      0x00\n        /* \"contracts/ERC721/ERC721.sol\":5527:5543  ownerOf(tokenId) */\n      tag_140\n        /* \"contracts/ERC721/ERC721.sol\":5535:5542  tokenId */\n      dup4\n        /* \"contracts/ERC721/ERC721.sol\":5527:5534  ownerOf */\n      tag_53\n        /* \"contracts/ERC721/ERC721.sol\":5527:5543  ownerOf(tokenId) */\n      jump\t// in\n    tag_140:\n        /* \"contracts/ERC721/ERC721.sol\":5511:5543  address owner = ownerOf(tokenId) */\n      swap1\n      pop\n        /* \"contracts/ERC721/ERC721.sol\":5562:5608  _isApprovedOrOwner(owner, msg.sender, tokenId) */\n      tag_141\n        /* \"contracts/ERC721/ERC721.sol\":5581:5586  owner */\n      dup2\n        /* \"contracts/ERC721/ERC721.sol\":5588:5598  msg.sender */\n      caller\n        /* \"contracts/ERC721/ERC721.sol\":5600:5607  tokenId */\n      dup6\n        /* \"contracts/ERC721/ERC721.sol\":5562:5580  _isApprovedOrOwner */\n      tag_107\n        /* \"contracts/ERC721/ERC721.sol\":5562:5608  _isApprovedOrOwner(owner, msg.sender, tokenId) */\n      jump\t// in\n    tag_141:\n        /* \"contracts/ERC721/ERC721.sol\":5554:5635  require(_isApprovedOrOwner(owner, msg.sender, tokenId), \"not owner nor approved\") */\n      tag_142\n      jumpi\n      mload(0x40)\n      0x08c379a000000000000000000000000000000000000000000000000000000000\n      dup2\n      mstore\n      0x04\n      add\n      tag_143\n      swap1\n      tag_110\n      jump\t// in\n    tag_143:\n      mload(0x40)\n      dup1\n      swap2\n      sub\n      swap1\n      revert\n    tag_142:\n        /* \"contracts/ERC721/ERC721.sol\":5646:5692  _safeTransfer(owner, from, to, tokenId, _data) */\n      tag_144\n        /* \"contracts/ERC721/ERC721.sol\":5660:5665  owner */\n      dup2\n        /* \"contracts/ERC721/ERC721.sol\":5667:5671  from */\n      dup7\n        /* \"contracts/ERC721/ERC721.sol\":5673:5675  to */\n      dup7\n        /* \"contracts/ERC721/ERC721.sol\":5677:5684  tokenId */\n      dup7\n        /* \"contracts/ERC721/ERC721.sol\":5686:5691  _data */\n      dup7\n        /* \"contracts/ERC721/ERC721.sol\":5646:5659  _safeTransfer */\n      tag_145\n        /* \"contracts/ERC721/ERC721.sol\":5646:5692  _safeTransfer(owner, from, to, tokenId, _data) */\n      jump\t// in\n    tag_144:\n        /* \"contracts/ERC721/ERC721.sol\":5500:5700  {... */\n      pop\n        /* \"contracts/ERC721/ERC721.sol\":5398:5700  function safeTransferFrom(address from, address to, uint tokenId, bytes memory _data) public override {... */\n      pop\n      pop\n      pop\n      pop\n      jump\t// out\n        /* \"contracts/ERC721/APE.sol\":131:159  uint public MAX_APES = 10000 */\n    tag_73:\n      sload(0x06)\n      dup2\n      jump\t// out\n        /* \"contracts/ERC721/ERC721.sol\":7751:8067  function tokenURI(uint256 tokenId) public view virtual override returns (string memory) {... */\n    tag_77:\n        /* \"contracts/ERC721/ERC721.sol\":7824:7837  string memory */\n      0x60\n        /* \"contracts/ERC721/ERC721.sol\":7886:7887  0 */\n      0x00\n        /* \"contracts/ERC721/ERC721.sol\":7858:7888  _owners[tokenId] != address(0) */\n      0xffffffffffffffffffffffffffffffffffffffff\n      and\n        /* \"contracts/ERC721/ERC721.sol\":7858:7865  _owners */\n      0x02\n        /* \"contracts/ERC721/ERC721.sol\":7858:7874  _owners[tokenId] */\n      0x00\n        /* \"contracts/ERC721/ERC721.sol\":7866:7873  tokenId */\n      dup5\n        /* \"contracts/ERC721/ERC721.sol\":7858:7874  _owners[tokenId] */\n      dup2\n      mstore\n      0x20\n      add\n      swap1\n      dup2\n      mstore\n      0x20\n      add\n      0x00\n      keccak256\n      0x00\n      swap1\n      sload\n      swap1\n      0x0100\n      exp\n      swap1\n      div\n      0xffffffffffffffffffffffffffffffffffffffff\n      and\n        /* \"contracts/ERC721/ERC721.sol\":7858:7888  _owners[tokenId] != address(0) */\n      0xffffffffffffffffffffffffffffffffffffffff\n      and\n      sub\n        /* \"contracts/ERC721/ERC721.sol\":7850:7908  require(_owners[tokenId] != address(0), \"Token Not Exist\") */\n      tag_147\n      jumpi\n      mload(0x40)\n      0x08c379a000000000000000000000000000000000000000000000000000000000\n      dup2\n      mstore\n      0x04\n      add\n      tag_148\n      swap1\n      tag_149\n      jump\t// in\n    tag_148:\n      mload(0x40)\n      dup1\n      swap2\n      sub\n      swap1\n      revert\n    tag_147:\n        /* \"contracts/ERC721/ERC721.sol\":7921:7942  string memory baseURI */\n      0x00\n        /* \"contracts/ERC721/ERC721.sol\":7945:7955  _baseURI() */\n      tag_150\n        /* \"contracts/ERC721/ERC721.sol\":7945:7953  _baseURI */\n      tag_151\n        /* \"contracts/ERC721/ERC721.sol\":7945:7955  _baseURI() */\n      jump\t// in\n    tag_150:\n        /* \"contracts/ERC721/ERC721.sol\":7921:7955  string memory baseURI = _baseURI() */\n      swap1\n      pop\n        /* \"contracts/ERC721/ERC721.sol\":7997:7998  0 */\n      0x00\n        /* \"contracts/ERC721/ERC721.sol\":7979:7986  baseURI */\n      dup2\n        /* \"contracts/ERC721/ERC721.sol\":7973:7994  bytes(baseURI).length */\n      mload\n        /* \"contracts/ERC721/ERC721.sol\":7973:7998  bytes(baseURI).length > 0 */\n      gt\n        /* \"contracts/ERC721/ERC721.sol\":7973:8059  bytes(baseURI).length > 0 ? string(abi.encodePacked(baseURI, tokenId.toString())) : \"\" */\n      tag_152\n      jumpi\n      mload(0x40)\n      dup1\n      0x20\n      add\n      0x40\n      mstore\n      dup1\n      0x00\n      dup2\n      mstore\n      pop\n      jump(tag_153)\n    tag_152:\n        /* \"contracts/ERC721/ERC721.sol\":8025:8032  baseURI */\n      dup1\n        /* \"contracts/ERC721/ERC721.sol\":8034:8052  tokenId.toString() */\n      tag_154\n        /* \"contracts/ERC721/ERC721.sol\":8034:8041  tokenId */\n      dup5\n        /* \"contracts/ERC721/ERC721.sol\":8034:8050  tokenId.toString */\n      tag_155\n        /* \"contracts/ERC721/ERC721.sol\":8034:8052  tokenId.toString() */\n      jump\t// in\n    tag_154:\n        /* \"contracts/ERC721/ERC721.sol\":8008:8053  abi.encodePacked(baseURI, tokenId.toString()) */\n      add(0x20, mload(0x40))\n      tag_156\n      swap3\n      swap2\n      swap1\n      tag_157\n      jump\t// in\n    tag_156:\n      mload(0x40)\n      0x20\n      dup2\n      dup4\n      sub\n      sub\n      dup2\n      mstore\n      swap1\n      0x40\n      mstore\n        /* \"contracts/ERC721/ERC721.sol\":7973:8059  bytes(baseURI).length > 0 ? string(abi.encodePacked(baseURI, tokenId.toString())) : \"\" */\n    tag_153:\n        /* \"contracts/ERC721/ERC721.sol\":7966:8059  return bytes(baseURI).length > 0 ? string(abi.encodePacked(baseURI, tokenId.toString())) : \"\" */\n      swap2\n      pop\n      pop\n        /* \"contracts/ERC721/ERC721.sol\":7751:8067  function tokenURI(uint256 tokenId) public view virtual override returns (string memory) {... */\n      swap2\n      swap1\n      pop\n      jump\t// out\n        /* \"contracts/ERC721/ERC721.sol\":1974:2132  function isApprovedForAll(address owner, address operator) external view override returns (bool) {... */\n    tag_82:\n        /* \"contracts/ERC721/ERC721.sol\":2065:2069  bool */\n      0x00\n        /* \"contracts/ERC721/ERC721.sol\":2089:2107  _operatorApprovals */\n      0x05\n        /* \"contracts/ERC721/ERC721.sol\":2089:2114  _operatorApprovals[owner] */\n      0x00\n        /* \"contracts/ERC721/ERC721.sol\":2108:2113  owner */\n      dup5\n        /* \"contracts/ERC721/ERC721.sol\":2089:2114  _operatorApprovals[owner] */\n      0xffffffffffffffffffffffffffffffffffffffff\n      and\n      0xffffffffffffffffffffffffffffffffffffffff\n      and\n      dup2\n      mstore\n      0x20\n      add\n      swap1\n      dup2\n      mstore\n      0x20\n      add\n      0x00\n      keccak256\n        /* \"contracts/ERC721/ERC721.sol\":2089:2124  _operatorApprovals[owner][operator] */\n      0x00\n        /* \"contracts/ERC721/ERC721.sol\":2115:2123  operator */\n      dup4\n        /* \"contracts/ERC721/ERC721.sol\":2089:2124  _operatorApprovals[owner][operator] */\n      0xffffffffffffffffffffffffffffffffffffffff\n      and\n      0xffffffffffffffffffffffffffffffffffffffff\n      and\n      dup2\n      mstore\n      0x20\n      add\n      swap1\n      dup2\n      mstore\n      0x20\n      add\n      0x00\n      keccak256\n      0x00\n      swap1\n      sload\n      swap1\n      0x0100\n      exp\n      swap1\n      div\n      0xff\n      and\n        /* \"contracts/ERC721/ERC721.sol\":2082:2124  return _operatorApprovals[owner][operator] */\n      swap1\n      pop\n        /* \"contracts/ERC721/ERC721.sol\":1974:2132  function isApprovedForAll(address owner, address operator) external view override returns (bool) {... */\n      swap3\n      swap2\n      pop\n      pop\n      jump\t// out\n        /* \"contracts/ERC721/ERC721.sol\":3042:3201  function _approve(address owner, address to, uint tokenId) private {... */\n    tag_103:\n        /* \"contracts/ERC721/ERC721.sol\":3147:3149  to */\n      dup2\n        /* \"contracts/ERC721/ERC721.sol\":3120:3135  _tokenApprovals */\n      0x04\n        /* \"contracts/ERC721/ERC721.sol\":3120:3144  _tokenApprovals[tokenId] */\n      0x00\n        /* \"contracts/ERC721/ERC721.sol\":3136:3143  tokenId */\n      dup4\n        /* \"contracts/ERC721/ERC721.sol\":3120:3144  _tokenApprovals[tokenId] */\n      dup2\n      mstore\n      0x20\n      add\n      swap1\n      dup2\n      mstore\n      0x20\n      add\n      0x00\n      keccak256\n      0x00\n        /* \"contracts/ERC721/ERC721.sol\":3120:3149  _tokenApprovals[tokenId] = to */\n      0x0100\n      exp\n      dup2\n      sload\n      dup2\n      0xffffffffffffffffffffffffffffffffffffffff\n      mul\n      not\n      and\n      swap1\n      dup4\n      0xffffffffffffffffffffffffffffffffffffffff\n      and\n      mul\n      or\n      swap1\n      sstore\n      pop\n        /* \"contracts/ERC721/ERC721.sol\":3185:3192  tokenId */\n      dup1\n        /* \"contracts/ERC721/ERC721.sol\":3181:3183  to */\n      dup3\n        /* \"contracts/ERC721/ERC721.sol\":3165:3193  Approval(owner, to, tokenId) */\n      0xffffffffffffffffffffffffffffffffffffffff\n      and\n        /* \"contracts/ERC721/ERC721.sol\":3174:3179  owner */\n      dup5\n        /* \"contracts/ERC721/ERC721.sol\":3165:3193  Approval(owner, to, tokenId) */\n      0xffffffffffffffffffffffffffffffffffffffff\n      and\n      0x8c5be1e5ebec7d5bd14f71427d1e84f3dd0314c0f7b2291e5b200ac8c7c3b925\n      mload(0x40)\n      mload(0x40)\n      dup1\n      swap2\n      sub\n      swap1\n      log4\n        /* \"contracts/ERC721/ERC721.sol\":3042:3201  function _approve(address owner, address to, uint tokenId) private {... */\n      pop\n      pop\n      pop\n      jump\t// out\n        /* \"contracts/ERC721/ERC721.sol\":3779:4028  function _isApprovedOrOwner(address owner, address spender, uint tokenId) private view returns (bool) {... */\n    tag_107:\n        /* \"contracts/ERC721/ERC721.sol\":3875:3879  bool */\n      0x00\n        /* \"contracts/ERC721/ERC721.sol\":3911:3916  owner */\n      dup4\n        /* \"contracts/ERC721/ERC721.sol\":3900:3916  spender == owner */\n      0xffffffffffffffffffffffffffffffffffffffff\n      and\n        /* \"contracts/ERC721/ERC721.sol\":3900:3907  spender */\n      dup4\n        /* \"contracts/ERC721/ERC721.sol\":3900:3916  spender == owner */\n      0xffffffffffffffffffffffffffffffffffffffff\n      and\n      eq\n        /* \"contracts/ERC721/ERC721.sol\":3900:3968  spender == owner ||... */\n      dup1\n      tag_161\n      jumpi\n      pop\n        /* \"contracts/ERC721/ERC721.sol\":3961:3968  spender */\n      dup3\n        /* \"contracts/ERC721/ERC721.sol\":3933:3968  _tokenApprovals[tokenId] == spender */\n      0xffffffffffffffffffffffffffffffffffffffff\n      and\n        /* \"contracts/ERC721/ERC721.sol\":3933:3948  _tokenApprovals */\n      0x04\n        /* \"contracts/ERC721/ERC721.sol\":3933:3957  _tokenApprovals[tokenId] */\n      0x00\n        /* \"contracts/ERC721/ERC721.sol\":3949:3956  tokenId */\n      dup5\n        /* \"contracts/ERC721/ERC721.sol\":3933:3957  _tokenApprovals[tokenId] */\n      dup2\n      mstore\n      0x20\n      add\n      swap1\n      dup2\n      mstore\n      0x20\n      add\n      0x00\n      keccak256\n      0x00\n      swap1\n      sload\n      swap1\n      0x0100\n      exp\n      swap1\n      div\n      0xffffffffffffffffffffffffffffffffffffffff\n      and\n        /* \"contracts/ERC721/ERC721.sol\":3933:3968  _tokenApprovals[tokenId] == spender */\n      0xffffffffffffffffffffffffffffffffffffffff\n      and\n      eq\n        /* \"contracts/ERC721/ERC721.sol\":3900:3968  spender == owner ||... */\n    tag_161:\n        /* \"contracts/ERC721/ERC721.sol\":3900:4019  spender == owner ||... */\n      dup1\n      tag_162\n      jumpi\n      pop\n        /* \"contracts/ERC721/ERC721.sol\":3985:4003  _operatorApprovals */\n      0x05\n        /* \"contracts/ERC721/ERC721.sol\":3985:4010  _operatorApprovals[owner] */\n      0x00\n        /* \"contracts/ERC721/ERC721.sol\":4004:4009  owner */\n      dup6\n        /* \"contracts/ERC721/ERC721.sol\":3985:4010  _operatorApprovals[owner] */\n      0xffffffffffffffffffffffffffffffffffffffff\n      and\n      0xffffffffffffffffffffffffffffffffffffffff\n      and\n      dup2\n      mstore\n      0x20\n      add\n      swap1\n      dup2\n      mstore\n      0x20\n      add\n      0x00\n      keccak256\n        /* \"contracts/ERC721/ERC721.sol\":3985:4019  _operatorApprovals[owner][spender] */\n      0x00\n        /* \"contracts/ERC721/ERC721.sol\":4011:4018  spender */\n      dup5\n        /* \"contracts/ERC721/ERC721.sol\":3985:4019  _operatorApprovals[owner][spender] */\n      0xffffffffffffffffffffffffffffffffffffffff\n      and\n      0xffffffffffffffffffffffffffffffffffffffff\n      and\n      dup2\n      mstore\n      0x20\n      add\n      swap1\n      dup2\n      mstore\n      0x20\n      add\n      0x00\n      keccak256\n      0x00\n      swap1\n      sload\n      swap1\n      0x0100\n      exp\n      swap1\n      div\n      0xff\n      and\n        /* \"contracts/ERC721/ERC721.sol\":3900:4019  spender == owner ||... */\n    tag_162:\n        /* \"contracts/ERC721/ERC721.sol\":3892:4020  return (spender == owner ||... */\n      swap1\n      pop\n        /* \"contracts/ERC721/ERC721.sol\":3779:4028  function _isApprovedOrOwner(address owner, address spender, uint tokenId) private view returns (bool) {... */\n      swap4\n      swap3\n      pop\n      pop\n      pop\n      jump\t// out\n        /* \"contracts/ERC721/ERC721.sol\":4234:4626  function _transfer(address owner, address from, address to, uint tokenId) private {... */\n    tag_112:\n        /* \"contracts/ERC721/ERC721.sol\":4343:4348  owner */\n      dup4\n        /* \"contracts/ERC721/ERC721.sol\":4335:4348  from == owner */\n      0xffffffffffffffffffffffffffffffffffffffff\n      and\n        /* \"contracts/ERC721/ERC721.sol\":4335:4339  from */\n      dup4\n        /* \"contracts/ERC721/ERC721.sol\":4335:4348  from == owner */\n      0xffffffffffffffffffffffffffffffffffffffff\n      and\n      eq\n        /* \"contracts/ERC721/ERC721.sol\":4327:4362  require(from == owner, \"not owner\") */\n      tag_164\n      jumpi\n      mload(0x40)\n      0x08c379a000000000000000000000000000000000000000000000000000000000\n      dup2\n      mstore\n      0x04\n      add\n      tag_165\n      swap1\n      tag_166\n      jump\t// in\n    tag_165:\n      mload(0x40)\n      dup1\n      swap2\n      sub\n      swap1\n      revert\n    tag_164:\n        /* \"contracts/ERC721/ERC721.sol\":4395:4396  0 */\n      0x00\n        /* \"contracts/ERC721/ERC721.sol\":4381:4397  to != address(0) */\n      0xffffffffffffffffffffffffffffffffffffffff\n      and\n        /* \"contracts/ERC721/ERC721.sol\":4381:4383  to */\n      dup3\n        /* \"contracts/ERC721/ERC721.sol\":4381:4397  to != address(0) */\n      0xffffffffffffffffffffffffffffffffffffffff\n      and\n      sub\n        /* \"contracts/ERC721/ERC721.sol\":4373:4430  require(to != address(0), \"transfer to the zero address\") */\n      tag_167\n      jumpi\n      mload(0x40)\n      0x08c379a000000000000000000000000000000000000000000000000000000000\n      dup2\n      mstore\n      0x04\n      add\n      tag_168\n      swap1\n      tag_169\n      jump\t// in\n    tag_168:\n      mload(0x40)\n      dup1\n      swap2\n      sub\n      swap1\n      revert\n    tag_167:\n        /* \"contracts/ERC721/ERC721.sol\":4443:4479  _approve(owner, address(0), tokenId) */\n      tag_170\n        /* \"contracts/ERC721/ERC721.sol\":4452:4457  owner */\n      dup5\n        /* \"contracts/ERC721/ERC721.sol\":4467:4468  0 */\n      0x00\n        /* \"contracts/ERC721/ERC721.sol\":4471:4478  tokenId */\n      dup4\n        /* \"contracts/ERC721/ERC721.sol\":4443:4451  _approve */\n      tag_103\n        /* \"contracts/ERC721/ERC721.sol\":4443:4479  _approve(owner, address(0), tokenId) */\n      jump\t// in\n    tag_170:\n        /* \"contracts/ERC721/ERC721.sol\":4511:4512  1 */\n      0x01\n        /* \"contracts/ERC721/ERC721.sol\":4492:4501  _balances */\n      0x03\n        /* \"contracts/ERC721/ERC721.sol\":4492:4507  _balances[from] */\n      0x00\n        /* \"contracts/ERC721/ERC721.sol\":4502:4506  from */\n      dup6\n        /* \"contracts/ERC721/ERC721.sol\":4492:4507  _balances[from] */\n      0xffffffffffffffffffffffffffffffffffffffff\n      and\n      0xffffffffffffffffffffffffffffffffffffffff\n      and\n      dup2\n      mstore\n      0x20\n      add\n      swap1\n      dup2\n      mstore\n      0x20\n      add\n      0x00\n      keccak256\n      0x00\n        /* \"contracts/ERC721/ERC721.sol\":4492:4512  _balances[from] -= 1 */\n      dup3\n      dup3\n      sload\n      tag_171\n      swap2\n      swap1\n      tag_172\n      jump\t// in\n    tag_171:\n      swap3\n      pop\n      pop\n      dup2\n      swap1\n      sstore\n      pop\n        /* \"contracts/ERC721/ERC721.sol\":4540:4541  1 */\n      0x01\n        /* \"contracts/ERC721/ERC721.sol\":4523:4532  _balances */\n      0x03\n        /* \"contracts/ERC721/ERC721.sol\":4523:4536  _balances[to] */\n      0x00\n        /* \"contracts/ERC721/ERC721.sol\":4533:4535  to */\n      dup5\n        /* \"contracts/ERC721/ERC721.sol\":4523:4536  _balances[to] */\n      0xffffffffffffffffffffffffffffffffffffffff\n      and\n      0xffffffffffffffffffffffffffffffffffffffff\n      and\n      dup2\n      mstore\n      0x20\n      add\n      swap1\n      dup2\n      mstore\n      0x20\n      add\n      0x00\n      keccak256\n      0x00\n        /* \"contracts/ERC721/ERC721.sol\":4523:4541  _balances[to] += 1 */\n      dup3\n      dup3\n      sload\n      tag_173\n      swap2\n      swap1\n      tag_174\n      jump\t// in\n    tag_173:\n      swap3\n      pop\n      pop\n      dup2\n      swap1\n      sstore\n      pop\n        /* \"contracts/ERC721/ERC721.sol\":4571:4573  to */\n      dup2\n        /* \"contracts/ERC721/ERC721.sol\":4552:4559  _owners */\n      0x02\n        /* \"contracts/ERC721/ERC721.sol\":4552:4568  _owners[tokenId] */\n      0x00\n        /* \"contracts/ERC721/ERC721.sol\":4560:4567  tokenId */\n      dup4\n        /* \"contracts/ERC721/ERC721.sol\":4552:4568  _owners[tokenId] */\n      dup2\n      mstore\n      0x20\n      add\n      swap1\n      dup2\n      mstore\n      0x20\n      add\n      0x00\n      keccak256\n      0x00\n        /* \"contracts/ERC721/ERC721.sol\":4552:4573  _owners[tokenId] = to */\n      0x0100\n      exp\n      dup2\n      sload\n      dup2\n      0xffffffffffffffffffffffffffffffffffffffff\n      mul\n      not\n      and\n      swap1\n      dup4\n      0xffffffffffffffffffffffffffffffffffffffff\n      and\n      mul\n      or\n      swap1\n      sstore\n      pop\n        /* \"contracts/ERC721/ERC721.sol\":4610:4617  tokenId */\n      dup1\n        /* \"contracts/ERC721/ERC721.sol\":4606:4608  to */\n      dup3\n        /* \"contracts/ERC721/ERC721.sol\":4591:4618  Transfer(from, to, tokenId) */\n      0xffffffffffffffffffffffffffffffffffffffff\n      and\n        /* \"contracts/ERC721/ERC721.sol\":4600:4604  from */\n      dup5\n        /* \"contracts/ERC721/ERC721.sol\":4591:4618  Transfer(from, to, tokenId) */\n      0xffffffffffffffffffffffffffffffffffffffff\n      and\n      0xddf252ad1be2c89b69c2b068fc378daa952ba7f163c4a11628f55a4df523b3ef\n      mload(0x40)\n      mload(0x40)\n      dup1\n      swap2\n      sub\n      swap1\n      log4\n        /* \"contracts/ERC721/ERC721.sol\":4234:4626  function _transfer(address owner, address from, address to, uint tokenId) private {... */\n      pop\n      pop\n      pop\n      pop\n      jump\t// out\n        /* \"contracts/ERC721/ERC721.sol\":6104:6418  function _mint(address to, uint tokenId) internal virtual {... */\n    tag_119:\n        /* \"contracts/ERC721/ERC721.sol\":6195:6196  0 */\n      0x00\n        /* \"contracts/ERC721/ERC721.sol\":6181:6197  to != address(0) */\n      0xffffffffffffffffffffffffffffffffffffffff\n      and\n        /* \"contracts/ERC721/ERC721.sol\":6181:6183  to */\n      dup3\n        /* \"contracts/ERC721/ERC721.sol\":6181:6197  to != address(0) */\n      0xffffffffffffffffffffffffffffffffffffffff\n      and\n      sub\n        /* \"contracts/ERC721/ERC721.sol\":6173:6222  require(to != address(0), \"mint to zero address\") */\n      tag_176\n      jumpi\n      mload(0x40)\n      0x08c379a000000000000000000000000000000000000000000000000000000000\n      dup2\n      mstore\n      0x04\n      add\n      tag_177\n      swap1\n      tag_178\n      jump\t// in\n    tag_177:\n      mload(0x40)\n      dup1\n      swap2\n      sub\n      swap1\n      revert\n    tag_176:\n        /* \"contracts/ERC721/ERC721.sol\":6269:6270  0 */\n      0x00\n        /* \"contracts/ERC721/ERC721.sol\":6241:6271  _owners[tokenId] == address(0) */\n      0xffffffffffffffffffffffffffffffffffffffff\n      and\n        /* \"contracts/ERC721/ERC721.sol\":6241:6248  _owners */\n      0x02\n        /* \"contracts/ERC721/ERC721.sol\":6241:6257  _owners[tokenId] */\n      0x00\n        /* \"contracts/ERC721/ERC721.sol\":6249:6256  tokenId */\n      dup4\n        /* \"contracts/ERC721/ERC721.sol\":6241:6257  _owners[tokenId] */\n      dup2\n      mstore\n      0x20\n      add\n      swap1\n      dup2\n      mstore\n      0x20\n      add\n      0x00\n      keccak256\n      0x00\n      swap1\n      sload\n      swap1\n      0x0100\n      exp\n      swap1\n      div\n      0xffffffffffffffffffffffffffffffffffffffff\n      and\n        /* \"contracts/ERC721/ERC721.sol\":6241:6271  _owners[tokenId] == address(0) */\n      0xffffffffffffffffffffffffffffffffffffffff\n      and\n      eq\n        /* \"contracts/ERC721/ERC721.sol\":6233:6296  require(_owners[tokenId] == address(0), \"token already minted\") */\n      tag_179\n      jumpi\n      mload(0x40)\n      0x08c379a000000000000000000000000000000000000000000000000000000000\n      dup2\n      mstore\n      0x04\n      add\n      tag_180\n      swap1\n      tag_181\n      jump\t// in\n    tag_180:\n      mload(0x40)\n      dup1\n      swap2\n      sub\n      swap1\n      revert\n    tag_179:\n        /* \"contracts/ERC721/ERC721.sol\":6326:6327  1 */\n      0x01\n        /* \"contracts/ERC721/ERC721.sol\":6309:6318  _balances */\n      0x03\n        /* \"contracts/ERC721/ERC721.sol\":6309:6322  _balances[to] */\n      0x00\n        /* \"contracts/ERC721/ERC721.sol\":6319:6321  to */\n      dup5\n        /* \"contracts/ERC721/ERC721.sol\":6309:6322  _balances[to] */\n      0xffffffffffffffffffffffffffffffffffffffff\n      and\n      0xffffffffffffffffffffffffffffffffffffffff\n      and\n      dup2\n      mstore\n      0x20\n      add\n      swap1\n      dup2\n      mstore\n      0x20\n      add\n      0x00\n      keccak256\n      0x00\n        /* \"contracts/ERC721/ERC721.sol\":6309:6327  _balances[to] += 1 */\n      dup3\n      dup3\n      sload\n      tag_182\n      swap2\n      swap1\n      tag_174\n      jump\t// in\n    tag_182:\n      swap3\n      pop\n      pop\n      dup2\n      swap1\n      sstore\n      pop\n        /* \"contracts/ERC721/ERC721.sol\":6357:6359  to */\n      dup2\n        /* \"contracts/ERC721/ERC721.sol\":6338:6345  _owners */\n      0x02\n        /* \"contracts/ERC721/ERC721.sol\":6338:6354  _owners[tokenId] */\n      0x00\n        /* \"contracts/ERC721/ERC721.sol\":6346:6353  tokenId */\n      dup4\n        /* \"contracts/ERC721/ERC721.sol\":6338:6354  _owners[tokenId] */\n      dup2\n      mstore\n      0x20\n      add\n      swap1\n      dup2\n      mstore\n      0x20\n      add\n      0x00\n      keccak256\n      0x00\n        /* \"contracts/ERC721/ERC721.sol\":6338:6359  _owners[tokenId] = to */\n      0x0100\n      exp\n      dup2\n      sload\n      dup2\n      0xffffffffffffffffffffffffffffffffffffffff\n      mul\n      not\n      and\n      swap1\n      dup4\n      0xffffffffffffffffffffffffffffffffffffffff\n      and\n      mul\n      or\n      swap1\n      sstore\n      pop\n        /* \"contracts/ERC721/ERC721.sol\":6402:6409  tokenId */\n      dup1\n        /* \"contracts/ERC721/ERC721.sol\":6398:6400  to */\n      dup3\n        /* \"contracts/ERC721/ERC721.sol\":6377:6410  Transfer(address(0), to, tokenId) */\n      0xffffffffffffffffffffffffffffffffffffffff\n      and\n        /* \"contracts/ERC721/ERC721.sol\":6394:6395  0 */\n      0x00\n        /* \"contracts/ERC721/ERC721.sol\":6377:6410  Transfer(address(0), to, tokenId) */\n      0xffffffffffffffffffffffffffffffffffffffff\n      and\n      0xddf252ad1be2c89b69c2b068fc378daa952ba7f163c4a11628f55a4df523b3ef\n      mload(0x40)\n      mload(0x40)\n      dup1\n      swap2\n      sub\n      swap1\n      log4\n        /* \"contracts/ERC721/ERC721.sol\":6104:6418  function _mint(address to, uint tokenId) internal virtual {... */\n      pop\n      pop\n      jump\t// out\n        /* \"contracts/ERC721/ERC721.sol\":5101:5320  function _safeTransfer(address owner, address from, address to, uint tokenId, bytes memory _data) private {... */\n    tag_145:\n        /* \"contracts/ERC721/ERC721.sol\":5218:5253  _transfer(owner, from, to, tokenId) */\n      tag_184\n        /* \"contracts/ERC721/ERC721.sol\":5228:5233  owner */\n      dup6\n        /* \"contracts/ERC721/ERC721.sol\":5235:5239  from */\n      dup6\n        /* \"contracts/ERC721/ERC721.sol\":5241:5243  to */\n      dup6\n        /* \"contracts/ERC721/ERC721.sol\":5245:5252  tokenId */\n      dup6\n        /* \"contracts/ERC721/ERC721.sol\":5218:5227  _transfer */\n      tag_112\n        /* \"contracts/ERC721/ERC721.sol\":5218:5253  _transfer(owner, from, to, tokenId) */\n      jump\t// in\n    tag_184:\n        /* \"contracts/ERC721/ERC721.sol\":5264:5312  _checkOnERC721Received(from, to, tokenId, _data) */\n      tag_185\n        /* \"contracts/ERC721/ERC721.sol\":5287:5291  from */\n      dup5\n        /* \"contracts/ERC721/ERC721.sol\":5293:5295  to */\n      dup5\n        /* \"contracts/ERC721/ERC721.sol\":5297:5304  tokenId */\n      dup5\n        /* \"contracts/ERC721/ERC721.sol\":5306:5311  _data */\n      dup5\n        /* \"contracts/ERC721/ERC721.sol\":5264:5286  _checkOnERC721Received */\n      tag_186\n        /* \"contracts/ERC721/ERC721.sol\":5264:5312  _checkOnERC721Received(from, to, tokenId, _data) */\n      jump\t// in\n    tag_185:\n        /* \"contracts/ERC721/ERC721.sol\":5101:5320  function _safeTransfer(address owner, address from, address to, uint tokenId, bytes memory _data) private {... */\n      pop\n      pop\n      pop\n      pop\n      pop\n      jump\t// out\n        /* \"contracts/ERC721/APE.sol\":352:501  function _baseURI() internal pure override returns (string memory) {... */\n    tag_151:\n        /* \"contracts/ERC721/APE.sol\":404:417  string memory */\n      0x60\n        /* \"contracts/ERC721/APE.sol\":430:493  return \"ipfs://QmeSjSinHpPnmXmspMjwiXyN6zS4E9zccariGR3jxcaWtq/\" */\n      mload(0x40)\n      dup1\n      0x60\n      add\n      0x40\n      mstore\n      dup1\n      0x36\n      dup2\n      mstore\n      0x20\n      add\n      data_8382b382247cd07401a2ef2f394137c3f3b0972798bae0a9c78b0c261acbb56b\n      0x36\n      swap2\n      codecopy\n      swap1\n      pop\n        /* \"contracts/ERC721/APE.sol\":352:501  function _baseURI() internal pure override returns (string memory) {... */\n      swap1\n      jump\t// out\n        /* \"contracts/ERC721/Strings.sol\":407:1130  function toString(uint256 value) internal pure returns (string memory) {... */\n    tag_155:\n        /* \"contracts/ERC721/Strings.sol\":463:476  string memory */\n      0x60\n        /* \"contracts/ERC721/Strings.sol\":693:694  0 */\n      0x00\n        /* \"contracts/ERC721/Strings.sol\":684:689  value */\n      dup3\n        /* \"contracts/ERC721/Strings.sol\":684:694  value == 0 */\n      sub\n        /* \"contracts/ERC721/Strings.sol\":680:733  if (value == 0) {... */\n      tag_189\n      jumpi\n        /* \"contracts/ERC721/Strings.sol\":711:721  return \"0\" */\n      mload(0x40)\n      dup1\n      0x40\n      add\n      0x40\n      mstore\n      dup1\n      0x01\n      dup2\n      mstore\n      0x20\n      add\n      0x3000000000000000000000000000000000000000000000000000000000000000\n      dup2\n      mstore\n      pop\n      swap1\n      pop\n      jump(tag_188)\n        /* \"contracts/ERC721/Strings.sol\":680:733  if (value == 0) {... */\n    tag_189:\n        /* \"contracts/ERC721/Strings.sol\":743:755  uint256 temp */\n      0x00\n        /* \"contracts/ERC721/Strings.sol\":758:763  value */\n      dup3\n        /* \"contracts/ERC721/Strings.sol\":743:763  uint256 temp = value */\n      swap1\n      pop\n        /* \"contracts/ERC721/Strings.sol\":774:788  uint256 digits */\n      0x00\n        /* \"contracts/ERC721/Strings.sol\":799:877  while (temp != 0) {... */\n    tag_190:\n        /* \"contracts/ERC721/Strings.sol\":814:815  0 */\n      0x00\n        /* \"contracts/ERC721/Strings.sol\":806:810  temp */\n      dup3\n        /* \"contracts/ERC721/Strings.sol\":806:815  temp != 0 */\n      eq\n        /* \"contracts/ERC721/Strings.sol\":799:877  while (temp != 0) {... */\n      tag_191\n      jumpi\n        /* \"contracts/ERC721/Strings.sol\":832:840  digits++ */\n      dup1\n      dup1\n      tag_192\n      swap1\n      tag_193\n      jump\t// in\n    tag_192:\n      swap2\n      pop\n      pop\n        /* \"contracts/ERC721/Strings.sol\":863:865  10 */\n      0x0a\n        /* \"contracts/ERC721/Strings.sol\":855:865  temp /= 10 */\n      dup3\n      tag_194\n      swap2\n      swap1\n      tag_195\n      jump\t// in\n    tag_194:\n      swap2\n      pop\n        /* \"contracts/ERC721/Strings.sol\":799:877  while (temp != 0) {... */\n      jump(tag_190)\n    tag_191:\n        /* \"contracts/ERC721/Strings.sol\":887:906  bytes memory buffer */\n      0x00\n        /* \"contracts/ERC721/Strings.sol\":919:925  digits */\n      dup2\n        /* \"contracts/ERC721/Strings.sol\":909:926  new bytes(digits) */\n      0xffffffffffffffff\n      dup2\n      gt\n      iszero\n      tag_196\n      jumpi\n      tag_197\n      tag_198\n      jump\t// in\n    tag_197:\n    tag_196:\n      mload(0x40)\n      swap1\n      dup1\n      dup3\n      mstore\n      dup1\n      0x1f\n      add\n      not(0x1f)\n      and\n      0x20\n      add\n      dup3\n      add\n      0x40\n      mstore\n      dup1\n      iszero\n      tag_199\n      jumpi\n      dup2\n      0x20\n      add\n      0x01\n      dup3\n      mul\n      dup1\n      calldatasize\n      dup4\n      calldatacopy\n      dup1\n      dup3\n      add\n      swap2\n      pop\n      pop\n      swap1\n      pop\n    tag_199:\n      pop\n        /* \"contracts/ERC721/Strings.sol\":887:926  bytes memory buffer = new bytes(digits) */\n      swap1\n      pop\n        /* \"contracts/ERC721/Strings.sol\":937:1091  while (value != 0) {... */\n    tag_200:\n        /* \"contracts/ERC721/Strings.sol\":953:954  0 */\n      0x00\n        /* \"contracts/ERC721/Strings.sol\":944:949  value */\n      dup6\n        /* \"contracts/ERC721/Strings.sol\":944:954  value != 0 */\n      eq\n        /* \"contracts/ERC721/Strings.sol\":937:1091  while (value != 0) {... */\n      tag_201\n      jumpi\n        /* \"contracts/ERC721/Strings.sol\":981:982  1 */\n      0x01\n        /* \"contracts/ERC721/Strings.sol\":971:982  digits -= 1 */\n      dup3\n      tag_202\n      swap2\n      swap1\n      tag_172\n      jump\t// in\n    tag_202:\n      swap2\n      pop\n        /* \"contracts/ERC721/Strings.sol\":1048:1050  10 */\n      0x0a\n        /* \"contracts/ERC721/Strings.sol\":1040:1045  value */\n      dup6\n        /* \"contracts/ERC721/Strings.sol\":1040:1050  value % 10 */\n      tag_203\n      swap2\n      swap1\n      tag_204\n      jump\t// in\n    tag_203:\n        /* \"contracts/ERC721/Strings.sol\":1027:1029  48 */\n      0x30\n        /* \"contracts/ERC721/Strings.sol\":1027:1051  48 + uint256(value % 10) */\n      tag_205\n      swap2\n      swap1\n      tag_174\n      jump\t// in\n    tag_205:\n        /* \"contracts/ERC721/Strings.sol\":1014:1053  bytes1(uint8(48 + uint256(value % 10))) */\n      0xf8\n      shl\n        /* \"contracts/ERC721/Strings.sol\":997:1003  buffer */\n      dup2\n        /* \"contracts/ERC721/Strings.sol\":1004:1010  digits */\n      dup4\n        /* \"contracts/ERC721/Strings.sol\":997:1011  buffer[digits] */\n      dup2\n      mload\n      dup2\n      lt\n      tag_206\n      jumpi\n      tag_207\n      tag_208\n      jump\t// in\n    tag_207:\n    tag_206:\n      0x20\n      add\n      add\n        /* \"contracts/ERC721/Strings.sol\":997:1053  buffer[digits] = bytes1(uint8(48 + uint256(value % 10))) */\n      swap1\n      not(0xffffffffffffffffffffffffffffffffffffffffffffffffffffffffffffff)\n      and\n      swap1\n      dup2\n      0x00\n      byte\n      swap1\n      mstore8\n      pop\n        /* \"contracts/ERC721/Strings.sol\":1077:1079  10 */\n      0x0a\n        /* \"contracts/ERC721/Strings.sol\":1068:1079  value /= 10 */\n      dup6\n      tag_209\n      swap2\n      swap1\n      tag_195\n      jump\t// in\n    tag_209:\n      swap5\n      pop\n        /* \"contracts/ERC721/Strings.sol\":937:1091  while (value != 0) {... */\n      jump(tag_200)\n    tag_201:\n        /* \"contracts/ERC721/Strings.sol\":1115:1121  buffer */\n      dup1\n        /* \"contracts/ERC721/Strings.sol\":1101:1122  return string(buffer) */\n      swap4\n      pop\n      pop\n      pop\n      pop\n        /* \"contracts/ERC721/Strings.sol\":407:1130  function toString(uint256 value) internal pure returns (string memory) {... */\n    tag_188:\n      swap2\n      swap1\n      pop\n      jump\t// out\n        /* \"contracts/ERC721/ERC721.sol\":6922:7719  function _checkOnERC721Received(address from, address to, uint256 tokenId, bytes memory data) private {... */\n    tag_186:\n        /* \"contracts/ERC721/ERC721.sol\":7056:7057  0 */\n      0x00\n        /* \"contracts/ERC721/ERC721.sol\":7039:7041  to */\n      dup4\n        /* \"contracts/ERC721/ERC721.sol\":7039:7053  to.code.length */\n      0xffffffffffffffffffffffffffffffffffffffff\n      and\n      extcodesize\n        /* \"contracts/ERC721/ERC721.sol\":7039:7057  to.code.length > 0 */\n      gt\n        /* \"contracts/ERC721/ERC721.sol\":7035:7712  if (to.code.length > 0) {... */\n      iszero\n      tag_211\n      jumpi\n        /* \"contracts/ERC721/ERC721.sol\":7094:7096  to */\n      dup3\n        /* \"contracts/ERC721/ERC721.sol\":7078:7114  IERC721Receiver(to).onERC721Received */\n      0xffffffffffffffffffffffffffffffffffffffff\n      and\n      0x150b7a02\n        /* \"contracts/ERC721/ERC721.sol\":7115:7125  msg.sender */\n      caller\n        /* \"contracts/ERC721/ERC721.sol\":7127:7131  from */\n      dup7\n        /* \"contracts/ERC721/ERC721.sol\":7133:7140  tokenId */\n      dup6\n        /* \"contracts/ERC721/ERC721.sol\":7142:7146  data */\n      dup6\n        /* \"contracts/ERC721/ERC721.sol\":7078:7147  IERC721Receiver(to).onERC721Received(msg.sender, from, tokenId, data) */\n      mload(0x40)\n      dup6\n      0xffffffff\n      and\n      0xe0\n      shl\n      dup2\n      mstore\n      0x04\n      add\n      tag_212\n      swap5\n      swap4\n      swap3\n      swap2\n      swap1\n      tag_213\n      jump\t// in\n    tag_212:\n      0x20\n      mload(0x40)\n      dup1\n      dup4\n      sub\n      dup2\n      0x00\n      dup8\n      gas\n      call\n      swap3\n      pop\n      pop\n      pop\n      dup1\n      iszero\n      tag_214\n      jumpi\n      pop\n      mload(0x40)\n      returndatasize\n      not(0x1f)\n      0x1f\n      dup3\n      add\n      and\n      dup3\n      add\n      dup1\n      0x40\n      mstore\n      pop\n      dup2\n      add\n      swap1\n      tag_215\n      swap2\n      swap1\n      tag_216\n      jump\t// in\n    tag_215:\n      0x01\n    tag_214:\n        /* \"contracts/ERC721/ERC721.sol\":7074:7701  try IERC721Receiver(to).onERC721Received(msg.sender, from, tokenId, data) returns (bytes4 retval) {... */\n      tag_217\n      jumpi\n      returndatasize\n      dup1\n      0x00\n      dup2\n      eq\n      tag_222\n      jumpi\n      mload(0x40)\n      swap2\n      pop\n      and(add(returndatasize, 0x3f), not(0x1f))\n      dup3\n      add\n      0x40\n      mstore\n      returndatasize\n      dup3\n      mstore\n      returndatasize\n      0x00\n      0x20\n      dup5\n      add\n      returndatacopy\n      jump(tag_221)\n    tag_222:\n      0x60\n      swap2\n      pop\n    tag_221:\n      pop\n        /* \"contracts/ERC721/ERC721.sol\":7407:7408  0 */\n      0x00\n        /* \"contracts/ERC721/ERC721.sol\":7390:7396  reason */\n      dup2\n        /* \"contracts/ERC721/ERC721.sol\":7390:7403  reason.length */\n      mload\n        /* \"contracts/ERC721/ERC721.sol\":7390:7408  reason.length == 0 */\n      sub\n        /* \"contracts/ERC721/ERC721.sol\":7386:7686  if (reason.length == 0) {... */\n      tag_223\n      jumpi\n        /* \"contracts/ERC721/ERC721.sol\":7462:7464  to */\n      dup4\n        /* \"contracts/ERC721/ERC721.sol\":7440:7465  ERC721InvalidReceiver(to) */\n      mload(0x40)\n      0x64a0ae9200000000000000000000000000000000000000000000000000000000\n      dup2\n      mstore\n      0x04\n      add\n      tag_224\n      swap2\n      swap1\n      tag_36\n      jump\t// in\n    tag_224:\n      mload(0x40)\n      dup1\n      swap2\n      sub\n      swap1\n      revert\n        /* \"contracts/ERC721/ERC721.sol\":7386:7686  if (reason.length == 0) {... */\n    tag_223:\n        /* \"contracts/ERC721/ERC721.sol\":7636:7642  reason */\n      dup1\n        /* \"contracts/ERC721/ERC721.sol\":7630:7643  mload(reason) */\n      mload\n        /* \"contracts/ERC721/ERC721.sol\":7621:7627  reason */\n      dup2\n        /* \"contracts/ERC721/ERC721.sol\":7617:7619  32 */\n      0x20\n        /* \"contracts/ERC721/ERC721.sol\":7613:7628  add(32, reason) */\n      add\n        /* \"contracts/ERC721/ERC721.sol\":7606:7644  revert(add(32, reason), mload(reason)) */\n      revert\n        /* \"contracts/ERC721/ERC721.sol\":7074:7701  try IERC721Receiver(to).onERC721Received(msg.sender, from, tokenId, data) returns (bytes4 retval) {... */\n    tag_217:\n        /* \"contracts/ERC721/ERC721.sol\":7205:7246  IERC721Receiver.onERC721Received.selector */\n      shl(0xe0, 0x150b7a02)\n        /* \"contracts/ERC721/ERC721.sol\":7195:7246  retval != IERC721Receiver.onERC721Received.selector */\n      not(0xffffffffffffffffffffffffffffffffffffffffffffffffffffffff)\n      and\n        /* \"contracts/ERC721/ERC721.sol\":7195:7201  retval */\n      dup2\n        /* \"contracts/ERC721/ERC721.sol\":7195:7246  retval != IERC721Receiver.onERC721Received.selector */\n      not(0xffffffffffffffffffffffffffffffffffffffffffffffffffffffff)\n      and\n      eq\n        /* \"contracts/ERC721/ERC721.sol\":7191:7323  if (retval != IERC721Receiver.onERC721Received.selector) {... */\n      tag_227\n      jumpi\n        /* \"contracts/ERC721/ERC721.sol\":7300:7302  to */\n      dup4\n        /* \"contracts/ERC721/ERC721.sol\":7278:7303  ERC721InvalidReceiver(to) */\n      mload(0x40)\n      0x64a0ae9200000000000000000000000000000000000000000000000000000000\n      dup2\n      mstore\n      0x04\n      add\n      tag_228\n      swap2\n      swap1\n      tag_36\n      jump\t// in\n    tag_228:\n      mload(0x40)\n      dup1\n      swap2\n      sub\n      swap1\n      revert\n        /* \"contracts/ERC721/ERC721.sol\":7191:7323  if (retval != IERC721Receiver.onERC721Received.selector) {... */\n    tag_227:\n        /* \"contracts/ERC721/ERC721.sol\":7148:7338  returns (bytes4 retval) {... */\n      pop\n        /* \"contracts/ERC721/ERC721.sol\":7035:7712  if (to.code.length > 0) {... */\n    tag_211:\n        /* \"contracts/ERC721/ERC721.sol\":6922:7719  function _checkOnERC721Received(address from, address to, uint256 tokenId, bytes memory data) private {... */\n      pop\n      pop\n      pop\n      pop\n      jump\t// out\n        /* \"#utility.yul\":7:82   */\n    tag_229:\n        /* \"#utility.yul\":40:46   */\n      0x00\n        /* \"#utility.yul\":73:75   */\n      0x40\n        /* \"#utility.yul\":67:76   */\n      mload\n        /* \"#utility.yul\":57:76   */\n      swap1\n      pop\n        /* \"#utility.yul\":7:82   */\n      swap1\n      jump\t// out\n        /* \"#utility.yul\":88:205   */\n    tag_230:\n        /* \"#utility.yul\":197:198   */\n      0x00\n        /* \"#utility.yul\":194:195   */\n      dup1\n        /* \"#utility.yul\":187:199   */\n      revert\n        /* \"#utility.yul\":211:328   */\n    tag_231:\n        /* \"#utility.yul\":320:321   */\n      0x00\n        /* \"#utility.yul\":317:318   */\n      dup1\n        /* \"#utility.yul\":310:322   */\n      revert\n        /* \"#utility.yul\":334:483   */\n    tag_232:\n        /* \"#utility.yul\":370:377   */\n      0x00\n        /* \"#utility.yul\":410:476   */\n      0xffffffff00000000000000000000000000000000000000000000000000000000\n        /* \"#utility.yul\":403:408   */\n      dup3\n        /* \"#utility.yul\":399:477   */\n      and\n        /* \"#utility.yul\":388:477   */\n      swap1\n      pop\n        /* \"#utility.yul\":334:483   */\n      swap2\n      swap1\n      pop\n      jump\t// out\n        /* \"#utility.yul\":489:609   */\n    tag_233:\n        /* \"#utility.yul\":561:584   */\n      tag_298\n        /* \"#utility.yul\":578:583   */\n      dup2\n        /* \"#utility.yul\":561:584   */\n      tag_232\n      jump\t// in\n    tag_298:\n        /* \"#utility.yul\":554:559   */\n      dup2\n        /* \"#utility.yul\":551:585   */\n      eq\n        /* \"#utility.yul\":541:603   */\n      tag_299\n      jumpi\n        /* \"#utility.yul\":599:600   */\n      0x00\n        /* \"#utility.yul\":596:597   */\n      dup1\n        /* \"#utility.yul\":589:601   */\n      revert\n        /* \"#utility.yul\":541:603   */\n    tag_299:\n        /* \"#utility.yul\":489:609   */\n      pop\n      jump\t// out\n        /* \"#utility.yul\":615:752   */\n    tag_234:\n        /* \"#utility.yul\":660:665   */\n      0x00\n        /* \"#utility.yul\":698:704   */\n      dup2\n        /* \"#utility.yul\":685:705   */\n      calldataload\n        /* \"#utility.yul\":676:705   */\n      swap1\n      pop\n        /* \"#utility.yul\":714:746   */\n      tag_301\n        /* \"#utility.yul\":740:745   */\n      dup2\n        /* \"#utility.yul\":714:746   */\n      tag_233\n      jump\t// in\n    tag_301:\n        /* \"#utility.yul\":615:752   */\n      swap3\n      swap2\n      pop\n      pop\n      jump\t// out\n        /* \"#utility.yul\":758:1085   */\n    tag_23:\n        /* \"#utility.yul\":816:822   */\n      0x00\n        /* \"#utility.yul\":865:867   */\n      0x20\n        /* \"#utility.yul\":853:862   */\n      dup3\n        /* \"#utility.yul\":844:851   */\n      dup5\n        /* \"#utility.yul\":840:863   */\n      sub\n        /* \"#utility.yul\":836:868   */\n      slt\n        /* \"#utility.yul\":833:952   */\n      iszero\n      tag_303\n      jumpi\n        /* \"#utility.yul\":871:950   */\n      tag_304\n      tag_230\n      jump\t// in\n    tag_304:\n        /* \"#utility.yul\":833:952   */\n    tag_303:\n        /* \"#utility.yul\":991:992   */\n      0x00\n        /* \"#utility.yul\":1016:1068   */\n      tag_305\n        /* \"#utility.yul\":1060:1067   */\n      dup5\n        /* \"#utility.yul\":1051:1057   */\n      dup3\n        /* \"#utility.yul\":1040:1049   */\n      dup6\n        /* \"#utility.yul\":1036:1058   */\n      add\n        /* \"#utility.yul\":1016:1068   */\n      tag_234\n      jump\t// in\n    tag_305:\n        /* \"#utility.yul\":1006:1068   */\n      swap2\n      pop\n        /* \"#utility.yul\":962:1078   */\n      pop\n        /* \"#utility.yul\":758:1085   */\n      swap3\n      swap2\n      pop\n      pop\n      jump\t// out\n        /* \"#utility.yul\":1091:1181   */\n    tag_235:\n        /* \"#utility.yul\":1125:1132   */\n      0x00\n        /* \"#utility.yul\":1168:1173   */\n      dup2\n        /* \"#utility.yul\":1161:1174   */\n      iszero\n        /* \"#utility.yul\":1154:1175   */\n      iszero\n        /* \"#utility.yul\":1143:1175   */\n      swap1\n      pop\n        /* \"#utility.yul\":1091:1181   */\n      swap2\n      swap1\n      pop\n      jump\t// out\n        /* \"#utility.yul\":1187:1296   */\n    tag_236:\n        /* \"#utility.yul\":1268:1289   */\n      tag_308\n        /* \"#utility.yul\":1283:1288   */\n      dup2\n        /* \"#utility.yul\":1268:1289   */\n      tag_235\n      jump\t// in\n    tag_308:\n        /* \"#utility.yul\":1263:1266   */\n      dup3\n        /* \"#utility.yul\":1256:1290   */\n      mstore\n        /* \"#utility.yul\":1187:1296   */\n      pop\n      pop\n      jump\t// out\n        /* \"#utility.yul\":1302:1512   */\n    tag_26:\n        /* \"#utility.yul\":1389:1393   */\n      0x00\n        /* \"#utility.yul\":1427:1429   */\n      0x20\n        /* \"#utility.yul\":1416:1425   */\n      dup3\n        /* \"#utility.yul\":1412:1430   */\n      add\n        /* \"#utility.yul\":1404:1430   */\n      swap1\n      pop\n        /* \"#utility.yul\":1440:1505   */\n      tag_310\n        /* \"#utility.yul\":1502:1503   */\n      0x00\n        /* \"#utility.yul\":1491:1500   */\n      dup4\n        /* \"#utility.yul\":1487:1504   */\n      add\n        /* \"#utility.yul\":1478:1484   */\n      dup5\n        /* \"#utility.yul\":1440:1505   */\n      tag_236\n      jump\t// in\n    tag_310:\n        /* \"#utility.yul\":1302:1512   */\n      swap3\n      swap2\n      pop\n      pop\n      jump\t// out\n        /* \"#utility.yul\":1518:1617   */\n    tag_237:\n        /* \"#utility.yul\":1570:1576   */\n      0x00\n        /* \"#utility.yul\":1604:1609   */\n      dup2\n        /* \"#utility.yul\":1598:1610   */\n      mload\n        /* \"#utility.yul\":1588:1610   */\n      swap1\n      pop\n        /* \"#utility.yul\":1518:1617   */\n      swap2\n      swap1\n      pop\n      jump\t// out\n        /* \"#utility.yul\":1623:1792   */\n    tag_238:\n        /* \"#utility.yul\":1707:1718   */\n      0x00\n        /* \"#utility.yul\":1741:1747   */\n      dup3\n        /* \"#utility.yul\":1736:1739   */\n      dup3\n        /* \"#utility.yul\":1729:1748   */\n      mstore\n        /* \"#utility.yul\":1781:1785   */\n      0x20\n        /* \"#utility.yul\":1776:1779   */\n      dup3\n        /* \"#utility.yul\":1772:1786   */\n      add\n        /* \"#utility.yul\":1757:1786   */\n      swap1\n      pop\n        /* \"#utility.yul\":1623:1792   */\n      swap3\n      swap2\n      pop\n      pop\n      jump\t// out\n        /* \"#utility.yul\":1798:1937   */\n    tag_239:\n        /* \"#utility.yul\":1887:1893   */\n      dup3\n        /* \"#utility.yul\":1882:1885   */\n      dup2\n        /* \"#utility.yul\":1877:1880   */\n      dup4\n        /* \"#utility.yul\":1871:1894   */\n      mcopy\n        /* \"#utility.yul\":1928:1929   */\n      0x00\n        /* \"#utility.yul\":1919:1925   */\n      dup4\n        /* \"#utility.yul\":1914:1917   */\n      dup4\n        /* \"#utility.yul\":1910:1926   */\n      add\n        /* \"#utility.yul\":1903:1930   */\n      mstore\n        /* \"#utility.yul\":1798:1937   */\n      pop\n      pop\n      pop\n      jump\t// out\n        /* \"#utility.yul\":1943:2045   */\n    tag_240:\n        /* \"#utility.yul\":1984:1990   */\n      0x00\n        /* \"#utility.yul\":2035:2037   */\n      0x1f\n        /* \"#utility.yul\":2031:2038   */\n      not\n        /* \"#utility.yul\":2026:2028   */\n      0x1f\n        /* \"#utility.yul\":2019:2024   */\n      dup4\n        /* \"#utility.yul\":2015:2029   */\n      add\n        /* \"#utility.yul\":2011:2039   */\n      and\n        /* \"#utility.yul\":2001:2039   */\n      swap1\n      pop\n        /* \"#utility.yul\":1943:2045   */\n      swap2\n      swap1\n      pop\n      jump\t// out\n        /* \"#utility.yul\":2051:2428   */\n    tag_241:\n        /* \"#utility.yul\":2139:2142   */\n      0x00\n        /* \"#utility.yul\":2167:2206   */\n      tag_316\n        /* \"#utility.yul\":2200:2205   */\n      dup3\n        /* \"#utility.yul\":2167:2206   */\n      tag_237\n      jump\t// in\n    tag_316:\n        /* \"#utility.yul\":2222:2293   */\n      tag_317\n        /* \"#utility.yul\":2286:2292   */\n      dup2\n        /* \"#utility.yul\":2281:2284   */\n      dup6\n        /* \"#utility.yul\":2222:2293   */\n      tag_238\n      jump\t// in\n    tag_317:\n        /* \"#utility.yul\":2215:2293   */\n      swap4\n      pop\n        /* \"#utility.yul\":2302:2367   */\n      tag_318\n        /* \"#utility.yul\":2360:2366   */\n      dup2\n        /* \"#utility.yul\":2355:2358   */\n      dup6\n        /* \"#utility.yul\":2348:2352   */\n      0x20\n        /* \"#utility.yul\":2341:2346   */\n      dup7\n        /* \"#utility.yul\":2337:2353   */\n      add\n        /* \"#utility.yul\":2302:2367   */\n      tag_239\n      jump\t// in\n    tag_318:\n        /* \"#utility.yul\":2392:2421   */\n      tag_319\n        /* \"#utility.yul\":2414:2420   */\n      dup2\n        /* \"#utility.yul\":2392:2421   */\n      tag_240\n      jump\t// in\n    tag_319:\n        /* \"#utility.yul\":2387:2390   */\n      dup5\n        /* \"#utility.yul\":2383:2422   */\n      add\n        /* \"#utility.yul\":2376:2422   */\n      swap2\n      pop\n        /* \"#utility.yul\":2143:2428   */\n      pop\n        /* \"#utility.yul\":2051:2428   */\n      swap3\n      swap2\n      pop\n      pop\n      jump\t// out\n        /* \"#utility.yul\":2434:2747   */\n    tag_30:\n        /* \"#utility.yul\":2547:2551   */\n      0x00\n        /* \"#utility.yul\":2585:2587   */\n      0x20\n        /* \"#utility.yul\":2574:2583   */\n      dup3\n        /* \"#utility.yul\":2570:2588   */\n      add\n        /* \"#utility.yul\":2562:2588   */\n      swap1\n      pop\n        /* \"#utility.yul\":2634:2643   */\n      dup2\n        /* \"#utility.yul\":2628:2632   */\n      dup2\n        /* \"#utility.yul\":2624:2644   */\n      sub\n        /* \"#utility.yul\":2620:2621   */\n      0x00\n        /* \"#utility.yul\":2609:2618   */\n      dup4\n        /* \"#utility.yul\":2605:2622   */\n      add\n        /* \"#utility.yul\":2598:2645   */\n      mstore\n        /* \"#utility.yul\":2662:2740   */\n      tag_321\n        /* \"#utility.yul\":2735:2739   */\n      dup2\n        /* \"#utility.yul\":2726:2732   */\n      dup5\n        /* \"#utility.yul\":2662:2740   */\n      tag_241\n      jump\t// in\n    tag_321:\n        /* \"#utility.yul\":2654:2740   */\n      swap1\n      pop\n        /* \"#utility.yul\":2434:2747   */\n      swap3\n      swap2\n      pop\n      pop\n      jump\t// out\n        /* \"#utility.yul\":2753:2830   */\n    tag_242:\n        /* \"#utility.yul\":2790:2797   */\n      0x00\n        /* \"#utility.yul\":2819:2824   */\n      dup2\n        /* \"#utility.yul\":2808:2824   */\n      swap1\n      pop\n        /* \"#utility.yul\":2753:2830   */\n      swap2\n      swap1\n      pop\n      jump\t// out\n        /* \"#utility.yul\":2836:2958   */\n    tag_243:\n        /* \"#utility.yul\":2909:2933   */\n      tag_324\n        /* \"#utility.yul\":2927:2932   */\n      dup2\n        /* \"#utility.yul\":2909:2933   */\n      tag_242\n      jump\t// in\n    tag_324:\n        /* \"#utility.yul\":2902:2907   */\n      dup2\n        /* \"#utility.yul\":2899:2934   */\n      eq\n        /* \"#utility.yul\":2889:2952   */\n      tag_325\n      jumpi\n        /* \"#utility.yul\":2948:2949   */\n      0x00\n        /* \"#utility.yul\":2945:2946   */\n      dup1\n        /* \"#utility.yul\":2938:2950   */\n      revert\n        /* \"#utility.yul\":2889:2952   */\n    tag_325:\n        /* \"#utility.yul\":2836:2958   */\n      pop\n      jump\t// out\n        /* \"#utility.yul\":2964:3103   */\n    tag_244:\n        /* \"#utility.yul\":3010:3015   */\n      0x00\n        /* \"#utility.yul\":3048:3054   */\n      dup2\n        /* \"#utility.yul\":3035:3055   */\n      calldataload\n        /* \"#utility.yul\":3026:3055   */\n      swap1\n      pop\n        /* \"#utility.yul\":3064:3097   */\n      tag_327\n        /* \"#utility.yul\":3091:3096   */\n      dup2\n        /* \"#utility.yul\":3064:3097   */\n      tag_243\n      jump\t// in\n    tag_327:\n        /* \"#utility.yul\":2964:3103   */\n      swap3\n      swap2\n      pop\n      pop\n      jump\t// out\n        /* \"#utility.yul\":3109:3438   */\n    tag_33:\n        /* \"#utility.yul\":3168:3174   */\n      0x00\n        /* \"#utility.yul\":3217:3219   */\n      0x20\n        /* \"#utility.yul\":3205:3214   */\n      dup3\n        /* \"#utility.yul\":3196:3203   */\n      dup5\n        /* \"#utility.yul\":3192:3215   */\n      sub\n        /* \"#utility.yul\":3188:3220   */\n      slt\n        /* \"#utility.yul\":3185:3304   */\n      iszero\n      tag_329\n      jumpi\n        /* \"#utility.yul\":3223:3302   */\n      tag_330\n      tag_230\n      jump\t// in\n    tag_330:\n        /* \"#utility.yul\":3185:3304   */\n    tag_329:\n        /* \"#utility.yul\":3343:3344   */\n      0x00\n        /* \"#utility.yul\":3368:3421   */\n      tag_331\n        /* \"#utility.yul\":3413:3420   */\n      dup5\n        /* \"#utility.yul\":3404:3410   */\n      dup3\n        /* \"#utility.yul\":3393:3402   */\n      dup6\n        /* \"#utility.yul\":3389:3411   */\n      add\n        /* \"#utility.yul\":3368:3421   */\n      tag_244\n      jump\t// in\n    tag_331:\n        /* \"#utility.yul\":3358:3421   */\n      swap2\n      pop\n        /* \"#utility.yul\":3314:3431   */\n      pop\n        /* \"#utility.yul\":3109:3438   */\n      swap3\n      swap2\n      pop\n      pop\n      jump\t// out\n        /* \"#utility.yul\":3444:3570   */\n    tag_245:\n        /* \"#utility.yul\":3481:3488   */\n      0x00\n        /* \"#utility.yul\":3521:3563   */\n      0xffffffffffffffffffffffffffffffffffffffff\n        /* \"#utility.yul\":3514:3519   */\n      dup3\n        /* \"#utility.yul\":3510:3564   */\n      and\n        /* \"#utility.yul\":3499:3564   */\n      swap1\n      pop\n        /* \"#utility.yul\":3444:3570   */\n      swap2\n      swap1\n      pop\n      jump\t// out\n        /* \"#utility.yul\":3576:3672   */\n    tag_246:\n        /* \"#utility.yul\":3613:3620   */\n      0x00\n        /* \"#utility.yul\":3642:3666   */\n      tag_334\n        /* \"#utility.yul\":3660:3665   */\n      dup3\n        /* \"#utility.yul\":3642:3666   */\n      tag_245\n      jump\t// in\n    tag_334:\n        /* \"#utility.yul\":3631:3666   */\n      swap1\n      pop\n        /* \"#utility.yul\":3576:3672   */\n      swap2\n      swap1\n      pop\n      jump\t// out\n        /* \"#utility.yul\":3678:3796   */\n    tag_247:\n        /* \"#utility.yul\":3765:3789   */\n      tag_336\n        /* \"#utility.yul\":3783:3788   */\n      dup2\n        /* \"#utility.yul\":3765:3789   */\n      tag_246\n      jump\t// in\n    tag_336:\n        /* \"#utility.yul\":3760:3763   */\n      dup3\n        /* \"#utility.yul\":3753:3790   */\n      mstore\n        /* \"#utility.yul\":3678:3796   */\n      pop\n      pop\n      jump\t// out\n        /* \"#utility.yul\":3802:4024   */\n    tag_36:\n        /* \"#utility.yul\":3895:3899   */\n      0x00\n        /* \"#utility.yul\":3933:3935   */\n      0x20\n        /* \"#utility.yul\":3922:3931   */\n      dup3\n        /* \"#utility.yul\":3918:3936   */\n      add\n        /* \"#utility.yul\":3910:3936   */\n      swap1\n      pop\n        /* \"#utility.yul\":3946:4017   */\n      tag_338\n        /* \"#utility.yul\":4014:4015   */\n      0x00\n        /* \"#utility.yul\":4003:4012   */\n      dup4\n        /* \"#utility.yul\":3999:4016   */\n      add\n        /* \"#utility.yul\":3990:3996   */\n      dup5\n        /* \"#utility.yul\":3946:4017   */\n      tag_247\n      jump\t// in\n    tag_338:\n        /* \"#utility.yul\":3802:4024   */\n      swap3\n      swap2\n      pop\n      pop\n      jump\t// out\n        /* \"#utility.yul\":4030:4152   */\n    tag_248:\n        /* \"#utility.yul\":4103:4127   */\n      tag_340\n        /* \"#utility.yul\":4121:4126   */\n      dup2\n        /* \"#utility.yul\":4103:4127   */\n      tag_246\n      jump\t// in\n    tag_340:\n        /* \"#utility.yul\":4096:4101   */\n      dup2\n        /* \"#utility.yul\":4093:4128   */\n      eq\n        /* \"#utility.yul\":4083:4146   */\n      tag_341\n      jumpi\n        /* \"#utility.yul\":4142:4143   */\n      0x00\n        /* \"#utility.yul\":4139:4140   */\n      dup1\n        /* \"#utility.yul\":4132:4144   */\n      revert\n        /* \"#utility.yul\":4083:4146   */\n    tag_341:\n        /* \"#utility.yul\":4030:4152   */\n      pop\n      jump\t// out\n        /* \"#utility.yul\":4158:4297   */\n    tag_249:\n        /* \"#utility.yul\":4204:4209   */\n      0x00\n        /* \"#utility.yul\":4242:4248   */\n      dup2\n        /* \"#utility.yul\":4229:4249   */\n      calldataload\n        /* \"#utility.yul\":4220:4249   */\n      swap1\n      pop\n        /* \"#utility.yul\":4258:4291   */\n      tag_343\n        /* \"#utility.yul\":4285:4290   */\n      dup2\n        /* \"#utility.yul\":4258:4291   */\n      tag_248\n      jump\t// in\n    tag_343:\n        /* \"#utility.yul\":4158:4297   */\n      swap3\n      swap2\n      pop\n      pop\n      jump\t// out\n        /* \"#utility.yul\":4303:4777   */\n    tag_39:\n        /* \"#utility.yul\":4371:4377   */\n      0x00\n        /* \"#utility.yul\":4379:4385   */\n      dup1\n        /* \"#utility.yul\":4428:4430   */\n      0x40\n        /* \"#utility.yul\":4416:4425   */\n      dup4\n        /* \"#utility.yul\":4407:4414   */\n      dup6\n        /* \"#utility.yul\":4403:4426   */\n      sub\n        /* \"#utility.yul\":4399:4431   */\n      slt\n        /* \"#utility.yul\":4396:4515   */\n      iszero\n      tag_345\n      jumpi\n        /* \"#utility.yul\":4434:4513   */\n      tag_346\n      tag_230\n      jump\t// in\n    tag_346:\n        /* \"#utility.yul\":4396:4515   */\n    tag_345:\n        /* \"#utility.yul\":4554:4555   */\n      0x00\n        /* \"#utility.yul\":4579:4632   */\n      tag_347\n        /* \"#utility.yul\":4624:4631   */\n      dup6\n        /* \"#utility.yul\":4615:4621   */\n      dup3\n        /* \"#utility.yul\":4604:4613   */\n      dup7\n        /* \"#utility.yul\":4600:4622   */\n      add\n        /* \"#utility.yul\":4579:4632   */\n      tag_249\n      jump\t// in\n    tag_347:\n        /* \"#utility.yul\":4569:4632   */\n      swap3\n      pop\n        /* \"#utility.yul\":4525:4642   */\n      pop\n        /* \"#utility.yul\":4681:4683   */\n      0x20\n        /* \"#utility.yul\":4707:4760   */\n      tag_348\n        /* \"#utility.yul\":4752:4759   */\n      dup6\n        /* \"#utility.yul\":4743:4749   */\n      dup3\n        /* \"#utility.yul\":4732:4741   */\n      dup7\n        /* \"#utility.yul\":4728:4750   */\n      add\n        /* \"#utility.yul\":4707:4760   */\n      tag_244\n      jump\t// in\n    tag_348:\n        /* \"#utility.yul\":4697:4760   */\n      swap2\n      pop\n        /* \"#utility.yul\":4652:4770   */\n      pop\n        /* \"#utility.yul\":4303:4777   */\n      swap3\n      pop\n      swap3\n      swap1\n      pop\n      jump\t// out\n        /* \"#utility.yul\":4783:5402   */\n    tag_43:\n        /* \"#utility.yul\":4860:4866   */\n      0x00\n        /* \"#utility.yul\":4868:4874   */\n      dup1\n        /* \"#utility.yul\":4876:4882   */\n      0x00\n        /* \"#utility.yul\":4925:4927   */\n      0x60\n        /* \"#utility.yul\":4913:4922   */\n      dup5\n        /* \"#utility.yul\":4904:4911   */\n      dup7\n        /* \"#utility.yul\":4900:4923   */\n      sub\n        /* \"#utility.yul\":4896:4928   */\n      slt\n        /* \"#utility.yul\":4893:5012   */\n      iszero\n      tag_350\n      jumpi\n        /* \"#utility.yul\":4931:5010   */\n      tag_351\n      tag_230\n      jump\t// in\n    tag_351:\n        /* \"#utility.yul\":4893:5012   */\n    tag_350:\n        /* \"#utility.yul\":5051:5052   */\n      0x00\n        /* \"#utility.yul\":5076:5129   */\n      tag_352\n        /* \"#utility.yul\":5121:5128   */\n      dup7\n        /* \"#utility.yul\":5112:5118   */\n      dup3\n        /* \"#utility.yul\":5101:5110   */\n      dup8\n        /* \"#utility.yul\":5097:5119   */\n      add\n        /* \"#utility.yul\":5076:5129   */\n      tag_249\n      jump\t// in\n    tag_352:\n        /* \"#utility.yul\":5066:5129   */\n      swap4\n      pop\n        /* \"#utility.yul\":5022:5139   */\n      pop\n        /* \"#utility.yul\":5178:5180   */\n      0x20\n        /* \"#utility.yul\":5204:5257   */\n      tag_353\n        /* \"#utility.yul\":5249:5256   */\n      dup7\n        /* \"#utility.yul\":5240:5246   */\n      dup3\n        /* \"#utility.yul\":5229:5238   */\n      dup8\n        /* \"#utility.yul\":5225:5247   */\n      add\n        /* \"#utility.yul\":5204:5257   */\n      tag_249\n      jump\t// in\n    tag_353:\n        /* \"#utility.yul\":5194:5257   */\n      swap3\n      pop\n        /* \"#utility.yul\":5149:5267   */\n      pop\n        /* \"#utility.yul\":5306:5308   */\n      0x40\n        /* \"#utility.yul\":5332:5385   */\n      tag_354\n        /* \"#utility.yul\":5377:5384   */\n      dup7\n        /* \"#utility.yul\":5368:5374   */\n      dup3\n        /* \"#utility.yul\":5357:5366   */\n      dup8\n        /* \"#utility.yul\":5353:5375   */\n      add\n        /* \"#utility.yul\":5332:5385   */\n      tag_244\n      jump\t// in\n    tag_354:\n        /* \"#utility.yul\":5322:5385   */\n      swap2\n      pop\n        /* \"#utility.yul\":5277:5395   */\n      pop\n        /* \"#utility.yul\":4783:5402   */\n      swap3\n      pop\n      swap3\n      pop\n      swap3\n      jump\t// out\n        /* \"#utility.yul\":5408:5737   */\n    tag_57:\n        /* \"#utility.yul\":5467:5473   */\n      0x00\n        /* \"#utility.yul\":5516:5518   */\n      0x20\n        /* \"#utility.yul\":5504:5513   */\n      dup3\n        /* \"#utility.yul\":5495:5502   */\n      dup5\n        /* \"#utility.yul\":5491:5514   */\n      sub\n        /* \"#utility.yul\":5487:5519   */\n      slt\n        /* \"#utility.yul\":5484:5603   */\n      iszero\n      tag_356\n      jumpi\n        /* \"#utility.yul\":5522:5601   */\n      tag_357\n      tag_230\n      jump\t// in\n    tag_357:\n        /* \"#utility.yul\":5484:5603   */\n    tag_356:\n        /* \"#utility.yul\":5642:5643   */\n      0x00\n        /* \"#utility.yul\":5667:5720   */\n      tag_358\n        /* \"#utility.yul\":5712:5719   */\n      dup5\n        /* \"#utility.yul\":5703:5709   */\n      dup3\n        /* \"#utility.yul\":5692:5701   */\n      dup6\n        /* \"#utility.yul\":5688:5710   */\n      add\n        /* \"#utility.yul\":5667:5720   */\n      tag_249\n      jump\t// in\n    tag_358:\n        /* \"#utility.yul\":5657:5720   */\n      swap2\n      pop\n        /* \"#utility.yul\":5613:5730   */\n      pop\n        /* \"#utility.yul\":5408:5737   */\n      swap3\n      swap2\n      pop\n      pop\n      jump\t// out\n        /* \"#utility.yul\":5743:5861   */\n    tag_250:\n        /* \"#utility.yul\":5830:5854   */\n      tag_360\n        /* \"#utility.yul\":5848:5853   */\n      dup2\n        /* \"#utility.yul\":5830:5854   */\n      tag_242\n      jump\t// in\n    tag_360:\n        /* \"#utility.yul\":5825:5828   */\n      dup3\n        /* \"#utility.yul\":5818:5855   */\n      mstore\n        /* \"#utility.yul\":5743:5861   */\n      pop\n      pop\n      jump\t// out\n        /* \"#utility.yul\":5867:6089   */\n    tag_60:\n        /* \"#utility.yul\":5960:5964   */\n      0x00\n        /* \"#utility.yul\":5998:6000   */\n      0x20\n        /* \"#utility.yul\":5987:5996   */\n      dup3\n        /* \"#utility.yul\":5983:6001   */\n      add\n        /* \"#utility.yul\":5975:6001   */\n      swap1\n      pop\n        /* \"#utility.yul\":6011:6082   */\n      tag_362\n        /* \"#utility.yul\":6079:6080   */\n      0x00\n        /* \"#utility.yul\":6068:6077   */\n      dup4\n        /* \"#utility.yul\":6064:6081   */\n      add\n        /* \"#utility.yul\":6055:6061   */\n      dup5\n        /* \"#utility.yul\":6011:6082   */\n      tag_250\n      jump\t// in\n    tag_362:\n        /* \"#utility.yul\":5867:6089   */\n      swap3\n      swap2\n      pop\n      pop\n      jump\t// out\n        /* \"#utility.yul\":6095:6211   */\n    tag_251:\n        /* \"#utility.yul\":6165:6186   */\n      tag_364\n        /* \"#utility.yul\":6180:6185   */\n      dup2\n        /* \"#utility.yul\":6165:6186   */\n      tag_235\n      jump\t// in\n    tag_364:\n        /* \"#utility.yul\":6158:6163   */\n      dup2\n        /* \"#utility.yul\":6155:6187   */\n      eq\n        /* \"#utility.yul\":6145:6205   */\n      tag_365\n      jumpi\n        /* \"#utility.yul\":6201:6202   */\n      0x00\n        /* \"#utility.yul\":6198:6199   */\n      dup1\n        /* \"#utility.yul\":6191:6203   */\n      revert\n        /* \"#utility.yul\":6145:6205   */\n    tag_365:\n        /* \"#utility.yul\":6095:6211   */\n      pop\n      jump\t// out\n        /* \"#utility.yul\":6217:6350   */\n    tag_252:\n        /* \"#utility.yul\":6260:6265   */\n      0x00\n        /* \"#utility.yul\":6298:6304   */\n      dup2\n        /* \"#utility.yul\":6285:6305   */\n      calldataload\n        /* \"#utility.yul\":6276:6305   */\n      swap1\n      pop\n        /* \"#utility.yul\":6314:6344   */\n      tag_367\n        /* \"#utility.yul\":6338:6343   */\n      dup2\n        /* \"#utility.yul\":6314:6344   */\n      tag_251\n      jump\t// in\n    tag_367:\n        /* \"#utility.yul\":6217:6350   */\n      swap3\n      swap2\n      pop\n      pop\n      jump\t// out\n        /* \"#utility.yul\":6356:6824   */\n    tag_66:\n        /* \"#utility.yul\":6421:6427   */\n      0x00\n        /* \"#utility.yul\":6429:6435   */\n      dup1\n        /* \"#utility.yul\":6478:6480   */\n      0x40\n        /* \"#utility.yul\":6466:6475   */\n      dup4\n        /* \"#utility.yul\":6457:6464   */\n      dup6\n        /* \"#utility.yul\":6453:6476   */\n      sub\n        /* \"#utility.yul\":6449:6481   */\n      slt\n        /* \"#utility.yul\":6446:6565   */\n      iszero\n      tag_369\n      jumpi\n        /* \"#utility.yul\":6484:6563   */\n      tag_370\n      tag_230\n      jump\t// in\n    tag_370:\n        /* \"#utility.yul\":6446:6565   */\n    tag_369:\n        /* \"#utility.yul\":6604:6605   */\n      0x00\n        /* \"#utility.yul\":6629:6682   */\n      tag_371\n        /* \"#utility.yul\":6674:6681   */\n      dup6\n        /* \"#utility.yul\":6665:6671   */\n      dup3\n        /* \"#utility.yul\":6654:6663   */\n      dup7\n        /* \"#utility.yul\":6650:6672   */\n      add\n        /* \"#utility.yul\":6629:6682   */\n      tag_249\n      jump\t// in\n    tag_371:\n        /* \"#utility.yul\":6619:6682   */\n      swap3\n      pop\n        /* \"#utility.yul\":6575:6692   */\n      pop\n        /* \"#utility.yul\":6731:6733   */\n      0x20\n        /* \"#utility.yul\":6757:6807   */\n      tag_372\n        /* \"#utility.yul\":6799:6806   */\n      dup6\n        /* \"#utility.yul\":6790:6796   */\n      dup3\n        /* \"#utility.yul\":6779:6788   */\n      dup7\n        /* \"#utility.yul\":6775:6797   */\n      add\n        /* \"#utility.yul\":6757:6807   */\n      tag_252\n      jump\t// in\n    tag_372:\n        /* \"#utility.yul\":6747:6807   */\n      swap2\n      pop\n        /* \"#utility.yul\":6702:6817   */\n      pop\n        /* \"#utility.yul\":6356:6824   */\n      swap3\n      pop\n      swap3\n      swap1\n      pop\n      jump\t// out\n        /* \"#utility.yul\":6830:6947   */\n    tag_253:\n        /* \"#utility.yul\":6939:6940   */\n      0x00\n        /* \"#utility.yul\":6936:6937   */\n      dup1\n        /* \"#utility.yul\":6929:6941   */\n      revert\n        /* \"#utility.yul\":6953:7070   */\n    tag_254:\n        /* \"#utility.yul\":7062:7063   */\n      0x00\n        /* \"#utility.yul\":7059:7060   */\n      dup1\n        /* \"#utility.yul\":7052:7064   */\n      revert\n        /* \"#utility.yul\":7076:7256   */\n    tag_198:\n        /* \"#utility.yul\":7124:7201   */\n      0x4e487b7100000000000000000000000000000000000000000000000000000000\n        /* \"#utility.yul\":7121:7122   */\n      0x00\n        /* \"#utility.yul\":7114:7202   */\n      mstore\n        /* \"#utility.yul\":7221:7225   */\n      0x41\n        /* \"#utility.yul\":7218:7219   */\n      0x04\n        /* \"#utility.yul\":7211:7226   */\n      mstore\n        /* \"#utility.yul\":7245:7249   */\n      0x24\n        /* \"#utility.yul\":7242:7243   */\n      0x00\n        /* \"#utility.yul\":7235:7250   */\n      revert\n        /* \"#utility.yul\":7262:7543   */\n    tag_255:\n        /* \"#utility.yul\":7345:7372   */\n      tag_377\n        /* \"#utility.yul\":7367:7371   */\n      dup3\n        /* \"#utility.yul\":7345:7372   */\n      tag_240\n      jump\t// in\n    tag_377:\n        /* \"#utility.yul\":7337:7343   */\n      dup2\n        /* \"#utility.yul\":7333:7373   */\n      add\n        /* \"#utility.yul\":7475:7481   */\n      dup2\n        /* \"#utility.yul\":7463:7473   */\n      dup2\n        /* \"#utility.yul\":7460:7482   */\n      lt\n        /* \"#utility.yul\":7439:7457   */\n      0xffffffffffffffff\n        /* \"#utility.yul\":7427:7437   */\n      dup3\n        /* \"#utility.yul\":7424:7458   */\n      gt\n        /* \"#utility.yul\":7421:7483   */\n      or\n        /* \"#utility.yul\":7418:7506   */\n      iszero\n      tag_378\n      jumpi\n        /* \"#utility.yul\":7486:7504   */\n      tag_379\n      tag_198\n      jump\t// in\n    tag_379:\n        /* \"#utility.yul\":7418:7506   */\n    tag_378:\n        /* \"#utility.yul\":7526:7536   */\n      dup1\n        /* \"#utility.yul\":7522:7524   */\n      0x40\n        /* \"#utility.yul\":7515:7537   */\n      mstore\n        /* \"#utility.yul\":7305:7543   */\n      pop\n        /* \"#utility.yul\":7262:7543   */\n      pop\n      pop\n      jump\t// out\n        /* \"#utility.yul\":7549:7678   */\n    tag_256:\n        /* \"#utility.yul\":7583:7589   */\n      0x00\n        /* \"#utility.yul\":7610:7630   */\n      tag_381\n      tag_229\n      jump\t// in\n    tag_381:\n        /* \"#utility.yul\":7600:7630   */\n      swap1\n      pop\n        /* \"#utility.yul\":7639:7672   */\n      tag_382\n        /* \"#utility.yul\":7667:7671   */\n      dup3\n        /* \"#utility.yul\":7659:7665   */\n      dup3\n        /* \"#utility.yul\":7639:7672   */\n      tag_255\n      jump\t// in\n    tag_382:\n        /* \"#utility.yul\":7549:7678   */\n      swap2\n      swap1\n      pop\n      jump\t// out\n        /* \"#utility.yul\":7684:7991   */\n    tag_257:\n        /* \"#utility.yul\":7745:7749   */\n      0x00\n        /* \"#utility.yul\":7835:7853   */\n      0xffffffffffffffff\n        /* \"#utility.yul\":7827:7833   */\n      dup3\n        /* \"#utility.yul\":7824:7854   */\n      gt\n        /* \"#utility.yul\":7821:7877   */\n      iszero\n      tag_384\n      jumpi\n        /* \"#utility.yul\":7857:7875   */\n      tag_385\n      tag_198\n      jump\t// in\n    tag_385:\n        /* \"#utility.yul\":7821:7877   */\n    tag_384:\n        /* \"#utility.yul\":7895:7924   */\n      tag_386\n        /* \"#utility.yul\":7917:7923   */\n      dup3\n        /* \"#utility.yul\":7895:7924   */\n      tag_240\n      jump\t// in\n    tag_386:\n        /* \"#utility.yul\":7887:7924   */\n      swap1\n      pop\n        /* \"#utility.yul\":7979:7983   */\n      0x20\n        /* \"#utility.yul\":7973:7977   */\n      dup2\n        /* \"#utility.yul\":7969:7984   */\n      add\n        /* \"#utility.yul\":7961:7984   */\n      swap1\n      pop\n        /* \"#utility.yul\":7684:7991   */\n      swap2\n      swap1\n      pop\n      jump\t// out\n        /* \"#utility.yul\":7997:8145   */\n    tag_258:\n        /* \"#utility.yul\":8095:8101   */\n      dup3\n        /* \"#utility.yul\":8090:8093   */\n      dup2\n        /* \"#utility.yul\":8085:8088   */\n      dup4\n        /* \"#utility.yul\":8072:8102   */\n      calldatacopy\n        /* \"#utility.yul\":8136:8137   */\n      0x00\n        /* \"#utility.yul\":8127:8133   */\n      dup4\n        /* \"#utility.yul\":8122:8125   */\n      dup4\n        /* \"#utility.yul\":8118:8134   */\n      add\n        /* \"#utility.yul\":8111:8138   */\n      mstore\n        /* \"#utility.yul\":7997:8145   */\n      pop\n      pop\n      pop\n      jump\t// out\n        /* \"#utility.yul\":8151:8574   */\n    tag_259:\n        /* \"#utility.yul\":8228:8233   */\n      0x00\n        /* \"#utility.yul\":8253:8318   */\n      tag_389\n        /* \"#utility.yul\":8269:8317   */\n      tag_390\n        /* \"#utility.yul\":8310:8316   */\n      dup5\n        /* \"#utility.yul\":8269:8317   */\n      tag_257\n      jump\t// in\n    tag_390:\n        /* \"#utility.yul\":8253:8318   */\n      tag_256\n      jump\t// in\n    tag_389:\n        /* \"#utility.yul\":8244:8318   */\n      swap1\n      pop\n        /* \"#utility.yul\":8341:8347   */\n      dup3\n        /* \"#utility.yul\":8334:8339   */\n      dup2\n        /* \"#utility.yul\":8327:8348   */\n      mstore\n        /* \"#utility.yul\":8379:8383   */\n      0x20\n        /* \"#utility.yul\":8372:8377   */\n      dup2\n        /* \"#utility.yul\":8368:8384   */\n      add\n        /* \"#utility.yul\":8417:8420   */\n      dup5\n        /* \"#utility.yul\":8408:8414   */\n      dup5\n        /* \"#utility.yul\":8403:8406   */\n      dup5\n        /* \"#utility.yul\":8399:8415   */\n      add\n        /* \"#utility.yul\":8396:8421   */\n      gt\n        /* \"#utility.yul\":8393:8505   */\n      iszero\n      tag_391\n      jumpi\n        /* \"#utility.yul\":8424:8503   */\n      tag_392\n      tag_254\n      jump\t// in\n    tag_392:\n        /* \"#utility.yul\":8393:8505   */\n    tag_391:\n        /* \"#utility.yul\":8514:8568   */\n      tag_393\n        /* \"#utility.yul\":8561:8567   */\n      dup5\n        /* \"#utility.yul\":8556:8559   */\n      dup3\n        /* \"#utility.yul\":8551:8554   */\n      dup6\n        /* \"#utility.yul\":8514:8568   */\n      tag_258\n      jump\t// in\n    tag_393:\n        /* \"#utility.yul\":8234:8574   */\n      pop\n        /* \"#utility.yul\":8151:8574   */\n      swap4\n      swap3\n      pop\n      pop\n      pop\n      jump\t// out\n        /* \"#utility.yul\":8593:8931   */\n    tag_260:\n        /* \"#utility.yul\":8648:8653   */\n      0x00\n        /* \"#utility.yul\":8697:8700   */\n      dup3\n        /* \"#utility.yul\":8690:8694   */\n      0x1f\n        /* \"#utility.yul\":8682:8688   */\n      dup4\n        /* \"#utility.yul\":8678:8695   */\n      add\n        /* \"#utility.yul\":8674:8701   */\n      slt\n        /* \"#utility.yul\":8664:8786   */\n      tag_395\n      jumpi\n        /* \"#utility.yul\":8705:8784   */\n      tag_396\n      tag_253\n      jump\t// in\n    tag_396:\n        /* \"#utility.yul\":8664:8786   */\n    tag_395:\n        /* \"#utility.yul\":8822:8828   */\n      dup2\n        /* \"#utility.yul\":8809:8829   */\n      calldataload\n        /* \"#utility.yul\":8847:8925   */\n      tag_397\n        /* \"#utility.yul\":8921:8924   */\n      dup5\n        /* \"#utility.yul\":8913:8919   */\n      dup3\n        /* \"#utility.yul\":8906:8910   */\n      0x20\n        /* \"#utility.yul\":8898:8904   */\n      dup7\n        /* \"#utility.yul\":8894:8911   */\n      add\n        /* \"#utility.yul\":8847:8925   */\n      tag_259\n      jump\t// in\n    tag_397:\n        /* \"#utility.yul\":8838:8925   */\n      swap2\n      pop\n        /* \"#utility.yul\":8654:8931   */\n      pop\n        /* \"#utility.yul\":8593:8931   */\n      swap3\n      swap2\n      pop\n      pop\n      jump\t// out\n        /* \"#utility.yul\":8937:9880   */\n    tag_70:\n        /* \"#utility.yul\":9032:9038   */\n      0x00\n        /* \"#utility.yul\":9040:9046   */\n      dup1\n        /* \"#utility.yul\":9048:9054   */\n      0x00\n        /* \"#utility.yul\":9056:9062   */\n      dup1\n        /* \"#utility.yul\":9105:9108   */\n      0x80\n        /* \"#utility.yul\":9093:9102   */\n      dup6\n        /* \"#utility.yul\":9084:9091   */\n      dup8\n        /* \"#utility.yul\":9080:9103   */\n      sub\n        /* \"#utility.yul\":9076:9109   */\n      slt\n        /* \"#utility.yul\":9073:9193   */\n      iszero\n      tag_399\n      jumpi\n        /* \"#utility.yul\":9112:9191   */\n      tag_400\n      tag_230\n      jump\t// in\n    tag_400:\n        /* \"#utility.yul\":9073:9193   */\n    tag_399:\n        /* \"#utility.yul\":9232:9233   */\n      0x00\n        /* \"#utility.yul\":9257:9310   */\n      tag_401\n        /* \"#utility.yul\":9302:9309   */\n      dup8\n        /* \"#utility.yul\":9293:9299   */\n      dup3\n        /* \"#utility.yul\":9282:9291   */\n      dup9\n        /* \"#utility.yul\":9278:9300   */\n      add\n        /* \"#utility.yul\":9257:9310   */\n      tag_249\n      jump\t// in\n    tag_401:\n        /* \"#utility.yul\":9247:9310   */\n      swap5\n      pop\n        /* \"#utility.yul\":9203:9320   */\n      pop\n        /* \"#utility.yul\":9359:9361   */\n      0x20\n        /* \"#utility.yul\":9385:9438   */\n      tag_402\n        /* \"#utility.yul\":9430:9437   */\n      dup8\n        /* \"#utility.yul\":9421:9427   */\n      dup3\n        /* \"#utility.yul\":9410:9419   */\n      dup9\n        /* \"#utility.yul\":9406:9428   */\n      add\n        /* \"#utility.yul\":9385:9438   */\n      tag_249\n      jump\t// in\n    tag_402:\n        /* \"#utility.yul\":9375:9438   */\n      swap4\n      pop\n        /* \"#utility.yul\":9330:9448   */\n      pop\n        /* \"#utility.yul\":9487:9489   */\n      0x40\n        /* \"#utility.yul\":9513:9566   */\n      tag_403\n        /* \"#utility.yul\":9558:9565   */\n      dup8\n        /* \"#utility.yul\":9549:9555   */\n      dup3\n        /* \"#utility.yul\":9538:9547   */\n      dup9\n        /* \"#utility.yul\":9534:9556   */\n      add\n        /* \"#utility.yul\":9513:9566   */\n      tag_244\n      jump\t// in\n    tag_403:\n        /* \"#utility.yul\":9503:9566   */\n      swap3\n      pop\n        /* \"#utility.yul\":9458:9576   */\n      pop\n        /* \"#utility.yul\":9643:9645   */\n      0x60\n        /* \"#utility.yul\":9632:9641   */\n      dup6\n        /* \"#utility.yul\":9628:9646   */\n      add\n        /* \"#utility.yul\":9615:9647   */\n      calldataload\n        /* \"#utility.yul\":9674:9692   */\n      0xffffffffffffffff\n        /* \"#utility.yul\":9666:9672   */\n      dup2\n        /* \"#utility.yul\":9663:9693   */\n      gt\n        /* \"#utility.yul\":9660:9777   */\n      iszero\n      tag_404\n      jumpi\n        /* \"#utility.yul\":9696:9775   */\n      tag_405\n      tag_231\n      jump\t// in\n    tag_405:\n        /* \"#utility.yul\":9660:9777   */\n    tag_404:\n        /* \"#utility.yul\":9801:9863   */\n      tag_406\n        /* \"#utility.yul\":9855:9862   */\n      dup8\n        /* \"#utility.yul\":9846:9852   */\n      dup3\n        /* \"#utility.yul\":9835:9844   */\n      dup9\n        /* \"#utility.yul\":9831:9853   */\n      add\n        /* \"#utility.yul\":9801:9863   */\n      tag_260\n      jump\t// in\n    tag_406:\n        /* \"#utility.yul\":9791:9863   */\n      swap2\n      pop\n        /* \"#utility.yul\":9586:9873   */\n      pop\n        /* \"#utility.yul\":8937:9880   */\n      swap3\n      swap6\n      swap2\n      swap5\n      pop\n      swap3\n      pop\n      jump\t// out\n        /* \"#utility.yul\":9886:10360   */\n    tag_81:\n        /* \"#utility.yul\":9954:9960   */\n      0x00\n        /* \"#utility.yul\":9962:9968   */\n      dup1\n        /* \"#utility.yul\":10011:10013   */\n      0x40\n        /* \"#utility.yul\":9999:10008   */\n      dup4\n        /* \"#utility.yul\":9990:9997   */\n      dup6\n        /* \"#utility.yul\":9986:10009   */\n      sub\n        /* \"#utility.yul\":9982:10014   */\n      slt\n        /* \"#utility.yul\":9979:10098   */\n      iszero\n      tag_408\n      jumpi\n        /* \"#utility.yul\":10017:10096   */\n      tag_409\n      tag_230\n      jump\t// in\n    tag_409:\n        /* \"#utility.yul\":9979:10098   */\n    tag_408:\n        /* \"#utility.yul\":10137:10138   */\n      0x00\n        /* \"#utility.yul\":10162:10215   */\n      tag_410\n        /* \"#utility.yul\":10207:10214   */\n      dup6\n        /* \"#utility.yul\":10198:10204   */\n      dup3\n        /* \"#utility.yul\":10187:10196   */\n      dup7\n        /* \"#utility.yul\":10183:10205   */\n      add\n        /* \"#utility.yul\":10162:10215   */\n      tag_249\n      jump\t// in\n    tag_410:\n        /* \"#utility.yul\":10152:10215   */\n      swap3\n      pop\n        /* \"#utility.yul\":10108:10225   */\n      pop\n        /* \"#utility.yul\":10264:10266   */\n      0x20\n        /* \"#utility.yul\":10290:10343   */\n      tag_411\n        /* \"#utility.yul\":10335:10342   */\n      dup6\n        /* \"#utility.yul\":10326:10332   */\n      dup3\n        /* \"#utility.yul\":10315:10324   */\n      dup7\n        /* \"#utility.yul\":10311:10333   */\n      add\n        /* \"#utility.yul\":10290:10343   */\n      tag_249\n      jump\t// in\n    tag_411:\n        /* \"#utility.yul\":10280:10343   */\n      swap2\n      pop\n        /* \"#utility.yul\":10235:10353   */\n      pop\n        /* \"#utility.yul\":9886:10360   */\n      swap3\n      pop\n      swap3\n      swap1\n      pop\n      jump\t// out\n        /* \"#utility.yul\":10366:10546   */\n    tag_261:\n        /* \"#utility.yul\":10414:10491   */\n      0x4e487b7100000000000000000000000000000000000000000000000000000000\n        /* \"#utility.yul\":10411:10412   */\n      0x00\n        /* \"#utility.yul\":10404:10492   */\n      mstore\n        /* \"#utility.yul\":10511:10515   */\n      0x22\n        /* \"#utility.yul\":10508:10509   */\n      0x04\n        /* \"#utility.yul\":10501:10516   */\n      mstore\n        /* \"#utility.yul\":10535:10539   */\n      0x24\n        /* \"#utility.yul\":10532:10533   */\n      0x00\n        /* \"#utility.yul\":10525:10540   */\n      revert\n        /* \"#utility.yul\":10552:10872   */\n    tag_88:\n        /* \"#utility.yul\":10596:10602   */\n      0x00\n        /* \"#utility.yul\":10633:10634   */\n      0x02\n        /* \"#utility.yul\":10627:10631   */\n      dup3\n        /* \"#utility.yul\":10623:10635   */\n      div\n        /* \"#utility.yul\":10613:10635   */\n      swap1\n      pop\n        /* \"#utility.yul\":10680:10681   */\n      0x01\n        /* \"#utility.yul\":10674:10678   */\n      dup3\n        /* \"#utility.yul\":10670:10682   */\n      and\n        /* \"#utility.yul\":10701:10719   */\n      dup1\n        /* \"#utility.yul\":10691:10772   */\n      tag_414\n      jumpi\n        /* \"#utility.yul\":10757:10761   */\n      0x7f\n        /* \"#utility.yul\":10749:10755   */\n      dup3\n        /* \"#utility.yul\":10745:10762   */\n      and\n        /* \"#utility.yul\":10735:10762   */\n      swap2\n      pop\n        /* \"#utility.yul\":10691:10772   */\n    tag_414:\n        /* \"#utility.yul\":10819:10821   */\n      0x20\n        /* \"#utility.yul\":10811:10817   */\n      dup3\n        /* \"#utility.yul\":10808:10822   */\n      lt\n        /* \"#utility.yul\":10788:10806   */\n      dup2\n        /* \"#utility.yul\":10785:10823   */\n      sub\n        /* \"#utility.yul\":10782:10866   */\n      tag_415\n      jumpi\n        /* \"#utility.yul\":10838:10856   */\n      tag_416\n      tag_261\n      jump\t// in\n    tag_416:\n        /* \"#utility.yul\":10782:10866   */\n    tag_415:\n        /* \"#utility.yul\":10603:10872   */\n      pop\n        /* \"#utility.yul\":10552:10872   */\n      swap2\n      swap1\n      pop\n      jump\t// out\n        /* \"#utility.yul\":10878:11047   */\n    tag_262:\n        /* \"#utility.yul\":11018:11039   */\n      0x746f6b656e20646f65736e277420657869737400000000000000000000000000\n        /* \"#utility.yul\":11014:11015   */\n      0x00\n        /* \"#utility.yul\":11006:11012   */\n      dup3\n        /* \"#utility.yul\":11002:11016   */\n      add\n        /* \"#utility.yul\":10995:11040   */\n      mstore\n        /* \"#utility.yul\":10878:11047   */\n      pop\n      jump\t// out\n        /* \"#utility.yul\":11053:11419   */\n    tag_263:\n        /* \"#utility.yul\":11195:11198   */\n      0x00\n        /* \"#utility.yul\":11216:11283   */\n      tag_419\n        /* \"#utility.yul\":11280:11282   */\n      0x13\n        /* \"#utility.yul\":11275:11278   */\n      dup4\n        /* \"#utility.yul\":11216:11283   */\n      tag_238\n      jump\t// in\n    tag_419:\n        /* \"#utility.yul\":11209:11283   */\n      swap2\n      pop\n        /* \"#utility.yul\":11292:11385   */\n      tag_420\n        /* \"#utility.yul\":11381:11384   */\n      dup3\n        /* \"#utility.yul\":11292:11385   */\n      tag_262\n      jump\t// in\n    tag_420:\n        /* \"#utility.yul\":11410:11412   */\n      0x20\n        /* \"#utility.yul\":11405:11408   */\n      dup3\n        /* \"#utility.yul\":11401:11413   */\n      add\n        /* \"#utility.yul\":11394:11413   */\n      swap1\n      pop\n        /* \"#utility.yul\":11053:11419   */\n      swap2\n      swap1\n      pop\n      jump\t// out\n        /* \"#utility.yul\":11425:11844   */\n    tag_96:\n        /* \"#utility.yul\":11591:11595   */\n      0x00\n        /* \"#utility.yul\":11629:11631   */\n      0x20\n        /* \"#utility.yul\":11618:11627   */\n      dup3\n        /* \"#utility.yul\":11614:11632   */\n      add\n        /* \"#utility.yul\":11606:11632   */\n      swap1\n      pop\n        /* \"#utility.yul\":11678:11687   */\n      dup2\n        /* \"#utility.yul\":11672:11676   */\n      dup2\n        /* \"#utility.yul\":11668:11688   */\n      sub\n        /* \"#utility.yul\":11664:11665   */\n      0x00\n        /* \"#utility.yul\":11653:11662   */\n      dup4\n        /* \"#utility.yul\":11649:11666   */\n      add\n        /* \"#utility.yul\":11642:11689   */\n      mstore\n        /* \"#utility.yul\":11706:11837   */\n      tag_422\n        /* \"#utility.yul\":11832:11836   */\n      dup2\n        /* \"#utility.yul\":11706:11837   */\n      tag_263\n      jump\t// in\n    tag_422:\n        /* \"#utility.yul\":11698:11837   */\n      swap1\n      pop\n        /* \"#utility.yul\":11425:11844   */\n      swap2\n      swap1\n      pop\n      jump\t// out\n        /* \"#utility.yul\":11850:12030   */\n    tag_264:\n        /* \"#utility.yul\":11990:12022   */\n      0x6e6f74206f776e6572206e6f7220617070726f76656420666f7220616c6c0000\n        /* \"#utility.yul\":11986:11987   */\n      0x00\n        /* \"#utility.yul\":11978:11984   */\n      dup3\n        /* \"#utility.yul\":11974:11988   */\n      add\n        /* \"#utility.yul\":11967:12023   */\n      mstore\n        /* \"#utility.yul\":11850:12030   */\n      pop\n      jump\t// out\n        /* \"#utility.yul\":12036:12402   */\n    tag_265:\n        /* \"#utility.yul\":12178:12181   */\n      0x00\n        /* \"#utility.yul\":12199:12266   */\n      tag_425\n        /* \"#utility.yul\":12263:12265   */\n      0x1e\n        /* \"#utility.yul\":12258:12261   */\n      dup4\n        /* \"#utility.yul\":12199:12266   */\n      tag_238\n      jump\t// in\n    tag_425:\n        /* \"#utility.yul\":12192:12266   */\n      swap2\n      pop\n        /* \"#utility.yul\":12275:12368   */\n      tag_426\n        /* \"#utility.yul\":12364:12367   */\n      dup3\n        /* \"#utility.yul\":12275:12368   */\n      tag_264\n      jump\t// in\n    tag_426:\n        /* \"#utility.yul\":12393:12395   */\n      0x20\n        /* \"#utility.yul\":12388:12391   */\n      dup3\n        /* \"#utility.yul\":12384:12396   */\n      add\n        /* \"#utility.yul\":12377:12396   */\n      swap1\n      pop\n        /* \"#utility.yul\":12036:12402   */\n      swap2\n      swap1\n      pop\n      jump\t// out\n        /* \"#utility.yul\":12408:12827   */\n    tag_101:\n        /* \"#utility.yul\":12574:12578   */\n      0x00\n        /* \"#utility.yul\":12612:12614   */\n      0x20\n        /* \"#utility.yul\":12601:12610   */\n      dup3\n        /* \"#utility.yul\":12597:12615   */\n      add\n        /* \"#utility.yul\":12589:12615   */\n      swap1\n      pop\n        /* \"#utility.yul\":12661:12670   */\n      dup2\n        /* \"#utility.yul\":12655:12659   */\n      dup2\n        /* \"#utility.yul\":12651:12671   */\n      sub\n        /* \"#utility.yul\":12647:12648   */\n      0x00\n        /* \"#utility.yul\":12636:12645   */\n      dup4\n        /* \"#utility.yul\":12632:12649   */\n      add\n        /* \"#utility.yul\":12625:12672   */\n      mstore\n        /* \"#utility.yul\":12689:12820   */\n      tag_428\n        /* \"#utility.yul\":12815:12819   */\n      dup2\n        /* \"#utility.yul\":12689:12820   */\n      tag_265\n      jump\t// in\n    tag_428:\n        /* \"#utility.yul\":12681:12820   */\n      swap1\n      pop\n        /* \"#utility.yul\":12408:12827   */\n      swap2\n      swap1\n      pop\n      jump\t// out\n        /* \"#utility.yul\":12833:13005   */\n    tag_266:\n        /* \"#utility.yul\":12973:12997   */\n      0x6e6f74206f776e6572206e6f7220617070726f76656400000000000000000000\n        /* \"#utility.yul\":12969:12970   */\n      0x00\n        /* \"#utility.yul\":12961:12967   */\n      dup3\n        /* \"#utility.yul\":12957:12971   */\n      add\n        /* \"#utility.yul\":12950:12998   */\n      mstore\n        /* \"#utility.yul\":12833:13005   */\n      pop\n      jump\t// out\n        /* \"#utility.yul\":13011:13377   */\n    tag_267:\n        /* \"#utility.yul\":13153:13156   */\n      0x00\n        /* \"#utility.yul\":13174:13241   */\n      tag_431\n        /* \"#utility.yul\":13238:13240   */\n      0x16\n        /* \"#utility.yul\":13233:13236   */\n      dup4\n        /* \"#utility.yul\":13174:13241   */\n      tag_238\n      jump\t// in\n    tag_431:\n        /* \"#utility.yul\":13167:13241   */\n      swap2\n      pop\n        /* \"#utility.yul\":13250:13343   */\n      tag_432\n        /* \"#utility.yul\":13339:13342   */\n      dup3\n        /* \"#utility.yul\":13250:13343   */\n      tag_266\n      jump\t// in\n    tag_432:\n        /* \"#utility.yul\":13368:13370   */\n      0x20\n        /* \"#utility.yul\":13363:13366   */\n      dup3\n        /* \"#utility.yul\":13359:13371   */\n      add\n        /* \"#utility.yul\":13352:13371   */\n      swap1\n      pop\n        /* \"#utility.yul\":13011:13377   */\n      swap2\n      swap1\n      pop\n      jump\t// out\n        /* \"#utility.yul\":13383:13802   */\n    tag_110:\n        /* \"#utility.yul\":13549:13553   */\n      0x00\n        /* \"#utility.yul\":13587:13589   */\n      0x20\n        /* \"#utility.yul\":13576:13585   */\n      dup3\n        /* \"#utility.yul\":13572:13590   */\n      add\n        /* \"#utility.yul\":13564:13590   */\n      swap1\n      pop\n        /* \"#utility.yul\":13636:13645   */\n      dup2\n        /* \"#utility.yul\":13630:13634   */\n      dup2\n        /* \"#utility.yul\":13626:13646   */\n      sub\n        /* \"#utility.yul\":13622:13623   */\n      0x00\n        /* \"#utility.yul\":13611:13620   */\n      dup4\n        /* \"#utility.yul\":13607:13624   */\n      add\n        /* \"#utility.yul\":13600:13647   */\n      mstore\n        /* \"#utility.yul\":13664:13795   */\n      tag_434\n        /* \"#utility.yul\":13790:13794   */\n      dup2\n        /* \"#utility.yul\":13664:13795   */\n      tag_267\n      jump\t// in\n    tag_434:\n        /* \"#utility.yul\":13656:13795   */\n      swap1\n      pop\n        /* \"#utility.yul\":13383:13802   */\n      swap2\n      swap1\n      pop\n      jump\t// out\n        /* \"#utility.yul\":13808:13978   */\n    tag_268:\n        /* \"#utility.yul\":13948:13970   */\n      0x746f6b656e4964206f7574206f662072616e6765000000000000000000000000\n        /* \"#utility.yul\":13944:13945   */\n      0x00\n        /* \"#utility.yul\":13936:13942   */\n      dup3\n        /* \"#utility.yul\":13932:13946   */\n      add\n        /* \"#utility.yul\":13925:13971   */\n      mstore\n        /* \"#utility.yul\":13808:13978   */\n      pop\n      jump\t// out\n        /* \"#utility.yul\":13984:14350   */\n    tag_269:\n        /* \"#utility.yul\":14126:14129   */\n      0x00\n        /* \"#utility.yul\":14147:14214   */\n      tag_437\n        /* \"#utility.yul\":14211:14213   */\n      0x14\n        /* \"#utility.yul\":14206:14209   */\n      dup4\n        /* \"#utility.yul\":14147:14214   */\n      tag_238\n      jump\t// in\n    tag_437:\n        /* \"#utility.yul\":14140:14214   */\n      swap2\n      pop\n        /* \"#utility.yul\":14223:14316   */\n      tag_438\n        /* \"#utility.yul\":14312:14315   */\n      dup3\n        /* \"#utility.yul\":14223:14316   */\n      tag_268\n      jump\t// in\n    tag_438:\n        /* \"#utility.yul\":14341:14343   */\n      0x20\n        /* \"#utility.yul\":14336:14339   */\n      dup3\n        /* \"#utility.yul\":14332:14344   */\n      add\n        /* \"#utility.yul\":14325:14344   */\n      swap1\n      pop\n        /* \"#utility.yul\":13984:14350   */\n      swap2\n      swap1\n      pop\n      jump\t// out\n        /* \"#utility.yul\":14356:14775   */\n    tag_117:\n        /* \"#utility.yul\":14522:14526   */\n      0x00\n        /* \"#utility.yul\":14560:14562   */\n      0x20\n        /* \"#utility.yul\":14549:14558   */\n      dup3\n        /* \"#utility.yul\":14545:14563   */\n      add\n        /* \"#utility.yul\":14537:14563   */\n      swap1\n      pop\n        /* \"#utility.yul\":14609:14618   */\n      dup2\n        /* \"#utility.yul\":14603:14607   */\n      dup2\n        /* \"#utility.yul\":14599:14619   */\n      sub\n        /* \"#utility.yul\":14595:14596   */\n      0x00\n        /* \"#utility.yul\":14584:14593   */\n      dup4\n        /* \"#utility.yul\":14580:14597   */\n      add\n        /* \"#utility.yul\":14573:14620   */\n      mstore\n        /* \"#utility.yul\":14637:14768   */\n      tag_440\n        /* \"#utility.yul\":14763:14767   */\n      dup2\n        /* \"#utility.yul\":14637:14768   */\n      tag_269\n      jump\t// in\n    tag_440:\n        /* \"#utility.yul\":14629:14768   */\n      swap1\n      pop\n        /* \"#utility.yul\":14356:14775   */\n      swap2\n      swap1\n      pop\n      jump\t// out\n        /* \"#utility.yul\":14781:14951   */\n    tag_270:\n        /* \"#utility.yul\":14921:14943   */\n      0x6f776e6572203d207a65726f2061646472657373000000000000000000000000\n        /* \"#utility.yul\":14917:14918   */\n      0x00\n        /* \"#utility.yul\":14909:14915   */\n      dup3\n        /* \"#utility.yul\":14905:14919   */\n      add\n        /* \"#utility.yul\":14898:14944   */\n      mstore\n        /* \"#utility.yul\":14781:14951   */\n      pop\n      jump\t// out\n        /* \"#utility.yul\":14957:15323   */\n    tag_271:\n        /* \"#utility.yul\":15099:15102   */\n      0x00\n        /* \"#utility.yul\":15120:15187   */\n      tag_443\n        /* \"#utility.yul\":15184:15186   */\n      0x14\n        /* \"#utility.yul\":15179:15182   */\n      dup4\n        /* \"#utility.yul\":15120:15187   */\n      tag_238\n      jump\t// in\n    tag_443:\n        /* \"#utility.yul\":15113:15187   */\n      swap2\n      pop\n        /* \"#utility.yul\":15196:15289   */\n      tag_444\n        /* \"#utility.yul\":15285:15288   */\n      dup3\n        /* \"#utility.yul\":15196:15289   */\n      tag_270\n      jump\t// in\n    tag_444:\n        /* \"#utility.yul\":15314:15316   */\n      0x20\n        /* \"#utility.yul\":15309:15312   */\n      dup3\n        /* \"#utility.yul\":15305:15317   */\n      add\n        /* \"#utility.yul\":15298:15317   */\n      swap1\n      pop\n        /* \"#utility.yul\":14957:15323   */\n      swap2\n      swap1\n      pop\n      jump\t// out\n        /* \"#utility.yul\":15329:15748   */\n    tag_128:\n        /* \"#utility.yul\":15495:15499   */\n      0x00\n        /* \"#utility.yul\":15533:15535   */\n      0x20\n        /* \"#utility.yul\":15522:15531   */\n      dup3\n        /* \"#utility.yul\":15518:15536   */\n      add\n        /* \"#utility.yul\":15510:15536   */\n      swap1\n      pop\n        /* \"#utility.yul\":15582:15591   */\n      dup2\n        /* \"#utility.yul\":15576:15580   */\n      dup2\n        /* \"#utility.yul\":15572:15592   */\n      sub\n        /* \"#utility.yul\":15568:15569   */\n      0x00\n        /* \"#utility.yul\":15557:15566   */\n      dup4\n        /* \"#utility.yul\":15553:15570   */\n      add\n        /* \"#utility.yul\":15546:15593   */\n      mstore\n        /* \"#utility.yul\":15610:15741   */\n      tag_446\n        /* \"#utility.yul\":15736:15740   */\n      dup2\n        /* \"#utility.yul\":15610:15741   */\n      tag_271\n      jump\t// in\n    tag_446:\n        /* \"#utility.yul\":15602:15741   */\n      swap1\n      pop\n        /* \"#utility.yul\":15329:15748   */\n      swap2\n      swap1\n      pop\n      jump\t// out\n        /* \"#utility.yul\":15754:15974   */\n    tag_272:\n        /* \"#utility.yul\":15894:15928   */\n      0x4552433732312063616e277420617070726f766520666f7220796f757273656c\n        /* \"#utility.yul\":15890:15891   */\n      0x00\n        /* \"#utility.yul\":15882:15888   */\n      dup3\n        /* \"#utility.yul\":15878:15892   */\n      add\n        /* \"#utility.yul\":15871:15929   */\n      mstore\n        /* \"#utility.yul\":15963:15966   */\n      0x6600000000000000000000000000000000000000000000000000000000000000\n        /* \"#utility.yul\":15958:15960   */\n      0x20\n        /* \"#utility.yul\":15950:15956   */\n      dup3\n        /* \"#utility.yul\":15946:15961   */\n      add\n        /* \"#utility.yul\":15939:15967   */\n      mstore\n        /* \"#utility.yul\":15754:15974   */\n      pop\n      jump\t// out\n        /* \"#utility.yul\":15980:16346   */\n    tag_273:\n        /* \"#utility.yul\":16122:16125   */\n      0x00\n        /* \"#utility.yul\":16143:16210   */\n      tag_449\n        /* \"#utility.yul\":16207:16209   */\n      0x21\n        /* \"#utility.yul\":16202:16205   */\n      dup4\n        /* \"#utility.yul\":16143:16210   */\n      tag_238\n      jump\t// in\n    tag_449:\n        /* \"#utility.yul\":16136:16210   */\n      swap2\n      pop\n        /* \"#utility.yul\":16219:16312   */\n      tag_450\n        /* \"#utility.yul\":16308:16311   */\n      dup3\n        /* \"#utility.yul\":16219:16312   */\n      tag_272\n      jump\t// in\n    tag_450:\n        /* \"#utility.yul\":16337:16339   */\n      0x40\n        /* \"#utility.yul\":16332:16335   */\n      dup3\n        /* \"#utility.yul\":16328:16340   */\n      add\n        /* \"#utility.yul\":16321:16340   */\n      swap1\n      pop\n        /* \"#utility.yul\":15980:16346   */\n      swap2\n      swap1\n      pop\n      jump\t// out\n        /* \"#utility.yul\":16352:16771   */\n    tag_137:\n        /* \"#utility.yul\":16518:16522   */\n      0x00\n        /* \"#utility.yul\":16556:16558   */\n      0x20\n        /* \"#utility.yul\":16545:16554   */\n      dup3\n        /* \"#utility.yul\":16541:16559   */\n      add\n        /* \"#utility.yul\":16533:16559   */\n      swap1\n      pop\n        /* \"#utility.yul\":16605:16614   */\n      dup2\n        /* \"#utility.yul\":16599:16603   */\n      dup2\n        /* \"#utility.yul\":16595:16615   */\n      sub\n        /* \"#utility.yul\":16591:16592   */\n      0x00\n        /* \"#utility.yul\":16580:16589   */\n      dup4\n        /* \"#utility.yul\":16576:16593   */\n      add\n        /* \"#utility.yul\":16569:16616   */\n      mstore\n        /* \"#utility.yul\":16633:16764   */\n      tag_452\n        /* \"#utility.yul\":16759:16763   */\n      dup2\n        /* \"#utility.yul\":16633:16764   */\n      tag_273\n      jump\t// in\n    tag_452:\n        /* \"#utility.yul\":16625:16764   */\n      swap1\n      pop\n        /* \"#utility.yul\":16352:16771   */\n      swap2\n      swap1\n      pop\n      jump\t// out\n        /* \"#utility.yul\":16777:16942   */\n    tag_274:\n        /* \"#utility.yul\":16917:16934   */\n      0x546f6b656e204e6f742045786973740000000000000000000000000000000000\n        /* \"#utility.yul\":16913:16914   */\n      0x00\n        /* \"#utility.yul\":16905:16911   */\n      dup3\n        /* \"#utility.yul\":16901:16915   */\n      add\n        /* \"#utility.yul\":16894:16935   */\n      mstore\n        /* \"#utility.yul\":16777:16942   */\n      pop\n      jump\t// out\n        /* \"#utility.yul\":16948:17314   */\n    tag_275:\n        /* \"#utility.yul\":17090:17093   */\n      0x00\n        /* \"#utility.yul\":17111:17178   */\n      tag_455\n        /* \"#utility.yul\":17175:17177   */\n      0x0f\n        /* \"#utility.yul\":17170:17173   */\n      dup4\n        /* \"#utility.yul\":17111:17178   */\n      tag_238\n      jump\t// in\n    tag_455:\n        /* \"#utility.yul\":17104:17178   */\n      swap2\n      pop\n        /* \"#utility.yul\":17187:17280   */\n      tag_456\n        /* \"#utility.yul\":17276:17279   */\n      dup3\n        /* \"#utility.yul\":17187:17280   */\n      tag_274\n      jump\t// in\n    tag_456:\n        /* \"#utility.yul\":17305:17307   */\n      0x20\n        /* \"#utility.yul\":17300:17303   */\n      dup3\n        /* \"#utility.yul\":17296:17308   */\n      add\n        /* \"#utility.yul\":17289:17308   */\n      swap1\n      pop\n        /* \"#utility.yul\":16948:17314   */\n      swap2\n      swap1\n      pop\n      jump\t// out\n        /* \"#utility.yul\":17320:17739   */\n    tag_149:\n        /* \"#utility.yul\":17486:17490   */\n      0x00\n        /* \"#utility.yul\":17524:17526   */\n      0x20\n        /* \"#utility.yul\":17513:17522   */\n      dup3\n        /* \"#utility.yul\":17509:17527   */\n      add\n        /* \"#utility.yul\":17501:17527   */\n      swap1\n      pop\n        /* \"#utility.yul\":17573:17582   */\n      dup2\n        /* \"#utility.yul\":17567:17571   */\n      dup2\n        /* \"#utility.yul\":17563:17583   */\n      sub\n        /* \"#utility.yul\":17559:17560   */\n      0x00\n        /* \"#utility.yul\":17548:17557   */\n      dup4\n        /* \"#utility.yul\":17544:17561   */\n      add\n        /* \"#utility.yul\":17537:17584   */\n      mstore\n        /* \"#utility.yul\":17601:17732   */\n      tag_458\n        /* \"#utility.yul\":17727:17731   */\n      dup2\n        /* \"#utility.yul\":17601:17732   */\n      tag_275\n      jump\t// in\n    tag_458:\n        /* \"#utility.yul\":17593:17732   */\n      swap1\n      pop\n        /* \"#utility.yul\":17320:17739   */\n      swap2\n      swap1\n      pop\n      jump\t// out\n        /* \"#utility.yul\":17745:17893   */\n    tag_276:\n        /* \"#utility.yul\":17847:17858   */\n      0x00\n        /* \"#utility.yul\":17884:17887   */\n      dup2\n        /* \"#utility.yul\":17869:17887   */\n      swap1\n      pop\n        /* \"#utility.yul\":17745:17893   */\n      swap3\n      swap2\n      pop\n      pop\n      jump\t// out\n        /* \"#utility.yul\":17899:18289   */\n    tag_277:\n        /* \"#utility.yul\":18005:18008   */\n      0x00\n        /* \"#utility.yul\":18033:18072   */\n      tag_461\n        /* \"#utility.yul\":18066:18071   */\n      dup3\n        /* \"#utility.yul\":18033:18072   */\n      tag_237\n      jump\t// in\n    tag_461:\n        /* \"#utility.yul\":18088:18177   */\n      tag_462\n        /* \"#utility.yul\":18170:18176   */\n      dup2\n        /* \"#utility.yul\":18165:18168   */\n      dup6\n        /* \"#utility.yul\":18088:18177   */\n      tag_276\n      jump\t// in\n    tag_462:\n        /* \"#utility.yul\":18081:18177   */\n      swap4\n      pop\n        /* \"#utility.yul\":18186:18251   */\n      tag_463\n        /* \"#utility.yul\":18244:18250   */\n      dup2\n        /* \"#utility.yul\":18239:18242   */\n      dup6\n        /* \"#utility.yul\":18232:18236   */\n      0x20\n        /* \"#utility.yul\":18225:18230   */\n      dup7\n        /* \"#utility.yul\":18221:18237   */\n      add\n        /* \"#utility.yul\":18186:18251   */\n      tag_239\n      jump\t// in\n    tag_463:\n        /* \"#utility.yul\":18276:18282   */\n      dup1\n        /* \"#utility.yul\":18271:18274   */\n      dup5\n        /* \"#utility.yul\":18267:18283   */\n      add\n        /* \"#utility.yul\":18260:18283   */\n      swap2\n      pop\n        /* \"#utility.yul\":18009:18289   */\n      pop\n        /* \"#utility.yul\":17899:18289   */\n      swap3\n      swap2\n      pop\n      pop\n      jump\t// out\n        /* \"#utility.yul\":18295:18730   */\n    tag_157:\n        /* \"#utility.yul\":18475:18478   */\n      0x00\n        /* \"#utility.yul\":18497:18592   */\n      tag_465\n        /* \"#utility.yul\":18588:18591   */\n      dup3\n        /* \"#utility.yul\":18579:18585   */\n      dup6\n        /* \"#utility.yul\":18497:18592   */\n      tag_277\n      jump\t// in\n    tag_465:\n        /* \"#utility.yul\":18490:18592   */\n      swap2\n      pop\n        /* \"#utility.yul\":18609:18704   */\n      tag_466\n        /* \"#utility.yul\":18700:18703   */\n      dup3\n        /* \"#utility.yul\":18691:18697   */\n      dup5\n        /* \"#utility.yul\":18609:18704   */\n      tag_277\n      jump\t// in\n    tag_466:\n        /* \"#utility.yul\":18602:18704   */\n      swap2\n      pop\n        /* \"#utility.yul\":18721:18724   */\n      dup2\n        /* \"#utility.yul\":18714:18724   */\n      swap1\n      pop\n        /* \"#utility.yul\":18295:18730   */\n      swap4\n      swap3\n      pop\n      pop\n      pop\n      jump\t// out\n        /* \"#utility.yul\":18736:18895   */\n    tag_278:\n        /* \"#utility.yul\":18876:18887   */\n      0x6e6f74206f776e65720000000000000000000000000000000000000000000000\n        /* \"#utility.yul\":18872:18873   */\n      0x00\n        /* \"#utility.yul\":18864:18870   */\n      dup3\n        /* \"#utility.yul\":18860:18874   */\n      add\n        /* \"#utility.yul\":18853:18888   */\n      mstore\n        /* \"#utility.yul\":18736:18895   */\n      pop\n      jump\t// out\n        /* \"#utility.yul\":18901:19266   */\n    tag_279:\n        /* \"#utility.yul\":19043:19046   */\n      0x00\n        /* \"#utility.yul\":19064:19130   */\n      tag_469\n        /* \"#utility.yul\":19128:19129   */\n      0x09\n        /* \"#utility.yul\":19123:19126   */\n      dup4\n        /* \"#utility.yul\":19064:19130   */\n      tag_238\n      jump\t// in\n    tag_469:\n        /* \"#utility.yul\":19057:19130   */\n      swap2\n      pop\n        /* \"#utility.yul\":19139:19232   */\n      tag_470\n        /* \"#utility.yul\":19228:19231   */\n      dup3\n        /* \"#utility.yul\":19139:19232   */\n      tag_278\n      jump\t// in\n    tag_470:\n        /* \"#utility.yul\":19257:19259   */\n      0x20\n        /* \"#utility.yul\":19252:19255   */\n      dup3\n        /* \"#utility.yul\":19248:19260   */\n      add\n        /* \"#utility.yul\":19241:19260   */\n      swap1\n      pop\n        /* \"#utility.yul\":18901:19266   */\n      swap2\n      swap1\n      pop\n      jump\t// out\n        /* \"#utility.yul\":19272:19691   */\n    tag_166:\n        /* \"#utility.yul\":19438:19442   */\n      0x00\n        /* \"#utility.yul\":19476:19478   */\n      0x20\n        /* \"#utility.yul\":19465:19474   */\n      dup3\n        /* \"#utility.yul\":19461:19479   */\n      add\n        /* \"#utility.yul\":19453:19479   */\n      swap1\n      pop\n        /* \"#utility.yul\":19525:19534   */\n      dup2\n        /* \"#utility.yul\":19519:19523   */\n      dup2\n        /* \"#utility.yul\":19515:19535   */\n      sub\n        /* \"#utility.yul\":19511:19512   */\n      0x00\n        /* \"#utility.yul\":19500:19509   */\n      dup4\n        /* \"#utility.yul\":19496:19513   */\n      add\n        /* \"#utility.yul\":19489:19536   */\n      mstore\n        /* \"#utility.yul\":19553:19684   */\n      tag_472\n        /* \"#utility.yul\":19679:19683   */\n      dup2\n        /* \"#utility.yul\":19553:19684   */\n      tag_279\n      jump\t// in\n    tag_472:\n        /* \"#utility.yul\":19545:19684   */\n      swap1\n      pop\n        /* \"#utility.yul\":19272:19691   */\n      swap2\n      swap1\n      pop\n      jump\t// out\n        /* \"#utility.yul\":19697:19875   */\n    tag_280:\n        /* \"#utility.yul\":19837:19867   */\n      0x7472616e7366657220746f20746865207a65726f206164647265737300000000\n        /* \"#utility.yul\":19833:19834   */\n      0x00\n        /* \"#utility.yul\":19825:19831   */\n      dup3\n        /* \"#utility.yul\":19821:19835   */\n      add\n        /* \"#utility.yul\":19814:19868   */\n      mstore\n        /* \"#utility.yul\":19697:19875   */\n      pop\n      jump\t// out\n        /* \"#utility.yul\":19881:20247   */\n    tag_281:\n        /* \"#utility.yul\":20023:20026   */\n      0x00\n        /* \"#utility.yul\":20044:20111   */\n      tag_475\n        /* \"#utility.yul\":20108:20110   */\n      0x1c\n        /* \"#utility.yul\":20103:20106   */\n      dup4\n        /* \"#utility.yul\":20044:20111   */\n      tag_238\n      jump\t// in\n    tag_475:\n        /* \"#utility.yul\":20037:20111   */\n      swap2\n      pop\n        /* \"#utility.yul\":20120:20213   */\n      tag_476\n        /* \"#utility.yul\":20209:20212   */\n      dup3\n        /* \"#utility.yul\":20120:20213   */\n      tag_280\n      jump\t// in\n    tag_476:\n        /* \"#utility.yul\":20238:20240   */\n      0x20\n        /* \"#utility.yul\":20233:20236   */\n      dup3\n        /* \"#utility.yul\":20229:20241   */\n      add\n        /* \"#utility.yul\":20222:20241   */\n      swap1\n      pop\n        /* \"#utility.yul\":19881:20247   */\n      swap2\n      swap1\n      pop\n      jump\t// out\n        /* \"#utility.yul\":20253:20672   */\n    tag_169:\n        /* \"#utility.yul\":20419:20423   */\n      0x00\n        /* \"#utility.yul\":20457:20459   */\n      0x20\n        /* \"#utility.yul\":20446:20455   */\n      dup3\n        /* \"#utility.yul\":20442:20460   */\n      add\n        /* \"#utility.yul\":20434:20460   */\n      swap1\n      pop\n        /* \"#utility.yul\":20506:20515   */\n      dup2\n        /* \"#utility.yul\":20500:20504   */\n      dup2\n        /* \"#utility.yul\":20496:20516   */\n      sub\n        /* \"#utility.yul\":20492:20493   */\n      0x00\n        /* \"#utility.yul\":20481:20490   */\n      dup4\n        /* \"#utility.yul\":20477:20494   */\n      add\n        /* \"#utility.yul\":20470:20517   */\n      mstore\n        /* \"#utility.yul\":20534:20665   */\n      tag_478\n        /* \"#utility.yul\":20660:20664   */\n      dup2\n        /* \"#utility.yul\":20534:20665   */\n      tag_281\n      jump\t// in\n    tag_478:\n        /* \"#utility.yul\":20526:20665   */\n      swap1\n      pop\n        /* \"#utility.yul\":20253:20672   */\n      swap2\n      swap1\n      pop\n      jump\t// out\n        /* \"#utility.yul\":20678:20858   */\n    tag_282:\n        /* \"#utility.yul\":20726:20803   */\n      0x4e487b7100000000000000000000000000000000000000000000000000000000\n        /* \"#utility.yul\":20723:20724   */\n      0x00\n        /* \"#utility.yul\":20716:20804   */\n      mstore\n        /* \"#utility.yul\":20823:20827   */\n      0x11\n        /* \"#utility.yul\":20820:20821   */\n      0x04\n        /* \"#utility.yul\":20813:20828   */\n      mstore\n        /* \"#utility.yul\":20847:20851   */\n      0x24\n        /* \"#utility.yul\":20844:20845   */\n      0x00\n        /* \"#utility.yul\":20837:20852   */\n      revert\n        /* \"#utility.yul\":20864:21058   */\n    tag_172:\n        /* \"#utility.yul\":20904:20908   */\n      0x00\n        /* \"#utility.yul\":20924:20944   */\n      tag_481\n        /* \"#utility.yul\":20942:20943   */\n      dup3\n        /* \"#utility.yul\":20924:20944   */\n      tag_242\n      jump\t// in\n    tag_481:\n        /* \"#utility.yul\":20919:20944   */\n      swap2\n      pop\n        /* \"#utility.yul\":20958:20978   */\n      tag_482\n        /* \"#utility.yul\":20976:20977   */\n      dup4\n        /* \"#utility.yul\":20958:20978   */\n      tag_242\n      jump\t// in\n    tag_482:\n        /* \"#utility.yul\":20953:20978   */\n      swap3\n      pop\n        /* \"#utility.yul\":21002:21003   */\n      dup3\n        /* \"#utility.yul\":20999:21000   */\n      dup3\n        /* \"#utility.yul\":20995:21004   */\n      sub\n        /* \"#utility.yul\":20987:21004   */\n      swap1\n      pop\n        /* \"#utility.yul\":21026:21027   */\n      dup2\n        /* \"#utility.yul\":21020:21024   */\n      dup2\n        /* \"#utility.yul\":21017:21028   */\n      gt\n        /* \"#utility.yul\":21014:21051   */\n      iszero\n      tag_483\n      jumpi\n        /* \"#utility.yul\":21031:21049   */\n      tag_484\n      tag_282\n      jump\t// in\n    tag_484:\n        /* \"#utility.yul\":21014:21051   */\n    tag_483:\n        /* \"#utility.yul\":20864:21058   */\n      swap3\n      swap2\n      pop\n      pop\n      jump\t// out\n        /* \"#utility.yul\":21064:21255   */\n    tag_174:\n        /* \"#utility.yul\":21104:21107   */\n      0x00\n        /* \"#utility.yul\":21123:21143   */\n      tag_486\n        /* \"#utility.yul\":21141:21142   */\n      dup3\n        /* \"#utility.yul\":21123:21143   */\n      tag_242\n      jump\t// in\n    tag_486:\n        /* \"#utility.yul\":21118:21143   */\n      swap2\n      pop\n        /* \"#utility.yul\":21157:21177   */\n      tag_487\n        /* \"#utility.yul\":21175:21176   */\n      dup4\n        /* \"#utility.yul\":21157:21177   */\n      tag_242\n      jump\t// in\n    tag_487:\n        /* \"#utility.yul\":21152:21177   */\n      swap3\n      pop\n        /* \"#utility.yul\":21200:21201   */\n      dup3\n        /* \"#utility.yul\":21197:21198   */\n      dup3\n        /* \"#utility.yul\":21193:21202   */\n      add\n        /* \"#utility.yul\":21186:21202   */\n      swap1\n      pop\n        /* \"#utility.yul\":21221:21224   */\n      dup1\n        /* \"#utility.yul\":21218:21219   */\n      dup3\n        /* \"#utility.yul\":21215:21225   */\n      gt\n        /* \"#utility.yul\":21212:21248   */\n      iszero\n      tag_488\n      jumpi\n        /* \"#utility.yul\":21228:21246   */\n      tag_489\n      tag_282\n      jump\t// in\n    tag_489:\n        /* \"#utility.yul\":21212:21248   */\n    tag_488:\n        /* \"#utility.yul\":21064:21255   */\n      swap3\n      swap2\n      pop\n      pop\n      jump\t// out\n        /* \"#utility.yul\":21261:21431   */\n    tag_283:\n        /* \"#utility.yul\":21401:21423   */\n      0x6d696e7420746f207a65726f2061646472657373000000000000000000000000\n        /* \"#utility.yul\":21397:21398   */\n      0x00\n        /* \"#utility.yul\":21389:21395   */\n      dup3\n        /* \"#utility.yul\":21385:21399   */\n      add\n        /* \"#utility.yul\":21378:21424   */\n      mstore\n        /* \"#utility.yul\":21261:21431   */\n      pop\n      jump\t// out\n        /* \"#utility.yul\":21437:21803   */\n    tag_284:\n        /* \"#utility.yul\":21579:21582   */\n      0x00\n        /* \"#utility.yul\":21600:21667   */\n      tag_492\n        /* \"#utility.yul\":21664:21666   */\n      0x14\n        /* \"#utility.yul\":21659:21662   */\n      dup4\n        /* \"#utility.yul\":21600:21667   */\n      tag_238\n      jump\t// in\n    tag_492:\n        /* \"#utility.yul\":21593:21667   */\n      swap2\n      pop\n        /* \"#utility.yul\":21676:21769   */\n      tag_493\n        /* \"#utility.yul\":21765:21768   */\n      dup3\n        /* \"#utility.yul\":21676:21769   */\n      tag_283\n      jump\t// in\n    tag_493:\n        /* \"#utility.yul\":21794:21796   */\n      0x20\n        /* \"#utility.yul\":21789:21792   */\n      dup3\n        /* \"#utility.yul\":21785:21797   */\n      add\n        /* \"#utility.yul\":21778:21797   */\n      swap1\n      pop\n        /* \"#utility.yul\":21437:21803   */\n      swap2\n      swap1\n      pop\n      jump\t// out\n        /* \"#utility.yul\":21809:22228   */\n    tag_178:\n        /* \"#utility.yul\":21975:21979   */\n      0x00\n        /* \"#utility.yul\":22013:22015   */\n      0x20\n        /* \"#utility.yul\":22002:22011   */\n      dup3\n        /* \"#utility.yul\":21998:22016   */\n      add\n        /* \"#utility.yul\":21990:22016   */\n      swap1\n      pop\n        /* \"#utility.yul\":22062:22071   */\n      dup2\n        /* \"#utility.yul\":22056:22060   */\n      dup2\n        /* \"#utility.yul\":22052:22072   */\n      sub\n        /* \"#utility.yul\":22048:22049   */\n      0x00\n        /* \"#utility.yul\":22037:22046   */\n      dup4\n        /* \"#utility.yul\":22033:22050   */\n      add\n        /* \"#utility.yul\":22026:22073   */\n      mstore\n        /* \"#utility.yul\":22090:22221   */\n      tag_495\n        /* \"#utility.yul\":22216:22220   */\n      dup2\n        /* \"#utility.yul\":22090:22221   */\n      tag_284\n      jump\t// in\n    tag_495:\n        /* \"#utility.yul\":22082:22221   */\n      swap1\n      pop\n        /* \"#utility.yul\":21809:22228   */\n      swap2\n      swap1\n      pop\n      jump\t// out\n        /* \"#utility.yul\":22234:22404   */\n    tag_285:\n        /* \"#utility.yul\":22374:22396   */\n      0x746f6b656e20616c7265616479206d696e746564000000000000000000000000\n        /* \"#utility.yul\":22370:22371   */\n      0x00\n        /* \"#utility.yul\":22362:22368   */\n      dup3\n        /* \"#utility.yul\":22358:22372   */\n      add\n        /* \"#utility.yul\":22351:22397   */\n      mstore\n        /* \"#utility.yul\":22234:22404   */\n      pop\n      jump\t// out\n        /* \"#utility.yul\":22410:22776   */\n    tag_286:\n        /* \"#utility.yul\":22552:22555   */\n      0x00\n        /* \"#utility.yul\":22573:22640   */\n      tag_498\n        /* \"#utility.yul\":22637:22639   */\n      0x14\n        /* \"#utility.yul\":22632:22635   */\n      dup4\n        /* \"#utility.yul\":22573:22640   */\n      tag_238\n      jump\t// in\n    tag_498:\n        /* \"#utility.yul\":22566:22640   */\n      swap2\n      pop\n        /* \"#utility.yul\":22649:22742   */\n      tag_499\n        /* \"#utility.yul\":22738:22741   */\n      dup3\n        /* \"#utility.yul\":22649:22742   */\n      tag_285\n      jump\t// in\n    tag_499:\n        /* \"#utility.yul\":22767:22769   */\n      0x20\n        /* \"#utility.yul\":22762:22765   */\n      dup3\n        /* \"#utility.yul\":22758:22770   */\n      add\n        /* \"#utility.yul\":22751:22770   */\n      swap1\n      pop\n        /* \"#utility.yul\":22410:22776   */\n      swap2\n      swap1\n      pop\n      jump\t// out\n        /* \"#utility.yul\":22782:23201   */\n    tag_181:\n        /* \"#utility.yul\":22948:22952   */\n      0x00\n        /* \"#utility.yul\":22986:22988   */\n      0x20\n        /* \"#utility.yul\":22975:22984   */\n      dup3\n        /* \"#utility.yul\":22971:22989   */\n      add\n        /* \"#utility.yul\":22963:22989   */\n      swap1\n      pop\n        /* \"#utility.yul\":23035:23044   */\n      dup2\n        /* \"#utility.yul\":23029:23033   */\n      dup2\n        /* \"#utility.yul\":23025:23045   */\n      sub\n        /* \"#utility.yul\":23021:23022   */\n      0x00\n        /* \"#utility.yul\":23010:23019   */\n      dup4\n        /* \"#utility.yul\":23006:23023   */\n      add\n        /* \"#utility.yul\":22999:23046   */\n      mstore\n        /* \"#utility.yul\":23063:23194   */\n      tag_501\n        /* \"#utility.yul\":23189:23193   */\n      dup2\n        /* \"#utility.yul\":23063:23194   */\n      tag_286\n      jump\t// in\n    tag_501:\n        /* \"#utility.yul\":23055:23194   */\n      swap1\n      pop\n        /* \"#utility.yul\":22782:23201   */\n      swap2\n      swap1\n      pop\n      jump\t// out\n        /* \"#utility.yul\":23207:23440   */\n    tag_193:\n        /* \"#utility.yul\":23246:23249   */\n      0x00\n        /* \"#utility.yul\":23269:23293   */\n      tag_503\n        /* \"#utility.yul\":23287:23292   */\n      dup3\n        /* \"#utility.yul\":23269:23293   */\n      tag_242\n      jump\t// in\n    tag_503:\n        /* \"#utility.yul\":23260:23293   */\n      swap2\n      pop\n        /* \"#utility.yul\":23315:23381   */\n      0xffffffffffffffffffffffffffffffffffffffffffffffffffffffffffffffff\n        /* \"#utility.yul\":23308:23313   */\n      dup3\n        /* \"#utility.yul\":23305:23382   */\n      sub\n        /* \"#utility.yul\":23302:23405   */\n      tag_504\n      jumpi\n        /* \"#utility.yul\":23385:23403   */\n      tag_505\n      tag_282\n      jump\t// in\n    tag_505:\n        /* \"#utility.yul\":23302:23405   */\n    tag_504:\n        /* \"#utility.yul\":23432:23433   */\n      0x01\n        /* \"#utility.yul\":23425:23430   */\n      dup3\n        /* \"#utility.yul\":23421:23434   */\n      add\n        /* \"#utility.yul\":23414:23434   */\n      swap1\n      pop\n        /* \"#utility.yul\":23207:23440   */\n      swap2\n      swap1\n      pop\n      jump\t// out\n        /* \"#utility.yul\":23446:23626   */\n    tag_287:\n        /* \"#utility.yul\":23494:23571   */\n      0x4e487b7100000000000000000000000000000000000000000000000000000000\n        /* \"#utility.yul\":23491:23492   */\n      0x00\n        /* \"#utility.yul\":23484:23572   */\n      mstore\n        /* \"#utility.yul\":23591:23595   */\n      0x12\n        /* \"#utility.yul\":23588:23589   */\n      0x04\n        /* \"#utility.yul\":23581:23596   */\n      mstore\n        /* \"#utility.yul\":23615:23619   */\n      0x24\n        /* \"#utility.yul\":23612:23613   */\n      0x00\n        /* \"#utility.yul\":23605:23620   */\n      revert\n        /* \"#utility.yul\":23632:23817   */\n    tag_195:\n        /* \"#utility.yul\":23672:23673   */\n      0x00\n        /* \"#utility.yul\":23689:23709   */\n      tag_508\n        /* \"#utility.yul\":23707:23708   */\n      dup3\n        /* \"#utility.yul\":23689:23709   */\n      tag_242\n      jump\t// in\n    tag_508:\n        /* \"#utility.yul\":23684:23709   */\n      swap2\n      pop\n        /* \"#utility.yul\":23723:23743   */\n      tag_509\n        /* \"#utility.yul\":23741:23742   */\n      dup4\n        /* \"#utility.yul\":23723:23743   */\n      tag_242\n      jump\t// in\n    tag_509:\n        /* \"#utility.yul\":23718:23743   */\n      swap3\n      pop\n        /* \"#utility.yul\":23762:23763   */\n      dup3\n        /* \"#utility.yul\":23752:23787   */\n      tag_510\n      jumpi\n        /* \"#utility.yul\":23767:23785   */\n      tag_511\n      tag_287\n      jump\t// in\n    tag_511:\n        /* \"#utility.yul\":23752:23787   */\n    tag_510:\n        /* \"#utility.yul\":23809:23810   */\n      dup3\n        /* \"#utility.yul\":23806:23807   */\n      dup3\n        /* \"#utility.yul\":23802:23811   */\n      div\n        /* \"#utility.yul\":23797:23811   */\n      swap1\n      pop\n        /* \"#utility.yul\":23632:23817   */\n      swap3\n      swap2\n      pop\n      pop\n      jump\t// out\n        /* \"#utility.yul\":23823:23999   */\n    tag_204:\n        /* \"#utility.yul\":23855:23856   */\n      0x00\n        /* \"#utility.yul\":23872:23892   */\n      tag_513\n        /* \"#utility.yul\":23890:23891   */\n      dup3\n        /* \"#utility.yul\":23872:23892   */\n      tag_242\n      jump\t// in\n    tag_513:\n        /* \"#utility.yul\":23867:23892   */\n      swap2\n      pop\n        /* \"#utility.yul\":23906:23926   */\n      tag_514\n        /* \"#utility.yul\":23924:23925   */\n      dup4\n        /* \"#utility.yul\":23906:23926   */\n      tag_242\n      jump\t// in\n    tag_514:\n        /* \"#utility.yul\":23901:23926   */\n      swap3\n      pop\n        /* \"#utility.yul\":23945:23946   */\n      dup3\n        /* \"#utility.yul\":23935:23970   */\n      tag_515\n      jumpi\n        /* \"#utility.yul\":23950:23968   */\n      tag_516\n      tag_287\n      jump\t// in\n    tag_516:\n        /* \"#utility.yul\":23935:23970   */\n    tag_515:\n        /* \"#utility.yul\":23991:23992   */\n      dup3\n        /* \"#utility.yul\":23988:23989   */\n      dup3\n        /* \"#utility.yul\":23984:23993   */\n      mod\n        /* \"#utility.yul\":23979:23993   */\n      swap1\n      pop\n        /* \"#utility.yul\":23823:23999   */\n      swap3\n      swap2\n      pop\n      pop\n      jump\t// out\n        /* \"#utility.yul\":24005:24185   */\n    tag_208:\n        /* \"#utility.yul\":24053:24130   */\n      0x4e487b7100000000000000000000000000000000000000000000000000000000\n        /* \"#utility.yul\":24050:24051   */\n      0x00\n        /* \"#utility.yul\":24043:24131   */\n      mstore\n        /* \"#utility.yul\":24150:24154   */\n      0x32\n        /* \"#utility.yul\":24147:24148   */\n      0x04\n        /* \"#utility.yul\":24140:24155   */\n      mstore\n        /* \"#utility.yul\":24174:24178   */\n      0x24\n        /* \"#utility.yul\":24171:24172   */\n      0x00\n        /* \"#utility.yul\":24164:24179   */\n      revert\n        /* \"#utility.yul\":24191:24289   */\n    tag_288:\n        /* \"#utility.yul\":24242:24248   */\n      0x00\n        /* \"#utility.yul\":24276:24281   */\n      dup2\n        /* \"#utility.yul\":24270:24282   */\n      mload\n        /* \"#utility.yul\":24260:24282   */\n      swap1\n      pop\n        /* \"#utility.yul\":24191:24289   */\n      swap2\n      swap1\n      pop\n      jump\t// out\n        /* \"#utility.yul\":24295:24463   */\n    tag_289:\n        /* \"#utility.yul\":24378:24389   */\n      0x00\n        /* \"#utility.yul\":24412:24418   */\n      dup3\n        /* \"#utility.yul\":24407:24410   */\n      dup3\n        /* \"#utility.yul\":24400:24419   */\n      mstore\n        /* \"#utility.yul\":24452:24456   */\n      0x20\n        /* \"#utility.yul\":24447:24450   */\n      dup3\n        /* \"#utility.yul\":24443:24457   */\n      add\n        /* \"#utility.yul\":24428:24457   */\n      swap1\n      pop\n        /* \"#utility.yul\":24295:24463   */\n      swap3\n      swap2\n      pop\n      pop\n      jump\t// out\n        /* \"#utility.yul\":24469:24842   */\n    tag_290:\n        /* \"#utility.yul\":24555:24558   */\n      0x00\n        /* \"#utility.yul\":24583:24621   */\n      tag_521\n        /* \"#utility.yul\":24615:24620   */\n      dup3\n        /* \"#utility.yul\":24583:24621   */\n      tag_288\n      jump\t// in\n    tag_521:\n        /* \"#utility.yul\":24637:24707   */\n      tag_522\n        /* \"#utility.yul\":24700:24706   */\n      dup2\n        /* \"#utility.yul\":24695:24698   */\n      dup6\n        /* \"#utility.yul\":24637:24707   */\n      tag_289\n      jump\t// in\n    tag_522:\n        /* \"#utility.yul\":24630:24707   */\n      swap4\n      pop\n        /* \"#utility.yul\":24716:24781   */\n      tag_523\n        /* \"#utility.yul\":24774:24780   */\n      dup2\n        /* \"#utility.yul\":24769:24772   */\n      dup6\n        /* \"#utility.yul\":24762:24766   */\n      0x20\n        /* \"#utility.yul\":24755:24760   */\n      dup7\n        /* \"#utility.yul\":24751:24767   */\n      add\n        /* \"#utility.yul\":24716:24781   */\n      tag_239\n      jump\t// in\n    tag_523:\n        /* \"#utility.yul\":24806:24835   */\n      tag_524\n        /* \"#utility.yul\":24828:24834   */\n      dup2\n        /* \"#utility.yul\":24806:24835   */\n      tag_240\n      jump\t// in\n    tag_524:\n        /* \"#utility.yul\":24801:24804   */\n      dup5\n        /* \"#utility.yul\":24797:24836   */\n      add\n        /* \"#utility.yul\":24790:24836   */\n      swap2\n      pop\n        /* \"#utility.yul\":24559:24842   */\n      pop\n        /* \"#utility.yul\":24469:24842   */\n      swap3\n      swap2\n      pop\n      pop\n      jump\t// out\n        /* \"#utility.yul\":24848:25488   */\n    tag_213:\n        /* \"#utility.yul\":25043:25047   */\n      0x00\n        /* \"#utility.yul\":25081:25084   */\n      0x80\n        /* \"#utility.yul\":25070:25079   */\n      dup3\n        /* \"#utility.yul\":25066:25085   */\n      add\n        /* \"#utility.yul\":25058:25085   */\n      swap1\n      pop\n        /* \"#utility.yul\":25095:25166   */\n      tag_526\n        /* \"#utility.yul\":25163:25164   */\n      0x00\n        /* \"#utility.yul\":25152:25161   */\n      dup4\n        /* \"#utility.yul\":25148:25165   */\n      add\n        /* \"#utility.yul\":25139:25145   */\n      dup8\n        /* \"#utility.yul\":25095:25166   */\n      tag_247\n      jump\t// in\n    tag_526:\n        /* \"#utility.yul\":25176:25248   */\n      tag_527\n        /* \"#utility.yul\":25244:25246   */\n      0x20\n        /* \"#utility.yul\":25233:25242   */\n      dup4\n        /* \"#utility.yul\":25229:25247   */\n      add\n        /* \"#utility.yul\":25220:25226   */\n      dup7\n        /* \"#utility.yul\":25176:25248   */\n      tag_247\n      jump\t// in\n    tag_527:\n        /* \"#utility.yul\":25258:25330   */\n      tag_528\n        /* \"#utility.yul\":25326:25328   */\n      0x40\n        /* \"#utility.yul\":25315:25324   */\n      dup4\n        /* \"#utility.yul\":25311:25329   */\n      add\n        /* \"#utility.yul\":25302:25308   */\n      dup6\n        /* \"#utility.yul\":25258:25330   */\n      tag_250\n      jump\t// in\n    tag_528:\n        /* \"#utility.yul\":25377:25386   */\n      dup2\n        /* \"#utility.yul\":25371:25375   */\n      dup2\n        /* \"#utility.yul\":25367:25387   */\n      sub\n        /* \"#utility.yul\":25362:25364   */\n      0x60\n        /* \"#utility.yul\":25351:25360   */\n      dup4\n        /* \"#utility.yul\":25347:25365   */\n      add\n        /* \"#utility.yul\":25340:25388   */\n      mstore\n        /* \"#utility.yul\":25405:25481   */\n      tag_529\n        /* \"#utility.yul\":25476:25480   */\n      dup2\n        /* \"#utility.yul\":25467:25473   */\n      dup5\n        /* \"#utility.yul\":25405:25481   */\n      tag_290\n      jump\t// in\n    tag_529:\n        /* \"#utility.yul\":25397:25481   */\n      swap1\n      pop\n        /* \"#utility.yul\":24848:25488   */\n      swap6\n      swap5\n      pop\n      pop\n      pop\n      pop\n      pop\n      jump\t// out\n        /* \"#utility.yul\":25494:25635   */\n    tag_291:\n        /* \"#utility.yul\":25550:25555   */\n      0x00\n        /* \"#utility.yul\":25581:25587   */\n      dup2\n        /* \"#utility.yul\":25575:25588   */\n      mload\n        /* \"#utility.yul\":25566:25588   */\n      swap1\n      pop\n        /* \"#utility.yul\":25597:25629   */\n      tag_531\n        /* \"#utility.yul\":25623:25628   */\n      dup2\n        /* \"#utility.yul\":25597:25629   */\n      tag_233\n      jump\t// in\n    tag_531:\n        /* \"#utility.yul\":25494:25635   */\n      swap3\n      swap2\n      pop\n      pop\n      jump\t// out\n        /* \"#utility.yul\":25641:25990   */\n    tag_216:\n        /* \"#utility.yul\":25710:25716   */\n      0x00\n        /* \"#utility.yul\":25759:25761   */\n      0x20\n        /* \"#utility.yul\":25747:25756   */\n      dup3\n        /* \"#utility.yul\":25738:25745   */\n      dup5\n        /* \"#utility.yul\":25734:25757   */\n      sub\n        /* \"#utility.yul\":25730:25762   */\n      slt\n        /* \"#utility.yul\":25727:25846   */\n      iszero\n      tag_533\n      jumpi\n        /* \"#utility.yul\":25765:25844   */\n      tag_534\n      tag_230\n      jump\t// in\n    tag_534:\n        /* \"#utility.yul\":25727:25846   */\n    tag_533:\n        /* \"#utility.yul\":25885:25886   */\n      0x00\n        /* \"#utility.yul\":25910:25973   */\n      tag_535\n        /* \"#utility.yul\":25965:25972   */\n      dup5\n        /* \"#utility.yul\":25956:25962   */\n      dup3\n        /* \"#utility.yul\":25945:25954   */\n      dup6\n        /* \"#utility.yul\":25941:25963   */\n      add\n        /* \"#utility.yul\":25910:25973   */\n      tag_291\n      jump\t// in\n    tag_535:\n        /* \"#utility.yul\":25900:25973   */\n      swap2\n      pop\n        /* \"#utility.yul\":25856:25983   */\n      pop\n        /* \"#utility.yul\":25641:25990   */\n      swap3\n      swap2\n      pop\n      pop\n      jump\t// out\n    stop\n    data_8382b382247cd07401a2ef2f394137c3f3b0972798bae0a9c78b0c261acbb56b 697066733a2f2f516d65536a53696e4870506e6d586d73704d6a776958794e367a533445397a63636172694752336a7863615774712f\n\n    auxdata: 0xa2646970667358221220fa3ce6b1f7aa90e4961ca672dbe79ec17cb32a75690387b1d7263ebd91c6966064736f6c634300081a0033\n}\n",
				"bytecode": {
					"linkReferences": {},
					"object": "6080604052612710600655348015610015575f80fd5b5060405161292d38038061292d833981810160405281019061003791906101ae565b8181815f90816100479190610431565b5080600190816100579190610431565b5050505050610500565b5f604051905090565b5f80fd5b5f80fd5b5f80fd5b5f80fd5b5f601f19601f8301169050919050565b7f4e487b71000000000000000000000000000000000000000000000000000000005f52604160045260245ffd5b6100c08261007a565b810181811067ffffffffffffffff821117156100df576100de61008a565b5b80604052505050565b5f6100f1610061565b90506100fd82826100b7565b919050565b5f67ffffffffffffffff82111561011c5761011b61008a565b5b6101258261007a565b9050602081019050919050565b8281835e5f83830152505050565b5f61015261014d84610102565b6100e8565b90508281526020810184848401111561016e5761016d610076565b5b610179848285610132565b509392505050565b5f82601f83011261019557610194610072565b5b81516101a5848260208601610140565b91505092915050565b5f80604083850312156101c4576101c361006a565b5b5f83015167ffffffffffffffff8111156101e1576101e061006e565b5b6101ed85828601610181565b925050602083015167ffffffffffffffff81111561020e5761020d61006e565b5b61021a85828601610181565b9150509250929050565b5f81519050919050565b7f4e487b71000000000000000000000000000000000000000000000000000000005f52602260045260245ffd5b5f600282049050600182168061027257607f821691505b6020821081036102855761028461022e565b5b50919050565b5f819050815f5260205f209050919050565b5f6020601f8301049050919050565b5f82821b905092915050565b5f600883026102e77fffffffffffffffffffffffffffffffffffffffffffffffffffffffffffffffff826102ac565b6102f186836102ac565b95508019841693508086168417925050509392505050565b5f819050919050565b5f819050919050565b5f61033561033061032b84610309565b610312565b610309565b9050919050565b5f819050919050565b61034e8361031b565b61036261035a8261033c565b8484546102b8565b825550505050565b5f90565b61037661036a565b610381818484610345565b505050565b5b818110156103a4576103995f8261036e565b600181019050610387565b5050565b601f8211156103e9576103ba8161028b565b6103c38461029d565b810160208510156103d2578190505b6103e66103de8561029d565b830182610386565b50505b505050565b5f82821c905092915050565b5f6104095f19846008026103ee565b1980831691505092915050565b5f61042183836103fa565b9150826002028217905092915050565b61043a82610224565b67ffffffffffffffff8111156104535761045261008a565b5b61045d825461025b565b6104688282856103a8565b5f60209050601f831160018114610499575f8415610487578287015190505b6104918582610416565b8655506104f8565b601f1984166104a78661028b565b5f5b828110156104ce578489015182556001820191506020850194506020810190506104a9565b868310156104eb57848901516104e7601f8916826103fa565b8355505b6001600288020188555050505b505050505050565b6124208061050d5f395ff3fe608060405234801561000f575f80fd5b50600436106100f3575f3560e01c80636352211e11610095578063b88d4fde11610064578063b88d4fde1461027f578063bb8a16bd1461029b578063c87b56dd146102b9578063e985e9c5146102e9576100f3565b80636352211e146101e557806370a082311461021557806395d89b4114610245578063a22cb46514610263576100f3565b8063095ea7b3116100d1578063095ea7b31461017557806323b872dd1461019157806340c10f19146101ad57806342842e0e146101c9576100f3565b806301ffc9a7146100f757806306fdde0314610127578063081812fc14610145575b5f80fd5b610111600480360381019061010c91906116ec565b610319565b60405161011e9190611731565b60405180910390f35b61012f610452565b60405161013c91906117ba565b60405180910390f35b61015f600480360381019061015a919061180d565b6104dd565b60405161016c9190611877565b60405180910390f35b61018f600480360381019061018a91906118ba565b6105b4565b005b6101ab60048036038101906101a691906118f8565b6106f2565b005b6101c760048036038101906101c291906118ba565b61075a565b005b6101e360048036038101906101de91906118f8565b6107b8565b005b6101ff60048036038101906101fa919061180d565b6107d7565b60405161020c9190611877565b60405180910390f35b61022f600480360381019061022a9190611948565b61087e565b60405161023c9190611982565b60405180910390f35b61024d610932565b60405161025a91906117ba565b60405180910390f35b61027d600480360381019061027891906119c5565b6109be565b005b61029960048036038101906102949190611b2f565b610b24565b005b6102a3610b8e565b6040516102b09190611982565b60405180910390f35b6102d360048036038101906102ce919061180d565b610b94565b6040516102e091906117ba565b60405180910390f35b61030360048036038101906102fe9190611baf565b610c8e565b6040516103109190611731565b60405180910390f35b5f7f80ac58cd000000000000000000000000000000000000000000000000000000007bffffffffffffffffffffffffffffffffffffffffffffffffffffffff1916827bffffffffffffffffffffffffffffffffffffffffffffffffffffffff191614806103e357507f01ffc9a7000000000000000000000000000000000000000000000000000000007bffffffffffffffffffffffffffffffffffffffffffffffffffffffff1916827bffffffffffffffffffffffffffffffffffffffffffffffffffffffff1916145b8061044b57507f5b5e139f000000000000000000000000000000000000000000000000000000007bffffffffffffffffffffffffffffffffffffffffffffffffffffffff1916827bffffffffffffffffffffffffffffffffffffffffffffffffffffffff1916145b9050919050565b5f805461045e90611c1a565b80601f016020809104026020016040519081016040528092919081815260200182805461048a90611c1a565b80156104d55780601f106104ac576101008083540402835291602001916104d5565b820191905f5260205f20905b8154815290600101906020018083116104b857829003601f168201915b505050505081565b5f8073ffffffffffffffffffffffffffffffffffffffff1660025f8481526020019081526020015f205f9054906101000a900473ffffffffffffffffffffffffffffffffffffffff1673ffffffffffffffffffffffffffffffffffffffff160361057c576040517f08c379a000000000000000000000000000000000000000000000000000000000815260040161057390611c94565b60405180910390fd5b60045f8381526020019081526020015f205f9054906101000a900473ffffffffffffffffffffffffffffffffffffffff169050919050565b5f60025f8381526020019081526020015f205f9054906101000a900473ffffffffffffffffffffffffffffffffffffffff1690508073ffffffffffffffffffffffffffffffffffffffff163373ffffffffffffffffffffffffffffffffffffffff1614806106a3575060055f8273ffffffffffffffffffffffffffffffffffffffff1673ffffffffffffffffffffffffffffffffffffffff1681526020019081526020015f205f3373ffffffffffffffffffffffffffffffffffffffff1673ffffffffffffffffffffffffffffffffffffffff1681526020019081526020015f205f9054906101000a900460ff165b6106e2576040517f08c379a00000000000000000000000000000000000000000000000000000000081526004016106d990611cfc565b60405180910390fd5b6106ed818484610d1c565b505050565b5f6106fc826107d7565b9050610709813384610dcb565b610748576040517f08c379a000000000000000000000000000000000000000000000000000000000815260040161073f90611d64565b60405180910390fd5b61075481858585610ef6565b50505050565b5f811015801561076b575060065481105b6107aa576040517f08c379a00000000000000000000000000000000000000000000000000000000081526004016107a190611dcc565b60405180910390fd5b6107b48282611135565b5050565b6107d283838360405180602001604052805f815250610b24565b505050565b5f60025f8381526020019081526020015f205f9054906101000a900473ffffffffffffffffffffffffffffffffffffffff1690505f73ffffffffffffffffffffffffffffffffffffffff168173ffffffffffffffffffffffffffffffffffffffff1603610879576040517f08c379a000000000000000000000000000000000000000000000000000000000815260040161087090611c94565b60405180910390fd5b919050565b5f8073ffffffffffffffffffffffffffffffffffffffff168273ffffffffffffffffffffffffffffffffffffffff16036108ed576040517f08c379a00000000000000000000000000000000000000000000000000000000081526004016108e490611e34565b60405180910390fd5b60035f8373ffffffffffffffffffffffffffffffffffffffff1673ffffffffffffffffffffffffffffffffffffffff1681526020019081526020015f20549050919050565b6001805461093f90611c1a565b80601f016020809104026020016040519081016040528092919081815260200182805461096b90611c1a565b80156109b65780601f1061098d576101008083540402835291602001916109b6565b820191905f5260205f20905b81548152906001019060200180831161099957829003601f168201915b505050505081565b3373ffffffffffffffffffffffffffffffffffffffff168273ffffffffffffffffffffffffffffffffffffffff1603610a2c576040517f08c379a0000000000000000000000000000000000000000000000000000000008152600401610a2390611ec2565b60405180910390fd5b8060055f3373ffffffffffffffffffffffffffffffffffffffff1673ffffffffffffffffffffffffffffffffffffffff1681526020019081526020015f205f8473ffffffffffffffffffffffffffffffffffffffff1673ffffffffffffffffffffffffffffffffffffffff1681526020019081526020015f205f6101000a81548160ff0219169083151502179055508173ffffffffffffffffffffffffffffffffffffffff163373ffffffffffffffffffffffffffffffffffffffff167f17307eab39ab6107e8899845ad3d59bd9653f200f220920489ca2b5937696c3183604051610b189190611731565b60405180910390a35050565b5f610b2e836107d7565b9050610b3b813385610dcb565b610b7a576040517f08c379a0000000000000000000000000000000000000000000000000000000008152600401610b7190611d64565b60405180910390fd5b610b878186868686611343565b5050505050565b60065481565b60605f73ffffffffffffffffffffffffffffffffffffffff1660025f8481526020019081526020015f205f9054906101000a900473ffffffffffffffffffffffffffffffffffffffff1673ffffffffffffffffffffffffffffffffffffffff1603610c34576040517f08c379a0000000000000000000000000000000000000000000000000000000008152600401610c2b90611f2a565b60405180910390fd5b5f610c3d611362565b90505f815111610c5b5760405180602001604052805f815250610c86565b80610c6584611382565b604051602001610c76929190611f82565b6040516020818303038152906040525b915050919050565b5f60055f8473ffffffffffffffffffffffffffffffffffffffff1673ffffffffffffffffffffffffffffffffffffffff1681526020019081526020015f205f8373ffffffffffffffffffffffffffffffffffffffff1673ffffffffffffffffffffffffffffffffffffffff1681526020019081526020015f205f9054906101000a900460ff16905092915050565b8160045f8381526020019081526020015f205f6101000a81548173ffffffffffffffffffffffffffffffffffffffff021916908373ffffffffffffffffffffffffffffffffffffffff160217905550808273ffffffffffffffffffffffffffffffffffffffff168473ffffffffffffffffffffffffffffffffffffffff167f8c5be1e5ebec7d5bd14f71427d1e84f3dd0314c0f7b2291e5b200ac8c7c3b92560405160405180910390a4505050565b5f8373ffffffffffffffffffffffffffffffffffffffff168373ffffffffffffffffffffffffffffffffffffffff161480610e6157508273ffffffffffffffffffffffffffffffffffffffff1660045f8481526020019081526020015f205f9054906101000a900473ffffffffffffffffffffffffffffffffffffffff1673ffffffffffffffffffffffffffffffffffffffff16145b80610eed575060055f8573ffffffffffffffffffffffffffffffffffffffff1673ffffffffffffffffffffffffffffffffffffffff1681526020019081526020015f205f8473ffffffffffffffffffffffffffffffffffffffff1673ffffffffffffffffffffffffffffffffffffffff1681526020019081526020015f205f9054906101000a900460ff165b90509392505050565b8373ffffffffffffffffffffffffffffffffffffffff168373ffffffffffffffffffffffffffffffffffffffff1614610f64576040517f08c379a0000000000000000000000000000000000000000000000000000000008152600401610f5b90611fef565b60405180910390fd5b5f73ffffffffffffffffffffffffffffffffffffffff168273ffffffffffffffffffffffffffffffffffffffff1603610fd2576040517f08c379a0000000000000000000000000000000000000000000000000000000008152600401610fc990612057565b60405180910390fd5b610fdd845f83610d1c565b600160035f8573ffffffffffffffffffffffffffffffffffffffff1673ffffffffffffffffffffffffffffffffffffffff1681526020019081526020015f205f82825461102a91906120a2565b92505081905550600160035f8473ffffffffffffffffffffffffffffffffffffffff1673ffffffffffffffffffffffffffffffffffffffff1681526020019081526020015f205f82825461107e91906120d5565b925050819055508160025f8381526020019081526020015f205f6101000a81548173ffffffffffffffffffffffffffffffffffffffff021916908373ffffffffffffffffffffffffffffffffffffffff160217905550808273ffffffffffffffffffffffffffffffffffffffff168473ffffffffffffffffffffffffffffffffffffffff167fddf252ad1be2c89b69c2b068fc378daa952ba7f163c4a11628f55a4df523b3ef60405160405180910390a450505050565b5f73ffffffffffffffffffffffffffffffffffffffff168273ffffffffffffffffffffffffffffffffffffffff16036111a3576040517f08c379a000000000000000000000000000000000000000000000000000000000815260040161119a90612152565b60405180910390fd5b5f73ffffffffffffffffffffffffffffffffffffffff1660025f8381526020019081526020015f205f9054906101000a900473ffffffffffffffffffffffffffffffffffffffff1673ffffffffffffffffffffffffffffffffffffffff1614611241576040517f08c379a0000000000000000000000000000000000000000000000000000000008152600401611238906121ba565b60405180910390fd5b600160035f8473ffffffffffffffffffffffffffffffffffffffff1673ffffffffffffffffffffffffffffffffffffffff1681526020019081526020015f205f82825461128e91906120d5565b925050819055508160025f8381526020019081526020015f205f6101000a81548173ffffffffffffffffffffffffffffffffffffffff021916908373ffffffffffffffffffffffffffffffffffffffff160217905550808273ffffffffffffffffffffffffffffffffffffffff165f73ffffffffffffffffffffffffffffffffffffffff167fddf252ad1be2c89b69c2b068fc378daa952ba7f163c4a11628f55a4df523b3ef60405160405180910390a45050565b61134f85858585610ef6565b61135b848484846114db565b5050505050565b60606040518060600160405280603681526020016123b560369139905090565b60605f82036113c8576040518060400160405280600181526020017f300000000000000000000000000000000000000000000000000000000000000081525090506114d6565b5f8290505f5b5f82146113f75780806113e0906121d8565b915050600a826113f0919061224c565b91506113ce565b5f8167ffffffffffffffff81111561141257611411611a0b565b5b6040519080825280601f01601f1916602001820160405280156114445781602001600182028036833780820191505090505b5090505b5f85146114cf5760018261145c91906120a2565b9150600a8561146b919061227c565b603061147791906120d5565b60f81b81838151811061148d5761148c6122ac565b5b60200101907effffffffffffffffffffffffffffffffffffffffffffffffffffffffffffff191690815f1a905350600a856114c8919061224c565b9450611448565b8093505050505b919050565b5f8373ffffffffffffffffffffffffffffffffffffffff163b1115611680578273ffffffffffffffffffffffffffffffffffffffff1663150b7a02338685856040518563ffffffff1660e01b8152600401611539949392919061232b565b6020604051808303815f875af192505050801561157457506040513d601f19601f820116820180604052508101906115719190612389565b60015b6115f5573d805f81146115a2576040519150601f19603f3d011682016040523d82523d5f602084013e6115a7565b606091505b505f8151036115ed57836040517f64a0ae920000000000000000000000000000000000000000000000000000000081526004016115e49190611877565b60405180910390fd5b805181602001fd5b63150b7a0260e01b7bffffffffffffffffffffffffffffffffffffffffffffffffffffffff1916817bffffffffffffffffffffffffffffffffffffffffffffffffffffffff19161461167e57836040517f64a0ae920000000000000000000000000000000000000000000000000000000081526004016116759190611877565b60405180910390fd5b505b50505050565b5f604051905090565b5f80fd5b5f80fd5b5f7fffffffff0000000000000000000000000000000000000000000000000000000082169050919050565b6116cb81611697565b81146116d5575f80fd5b50565b5f813590506116e6816116c2565b92915050565b5f602082840312156117015761170061168f565b5b5f61170e848285016116d8565b91505092915050565b5f8115159050919050565b61172b81611717565b82525050565b5f6020820190506117445f830184611722565b92915050565b5f81519050919050565b5f82825260208201905092915050565b8281835e5f83830152505050565b5f601f19601f8301169050919050565b5f61178c8261174a565b6117968185611754565b93506117a6818560208601611764565b6117af81611772565b840191505092915050565b5f6020820190508181035f8301526117d28184611782565b905092915050565b5f819050919050565b6117ec816117da565b81146117f6575f80fd5b50565b5f81359050611807816117e3565b92915050565b5f602082840312156118225761182161168f565b5b5f61182f848285016117f9565b91505092915050565b5f73ffffffffffffffffffffffffffffffffffffffff82169050919050565b5f61186182611838565b9050919050565b61187181611857565b82525050565b5f60208201905061188a5f830184611868565b92915050565b61189981611857565b81146118a3575f80fd5b50565b5f813590506118b481611890565b92915050565b5f80604083850312156118d0576118cf61168f565b5b5f6118dd858286016118a6565b92505060206118ee858286016117f9565b9150509250929050565b5f805f6060848603121561190f5761190e61168f565b5b5f61191c868287016118a6565b935050602061192d868287016118a6565b925050604061193e868287016117f9565b9150509250925092565b5f6020828403121561195d5761195c61168f565b5b5f61196a848285016118a6565b91505092915050565b61197c816117da565b82525050565b5f6020820190506119955f830184611973565b92915050565b6119a481611717565b81146119ae575f80fd5b50565b5f813590506119bf8161199b565b92915050565b5f80604083850312156119db576119da61168f565b5b5f6119e8858286016118a6565b92505060206119f9858286016119b1565b9150509250929050565b5f80fd5b5f80fd5b7f4e487b71000000000000000000000000000000000000000000000000000000005f52604160045260245ffd5b611a4182611772565b810181811067ffffffffffffffff82111715611a6057611a5f611a0b565b5b80604052505050565b5f611a72611686565b9050611a7e8282611a38565b919050565b5f67ffffffffffffffff821115611a9d57611a9c611a0b565b5b611aa682611772565b9050602081019050919050565b828183375f83830152505050565b5f611ad3611ace84611a83565b611a69565b905082815260208101848484011115611aef57611aee611a07565b5b611afa848285611ab3565b509392505050565b5f82601f830112611b1657611b15611a03565b5b8135611b26848260208601611ac1565b91505092915050565b5f805f8060808587031215611b4757611b4661168f565b5b5f611b54878288016118a6565b9450506020611b65878288016118a6565b9350506040611b76878288016117f9565b925050606085013567ffffffffffffffff811115611b9757611b96611693565b5b611ba387828801611b02565b91505092959194509250565b5f8060408385031215611bc557611bc461168f565b5b5f611bd2858286016118a6565b9250506020611be3858286016118a6565b9150509250929050565b7f4e487b71000000000000000000000000000000000000000000000000000000005f52602260045260245ffd5b5f6002820490506001821680611c3157607f821691505b602082108103611c4457611c43611bed565b5b50919050565b7f746f6b656e20646f65736e2774206578697374000000000000000000000000005f82015250565b5f611c7e601383611754565b9150611c8982611c4a565b602082019050919050565b5f6020820190508181035f830152611cab81611c72565b9050919050565b7f6e6f74206f776e6572206e6f7220617070726f76656420666f7220616c6c00005f82015250565b5f611ce6601e83611754565b9150611cf182611cb2565b602082019050919050565b5f6020820190508181035f830152611d1381611cda565b9050919050565b7f6e6f74206f776e6572206e6f7220617070726f766564000000000000000000005f82015250565b5f611d4e601683611754565b9150611d5982611d1a565b602082019050919050565b5f6020820190508181035f830152611d7b81611d42565b9050919050565b7f746f6b656e4964206f7574206f662072616e67650000000000000000000000005f82015250565b5f611db6601483611754565b9150611dc182611d82565b602082019050919050565b5f6020820190508181035f830152611de381611daa565b9050919050565b7f6f776e6572203d207a65726f20616464726573730000000000000000000000005f82015250565b5f611e1e601483611754565b9150611e2982611dea565b602082019050919050565b5f6020820190508181035f830152611e4b81611e12565b9050919050565b7f4552433732312063616e277420617070726f766520666f7220796f757273656c5f8201527f6600000000000000000000000000000000000000000000000000000000000000602082015250565b5f611eac602183611754565b9150611eb782611e52565b604082019050919050565b5f6020820190508181035f830152611ed981611ea0565b9050919050565b7f546f6b656e204e6f7420457869737400000000000000000000000000000000005f82015250565b5f611f14600f83611754565b9150611f1f82611ee0565b602082019050919050565b5f6020820190508181035f830152611f4181611f08565b9050919050565b5f81905092915050565b5f611f5c8261174a565b611f668185611f48565b9350611f76818560208601611764565b80840191505092915050565b5f611f8d8285611f52565b9150611f998284611f52565b91508190509392505050565b7f6e6f74206f776e657200000000000000000000000000000000000000000000005f82015250565b5f611fd9600983611754565b9150611fe482611fa5565b602082019050919050565b5f6020820190508181035f83015261200681611fcd565b9050919050565b7f7472616e7366657220746f20746865207a65726f2061646472657373000000005f82015250565b5f612041601c83611754565b915061204c8261200d565b602082019050919050565b5f6020820190508181035f83015261206e81612035565b9050919050565b7f4e487b71000000000000000000000000000000000000000000000000000000005f52601160045260245ffd5b5f6120ac826117da565b91506120b7836117da565b92508282039050818111156120cf576120ce612075565b5b92915050565b5f6120df826117da565b91506120ea836117da565b925082820190508082111561210257612101612075565b5b92915050565b7f6d696e7420746f207a65726f20616464726573730000000000000000000000005f82015250565b5f61213c601483611754565b915061214782612108565b602082019050919050565b5f6020820190508181035f83015261216981612130565b9050919050565b7f746f6b656e20616c7265616479206d696e7465640000000000000000000000005f82015250565b5f6121a4601483611754565b91506121af82612170565b602082019050919050565b5f6020820190508181035f8301526121d181612198565b9050919050565b5f6121e2826117da565b91507fffffffffffffffffffffffffffffffffffffffffffffffffffffffffffffffff820361221457612213612075565b5b600182019050919050565b7f4e487b71000000000000000000000000000000000000000000000000000000005f52601260045260245ffd5b5f612256826117da565b9150612261836117da565b9250826122715761227061221f565b5b828204905092915050565b5f612286826117da565b9150612291836117da565b9250826122a1576122a061221f565b5b828206905092915050565b7f4e487b71000000000000000000000000000000000000000000000000000000005f52603260045260245ffd5b5f81519050919050565b5f82825260208201905092915050565b5f6122fd826122d9565b61230781856122e3565b9350612317818560208601611764565b61232081611772565b840191505092915050565b5f60808201905061233e5f830187611868565b61234b6020830186611868565b6123586040830185611973565b818103606083015261236a81846122f3565b905095945050505050565b5f81519050612383816116c2565b92915050565b5f6020828403121561239e5761239d61168f565b5b5f6123ab84828501612375565b9150509291505056fe697066733a2f2f516d65536a53696e4870506e6d586d73704d6a776958794e367a533445397a63636172694752336a7863615774712fa2646970667358221220fa3ce6b1f7aa90e4961ca672dbe79ec17cb32a75690387b1d7263ebd91c6966064736f6c634300081a0033",
					"opcodes": "PUSH1 0x80 PUSH1 0x40 MSTORE PUSH2 0x2710 PUSH1 0x6 SSTORE CALLVALUE DUP1 ISZERO PUSH2 0x15 JUMPI PUSH0 DUP1 REVERT JUMPDEST POP PUSH1 0x40 MLOAD PUSH2 0x292D CODESIZE SUB DUP1 PUSH2 0x292D DUP4 CODECOPY DUP2 DUP2 ADD PUSH1 0x40 MSTORE DUP2 ADD SWAP1 PUSH2 0x37 SWAP2 SWAP1 PUSH2 0x1AE JUMP JUMPDEST DUP2 DUP2 DUP2 PUSH0 SWAP1 DUP2 PUSH2 0x47 SWAP2 SWAP1 PUSH2 0x431 JUMP JUMPDEST POP DUP1 PUSH1 0x1 SWAP1 DUP2 PUSH2 0x57 SWAP2 SWAP1 PUSH2 0x431 JUMP JUMPDEST POP POP POP POP POP PUSH2 0x500 JUMP JUMPDEST PUSH0 PUSH1 0x40 MLOAD SWAP1 POP SWAP1 JUMP JUMPDEST PUSH0 DUP1 REVERT JUMPDEST PUSH0 DUP1 REVERT JUMPDEST PUSH0 DUP1 REVERT JUMPDEST PUSH0 DUP1 REVERT JUMPDEST PUSH0 PUSH1 0x1F NOT PUSH1 0x1F DUP4 ADD AND SWAP1 POP SWAP2 SWAP1 POP JUMP JUMPDEST PUSH32 0x4E487B7100000000000000000000000000000000000000000000000000000000 PUSH0 MSTORE PUSH1 0x41 PUSH1 0x4 MSTORE PUSH1 0x24 PUSH0 REVERT JUMPDEST PUSH2 0xC0 DUP3 PUSH2 0x7A JUMP JUMPDEST DUP2 ADD DUP2 DUP2 LT PUSH8 0xFFFFFFFFFFFFFFFF DUP3 GT OR ISZERO PUSH2 0xDF JUMPI PUSH2 0xDE PUSH2 0x8A JUMP JUMPDEST JUMPDEST DUP1 PUSH1 0x40 MSTORE POP POP POP JUMP JUMPDEST PUSH0 PUSH2 0xF1 PUSH2 0x61 JUMP JUMPDEST SWAP1 POP PUSH2 0xFD DUP3 DUP3 PUSH2 0xB7 JUMP JUMPDEST SWAP2 SWAP1 POP JUMP JUMPDEST PUSH0 PUSH8 0xFFFFFFFFFFFFFFFF DUP3 GT ISZERO PUSH2 0x11C JUMPI PUSH2 0x11B PUSH2 0x8A JUMP JUMPDEST JUMPDEST PUSH2 0x125 DUP3 PUSH2 0x7A JUMP JUMPDEST SWAP1 POP PUSH1 0x20 DUP2 ADD SWAP1 POP SWAP2 SWAP1 POP JUMP JUMPDEST DUP3 DUP2 DUP4 MCOPY PUSH0 DUP4 DUP4 ADD MSTORE POP POP POP JUMP JUMPDEST PUSH0 PUSH2 0x152 PUSH2 0x14D DUP5 PUSH2 0x102 JUMP JUMPDEST PUSH2 0xE8 JUMP JUMPDEST SWAP1 POP DUP3 DUP2 MSTORE PUSH1 0x20 DUP2 ADD DUP5 DUP5 DUP5 ADD GT ISZERO PUSH2 0x16E JUMPI PUSH2 0x16D PUSH2 0x76 JUMP JUMPDEST JUMPDEST PUSH2 0x179 DUP5 DUP3 DUP6 PUSH2 0x132 JUMP JUMPDEST POP SWAP4 SWAP3 POP POP POP JUMP JUMPDEST PUSH0 DUP3 PUSH1 0x1F DUP4 ADD SLT PUSH2 0x195 JUMPI PUSH2 0x194 PUSH2 0x72 JUMP JUMPDEST JUMPDEST DUP2 MLOAD PUSH2 0x1A5 DUP5 DUP3 PUSH1 0x20 DUP7 ADD PUSH2 0x140 JUMP JUMPDEST SWAP2 POP POP SWAP3 SWAP2 POP POP JUMP JUMPDEST PUSH0 DUP1 PUSH1 0x40 DUP4 DUP6 SUB SLT ISZERO PUSH2 0x1C4 JUMPI PUSH2 0x1C3 PUSH2 0x6A JUMP JUMPDEST JUMPDEST PUSH0 DUP4 ADD MLOAD PUSH8 0xFFFFFFFFFFFFFFFF DUP2 GT ISZERO PUSH2 0x1E1 JUMPI PUSH2 0x1E0 PUSH2 0x6E JUMP JUMPDEST JUMPDEST PUSH2 0x1ED DUP6 DUP3 DUP7 ADD PUSH2 0x181 JUMP JUMPDEST SWAP3 POP POP PUSH1 0x20 DUP4 ADD MLOAD PUSH8 0xFFFFFFFFFFFFFFFF DUP2 GT ISZERO PUSH2 0x20E JUMPI PUSH2 0x20D PUSH2 0x6E JUMP JUMPDEST JUMPDEST PUSH2 0x21A DUP6 DUP3 DUP7 ADD PUSH2 0x181 JUMP JUMPDEST SWAP2 POP POP SWAP3 POP SWAP3 SWAP1 POP JUMP JUMPDEST PUSH0 DUP2 MLOAD SWAP1 POP SWAP2 SWAP1 POP JUMP JUMPDEST PUSH32 0x4E487B7100000000000000000000000000000000000000000000000000000000 PUSH0 MSTORE PUSH1 0x22 PUSH1 0x4 MSTORE PUSH1 0x24 PUSH0 REVERT JUMPDEST PUSH0 PUSH1 0x2 DUP3 DIV SWAP1 POP PUSH1 0x1 DUP3 AND DUP1 PUSH2 0x272 JUMPI PUSH1 0x7F DUP3 AND SWAP2 POP JUMPDEST PUSH1 0x20 DUP3 LT DUP2 SUB PUSH2 0x285 JUMPI PUSH2 0x284 PUSH2 0x22E JUMP JUMPDEST JUMPDEST POP SWAP2 SWAP1 POP JUMP JUMPDEST PUSH0 DUP2 SWAP1 POP DUP2 PUSH0 MSTORE PUSH1 0x20 PUSH0 KECCAK256 SWAP1 POP SWAP2 SWAP1 POP JUMP JUMPDEST PUSH0 PUSH1 0x20 PUSH1 0x1F DUP4 ADD DIV SWAP1 POP SWAP2 SWAP1 POP JUMP JUMPDEST PUSH0 DUP3 DUP3 SHL SWAP1 POP SWAP3 SWAP2 POP POP JUMP JUMPDEST PUSH0 PUSH1 0x8 DUP4 MUL PUSH2 0x2E7 PUSH32 0xFFFFFFFFFFFFFFFFFFFFFFFFFFFFFFFFFFFFFFFFFFFFFFFFFFFFFFFFFFFFFFFF DUP3 PUSH2 0x2AC JUMP JUMPDEST PUSH2 0x2F1 DUP7 DUP4 PUSH2 0x2AC JUMP JUMPDEST SWAP6 POP DUP1 NOT DUP5 AND SWAP4 POP DUP1 DUP7 AND DUP5 OR SWAP3 POP POP POP SWAP4 SWAP3 POP POP POP JUMP JUMPDEST PUSH0 DUP2 SWAP1 POP SWAP2 SWAP1 POP JUMP JUMPDEST PUSH0 DUP2 SWAP1 POP SWAP2 SWAP1 POP JUMP JUMPDEST PUSH0 PUSH2 0x335 PUSH2 0x330 PUSH2 0x32B DUP5 PUSH2 0x309 JUMP JUMPDEST PUSH2 0x312 JUMP JUMPDEST PUSH2 0x309 JUMP JUMPDEST SWAP1 POP SWAP2 SWAP1 POP JUMP JUMPDEST PUSH0 DUP2 SWAP1 POP SWAP2 SWAP1 POP JUMP JUMPDEST PUSH2 0x34E DUP4 PUSH2 0x31B JUMP JUMPDEST PUSH2 0x362 PUSH2 0x35A DUP3 PUSH2 0x33C JUMP JUMPDEST DUP5 DUP5 SLOAD PUSH2 0x2B8 JUMP JUMPDEST DUP3 SSTORE POP POP POP POP JUMP JUMPDEST PUSH0 SWAP1 JUMP JUMPDEST PUSH2 0x376 PUSH2 0x36A JUMP JUMPDEST PUSH2 0x381 DUP2 DUP5 DUP5 PUSH2 0x345 JUMP JUMPDEST POP POP POP JUMP JUMPDEST JUMPDEST DUP2 DUP2 LT ISZERO PUSH2 0x3A4 JUMPI PUSH2 0x399 PUSH0 DUP3 PUSH2 0x36E JUMP JUMPDEST PUSH1 0x1 DUP2 ADD SWAP1 POP PUSH2 0x387 JUMP JUMPDEST POP POP JUMP JUMPDEST PUSH1 0x1F DUP3 GT ISZERO PUSH2 0x3E9 JUMPI PUSH2 0x3BA DUP2 PUSH2 0x28B JUMP JUMPDEST PUSH2 0x3C3 DUP5 PUSH2 0x29D JUMP JUMPDEST DUP2 ADD PUSH1 0x20 DUP6 LT ISZERO PUSH2 0x3D2 JUMPI DUP2 SWAP1 POP JUMPDEST PUSH2 0x3E6 PUSH2 0x3DE DUP6 PUSH2 0x29D JUMP JUMPDEST DUP4 ADD DUP3 PUSH2 0x386 JUMP JUMPDEST POP POP JUMPDEST POP POP POP JUMP JUMPDEST PUSH0 DUP3 DUP3 SHR SWAP1 POP SWAP3 SWAP2 POP POP JUMP JUMPDEST PUSH0 PUSH2 0x409 PUSH0 NOT DUP5 PUSH1 0x8 MUL PUSH2 0x3EE JUMP JUMPDEST NOT DUP1 DUP4 AND SWAP2 POP POP SWAP3 SWAP2 POP POP JUMP JUMPDEST PUSH0 PUSH2 0x421 DUP4 DUP4 PUSH2 0x3FA JUMP JUMPDEST SWAP2 POP DUP3 PUSH1 0x2 MUL DUP3 OR SWAP1 POP SWAP3 SWAP2 POP POP JUMP JUMPDEST PUSH2 0x43A DUP3 PUSH2 0x224 JUMP JUMPDEST PUSH8 0xFFFFFFFFFFFFFFFF DUP2 GT ISZERO PUSH2 0x453 JUMPI PUSH2 0x452 PUSH2 0x8A JUMP JUMPDEST JUMPDEST PUSH2 0x45D DUP3 SLOAD PUSH2 0x25B JUMP JUMPDEST PUSH2 0x468 DUP3 DUP3 DUP6 PUSH2 0x3A8 JUMP JUMPDEST PUSH0 PUSH1 0x20 SWAP1 POP PUSH1 0x1F DUP4 GT PUSH1 0x1 DUP2 EQ PUSH2 0x499 JUMPI PUSH0 DUP5 ISZERO PUSH2 0x487 JUMPI DUP3 DUP8 ADD MLOAD SWAP1 POP JUMPDEST PUSH2 0x491 DUP6 DUP3 PUSH2 0x416 JUMP JUMPDEST DUP7 SSTORE POP PUSH2 0x4F8 JUMP JUMPDEST PUSH1 0x1F NOT DUP5 AND PUSH2 0x4A7 DUP7 PUSH2 0x28B JUMP JUMPDEST PUSH0 JUMPDEST DUP3 DUP2 LT ISZERO PUSH2 0x4CE JUMPI DUP5 DUP10 ADD MLOAD DUP3 SSTORE PUSH1 0x1 DUP3 ADD SWAP2 POP PUSH1 0x20 DUP6 ADD SWAP5 POP PUSH1 0x20 DUP2 ADD SWAP1 POP PUSH2 0x4A9 JUMP JUMPDEST DUP7 DUP4 LT ISZERO PUSH2 0x4EB JUMPI DUP5 DUP10 ADD MLOAD PUSH2 0x4E7 PUSH1 0x1F DUP10 AND DUP3 PUSH2 0x3FA JUMP JUMPDEST DUP4 SSTORE POP JUMPDEST PUSH1 0x1 PUSH1 0x2 DUP9 MUL ADD DUP9 SSTORE POP POP POP JUMPDEST POP POP POP POP POP POP JUMP JUMPDEST PUSH2 0x2420 DUP1 PUSH2 0x50D PUSH0 CODECOPY PUSH0 RETURN INVALID PUSH1 0x80 PUSH1 0x40 MSTORE CALLVALUE DUP1 ISZERO PUSH2 0xF JUMPI PUSH0 DUP1 REVERT JUMPDEST POP PUSH1 0x4 CALLDATASIZE LT PUSH2 0xF3 JUMPI PUSH0 CALLDATALOAD PUSH1 0xE0 SHR DUP1 PUSH4 0x6352211E GT PUSH2 0x95 JUMPI DUP1 PUSH4 0xB88D4FDE GT PUSH2 0x64 JUMPI DUP1 PUSH4 0xB88D4FDE EQ PUSH2 0x27F JUMPI DUP1 PUSH4 0xBB8A16BD EQ PUSH2 0x29B JUMPI DUP1 PUSH4 0xC87B56DD EQ PUSH2 0x2B9 JUMPI DUP1 PUSH4 0xE985E9C5 EQ PUSH2 0x2E9 JUMPI PUSH2 0xF3 JUMP JUMPDEST DUP1 PUSH4 0x6352211E EQ PUSH2 0x1E5 JUMPI DUP1 PUSH4 0x70A08231 EQ PUSH2 0x215 JUMPI DUP1 PUSH4 0x95D89B41 EQ PUSH2 0x245 JUMPI DUP1 PUSH4 0xA22CB465 EQ PUSH2 0x263 JUMPI PUSH2 0xF3 JUMP JUMPDEST DUP1 PUSH4 0x95EA7B3 GT PUSH2 0xD1 JUMPI DUP1 PUSH4 0x95EA7B3 EQ PUSH2 0x175 JUMPI DUP1 PUSH4 0x23B872DD EQ PUSH2 0x191 JUMPI DUP1 PUSH4 0x40C10F19 EQ PUSH2 0x1AD JUMPI DUP1 PUSH4 0x42842E0E EQ PUSH2 0x1C9 JUMPI PUSH2 0xF3 JUMP JUMPDEST DUP1 PUSH4 0x1FFC9A7 EQ PUSH2 0xF7 JUMPI DUP1 PUSH4 0x6FDDE03 EQ PUSH2 0x127 JUMPI DUP1 PUSH4 0x81812FC EQ PUSH2 0x145 JUMPI JUMPDEST PUSH0 DUP1 REVERT JUMPDEST PUSH2 0x111 PUSH1 0x4 DUP1 CALLDATASIZE SUB DUP2 ADD SWAP1 PUSH2 0x10C SWAP2 SWAP1 PUSH2 0x16EC JUMP JUMPDEST PUSH2 0x319 JUMP JUMPDEST PUSH1 0x40 MLOAD PUSH2 0x11E SWAP2 SWAP1 PUSH2 0x1731 JUMP JUMPDEST PUSH1 0x40 MLOAD DUP1 SWAP2 SUB SWAP1 RETURN JUMPDEST PUSH2 0x12F PUSH2 0x452 JUMP JUMPDEST PUSH1 0x40 MLOAD PUSH2 0x13C SWAP2 SWAP1 PUSH2 0x17BA JUMP JUMPDEST PUSH1 0x40 MLOAD DUP1 SWAP2 SUB SWAP1 RETURN JUMPDEST PUSH2 0x15F PUSH1 0x4 DUP1 CALLDATASIZE SUB DUP2 ADD SWAP1 PUSH2 0x15A SWAP2 SWAP1 PUSH2 0x180D JUMP JUMPDEST PUSH2 0x4DD JUMP JUMPDEST PUSH1 0x40 MLOAD PUSH2 0x16C SWAP2 SWAP1 PUSH2 0x1877 JUMP JUMPDEST PUSH1 0x40 MLOAD DUP1 SWAP2 SUB SWAP1 RETURN JUMPDEST PUSH2 0x18F PUSH1 0x4 DUP1 CALLDATASIZE SUB DUP2 ADD SWAP1 PUSH2 0x18A SWAP2 SWAP1 PUSH2 0x18BA JUMP JUMPDEST PUSH2 0x5B4 JUMP JUMPDEST STOP JUMPDEST PUSH2 0x1AB PUSH1 0x4 DUP1 CALLDATASIZE SUB DUP2 ADD SWAP1 PUSH2 0x1A6 SWAP2 SWAP1 PUSH2 0x18F8 JUMP JUMPDEST PUSH2 0x6F2 JUMP JUMPDEST STOP JUMPDEST PUSH2 0x1C7 PUSH1 0x4 DUP1 CALLDATASIZE SUB DUP2 ADD SWAP1 PUSH2 0x1C2 SWAP2 SWAP1 PUSH2 0x18BA JUMP JUMPDEST PUSH2 0x75A JUMP JUMPDEST STOP JUMPDEST PUSH2 0x1E3 PUSH1 0x4 DUP1 CALLDATASIZE SUB DUP2 ADD SWAP1 PUSH2 0x1DE SWAP2 SWAP1 PUSH2 0x18F8 JUMP JUMPDEST PUSH2 0x7B8 JUMP JUMPDEST STOP JUMPDEST PUSH2 0x1FF PUSH1 0x4 DUP1 CALLDATASIZE SUB DUP2 ADD SWAP1 PUSH2 0x1FA SWAP2 SWAP1 PUSH2 0x180D JUMP JUMPDEST PUSH2 0x7D7 JUMP JUMPDEST PUSH1 0x40 MLOAD PUSH2 0x20C SWAP2 SWAP1 PUSH2 0x1877 JUMP JUMPDEST PUSH1 0x40 MLOAD DUP1 SWAP2 SUB SWAP1 RETURN JUMPDEST PUSH2 0x22F PUSH1 0x4 DUP1 CALLDATASIZE SUB DUP2 ADD SWAP1 PUSH2 0x22A SWAP2 SWAP1 PUSH2 0x1948 JUMP JUMPDEST PUSH2 0x87E JUMP JUMPDEST PUSH1 0x40 MLOAD PUSH2 0x23C SWAP2 SWAP1 PUSH2 0x1982 JUMP JUMPDEST PUSH1 0x40 MLOAD DUP1 SWAP2 SUB SWAP1 RETURN JUMPDEST PUSH2 0x24D PUSH2 0x932 JUMP JUMPDEST PUSH1 0x40 MLOAD PUSH2 0x25A SWAP2 SWAP1 PUSH2 0x17BA JUMP JUMPDEST PUSH1 0x40 MLOAD DUP1 SWAP2 SUB SWAP1 RETURN JUMPDEST PUSH2 0x27D PUSH1 0x4 DUP1 CALLDATASIZE SUB DUP2 ADD SWAP1 PUSH2 0x278 SWAP2 SWAP1 PUSH2 0x19C5 JUMP JUMPDEST PUSH2 0x9BE JUMP JUMPDEST STOP JUMPDEST PUSH2 0x299 PUSH1 0x4 DUP1 CALLDATASIZE SUB DUP2 ADD SWAP1 PUSH2 0x294 SWAP2 SWAP1 PUSH2 0x1B2F JUMP JUMPDEST PUSH2 0xB24 JUMP JUMPDEST STOP JUMPDEST PUSH2 0x2A3 PUSH2 0xB8E JUMP JUMPDEST PUSH1 0x40 MLOAD PUSH2 0x2B0 SWAP2 SWAP1 PUSH2 0x1982 JUMP JUMPDEST PUSH1 0x40 MLOAD DUP1 SWAP2 SUB SWAP1 RETURN JUMPDEST PUSH2 0x2D3 PUSH1 0x4 DUP1 CALLDATASIZE SUB DUP2 ADD SWAP1 PUSH2 0x2CE SWAP2 SWAP1 PUSH2 0x180D JUMP JUMPDEST PUSH2 0xB94 JUMP JUMPDEST PUSH1 0x40 MLOAD PUSH2 0x2E0 SWAP2 SWAP1 PUSH2 0x17BA JUMP JUMPDEST PUSH1 0x40 MLOAD DUP1 SWAP2 SUB SWAP1 RETURN JUMPDEST PUSH2 0x303 PUSH1 0x4 DUP1 CALLDATASIZE SUB DUP2 ADD SWAP1 PUSH2 0x2FE SWAP2 SWAP1 PUSH2 0x1BAF JUMP JUMPDEST PUSH2 0xC8E JUMP JUMPDEST PUSH1 0x40 MLOAD PUSH2 0x310 SWAP2 SWAP1 PUSH2 0x1731 JUMP JUMPDEST PUSH1 0x40 MLOAD DUP1 SWAP2 SUB SWAP1 RETURN JUMPDEST PUSH0 PUSH32 0x80AC58CD00000000000000000000000000000000000000000000000000000000 PUSH28 0xFFFFFFFFFFFFFFFFFFFFFFFFFFFFFFFFFFFFFFFFFFFFFFFFFFFFFFFF NOT AND DUP3 PUSH28 0xFFFFFFFFFFFFFFFFFFFFFFFFFFFFFFFFFFFFFFFFFFFFFFFFFFFFFFFF NOT AND EQ DUP1 PUSH2 0x3E3 JUMPI POP PUSH32 0x1FFC9A700000000000000000000000000000000000000000000000000000000 PUSH28 0xFFFFFFFFFFFFFFFFFFFFFFFFFFFFFFFFFFFFFFFFFFFFFFFFFFFFFFFF NOT AND DUP3 PUSH28 0xFFFFFFFFFFFFFFFFFFFFFFFFFFFFFFFFFFFFFFFFFFFFFFFFFFFFFFFF NOT AND EQ JUMPDEST DUP1 PUSH2 0x44B JUMPI POP PUSH32 0x5B5E139F00000000000000000000000000000000000000000000000000000000 PUSH28 0xFFFFFFFFFFFFFFFFFFFFFFFFFFFFFFFFFFFFFFFFFFFFFFFFFFFFFFFF NOT AND DUP3 PUSH28 0xFFFFFFFFFFFFFFFFFFFFFFFFFFFFFFFFFFFFFFFFFFFFFFFFFFFFFFFF NOT AND EQ JUMPDEST SWAP1 POP SWAP2 SWAP1 POP JUMP JUMPDEST PUSH0 DUP1 SLOAD PUSH2 0x45E SWAP1 PUSH2 0x1C1A JUMP JUMPDEST DUP1 PUSH1 0x1F ADD PUSH1 0x20 DUP1 SWAP2 DIV MUL PUSH1 0x20 ADD PUSH1 0x40 MLOAD SWAP1 DUP2 ADD PUSH1 0x40 MSTORE DUP1 SWAP3 SWAP2 SWAP1 DUP2 DUP2 MSTORE PUSH1 0x20 ADD DUP3 DUP1 SLOAD PUSH2 0x48A SWAP1 PUSH2 0x1C1A JUMP JUMPDEST DUP1 ISZERO PUSH2 0x4D5 JUMPI DUP1 PUSH1 0x1F LT PUSH2 0x4AC JUMPI PUSH2 0x100 DUP1 DUP4 SLOAD DIV MUL DUP4 MSTORE SWAP2 PUSH1 0x20 ADD SWAP2 PUSH2 0x4D5 JUMP JUMPDEST DUP3 ADD SWAP2 SWAP1 PUSH0 MSTORE PUSH1 0x20 PUSH0 KECCAK256 SWAP1 JUMPDEST DUP2 SLOAD DUP2 MSTORE SWAP1 PUSH1 0x1 ADD SWAP1 PUSH1 0x20 ADD DUP1 DUP4 GT PUSH2 0x4B8 JUMPI DUP3 SWAP1 SUB PUSH1 0x1F AND DUP3 ADD SWAP2 JUMPDEST POP POP POP POP POP DUP2 JUMP JUMPDEST PUSH0 DUP1 PUSH20 0xFFFFFFFFFFFFFFFFFFFFFFFFFFFFFFFFFFFFFFFF AND PUSH1 0x2 PUSH0 DUP5 DUP2 MSTORE PUSH1 0x20 ADD SWAP1 DUP2 MSTORE PUSH1 0x20 ADD PUSH0 KECCAK256 PUSH0 SWAP1 SLOAD SWAP1 PUSH2 0x100 EXP SWAP1 DIV PUSH20 0xFFFFFFFFFFFFFFFFFFFFFFFFFFFFFFFFFFFFFFFF AND PUSH20 0xFFFFFFFFFFFFFFFFFFFFFFFFFFFFFFFFFFFFFFFF AND SUB PUSH2 0x57C JUMPI PUSH1 0x40 MLOAD PUSH32 0x8C379A000000000000000000000000000000000000000000000000000000000 DUP2 MSTORE PUSH1 0x4 ADD PUSH2 0x573 SWAP1 PUSH2 0x1C94 JUMP JUMPDEST PUSH1 0x40 MLOAD DUP1 SWAP2 SUB SWAP1 REVERT JUMPDEST PUSH1 0x4 PUSH0 DUP4 DUP2 MSTORE PUSH1 0x20 ADD SWAP1 DUP2 MSTORE PUSH1 0x20 ADD PUSH0 KECCAK256 PUSH0 SWAP1 SLOAD SWAP1 PUSH2 0x100 EXP SWAP1 DIV PUSH20 0xFFFFFFFFFFFFFFFFFFFFFFFFFFFFFFFFFFFFFFFF AND SWAP1 POP SWAP2 SWAP1 POP JUMP JUMPDEST PUSH0 PUSH1 0x2 PUSH0 DUP4 DUP2 MSTORE PUSH1 0x20 ADD SWAP1 DUP2 MSTORE PUSH1 0x20 ADD PUSH0 KECCAK256 PUSH0 SWAP1 SLOAD SWAP1 PUSH2 0x100 EXP SWAP1 DIV PUSH20 0xFFFFFFFFFFFFFFFFFFFFFFFFFFFFFFFFFFFFFFFF AND SWAP1 POP DUP1 PUSH20 0xFFFFFFFFFFFFFFFFFFFFFFFFFFFFFFFFFFFFFFFF AND CALLER PUSH20 0xFFFFFFFFFFFFFFFFFFFFFFFFFFFFFFFFFFFFFFFF AND EQ DUP1 PUSH2 0x6A3 JUMPI POP PUSH1 0x5 PUSH0 DUP3 PUSH20 0xFFFFFFFFFFFFFFFFFFFFFFFFFFFFFFFFFFFFFFFF AND PUSH20 0xFFFFFFFFFFFFFFFFFFFFFFFFFFFFFFFFFFFFFFFF AND DUP2 MSTORE PUSH1 0x20 ADD SWAP1 DUP2 MSTORE PUSH1 0x20 ADD PUSH0 KECCAK256 PUSH0 CALLER PUSH20 0xFFFFFFFFFFFFFFFFFFFFFFFFFFFFFFFFFFFFFFFF AND PUSH20 0xFFFFFFFFFFFFFFFFFFFFFFFFFFFFFFFFFFFFFFFF AND DUP2 MSTORE PUSH1 0x20 ADD SWAP1 DUP2 MSTORE PUSH1 0x20 ADD PUSH0 KECCAK256 PUSH0 SWAP1 SLOAD SWAP1 PUSH2 0x100 EXP SWAP1 DIV PUSH1 0xFF AND JUMPDEST PUSH2 0x6E2 JUMPI PUSH1 0x40 MLOAD PUSH32 0x8C379A000000000000000000000000000000000000000000000000000000000 DUP2 MSTORE PUSH1 0x4 ADD PUSH2 0x6D9 SWAP1 PUSH2 0x1CFC JUMP JUMPDEST PUSH1 0x40 MLOAD DUP1 SWAP2 SUB SWAP1 REVERT JUMPDEST PUSH2 0x6ED DUP2 DUP5 DUP5 PUSH2 0xD1C JUMP JUMPDEST POP POP POP JUMP JUMPDEST PUSH0 PUSH2 0x6FC DUP3 PUSH2 0x7D7 JUMP JUMPDEST SWAP1 POP PUSH2 0x709 DUP2 CALLER DUP5 PUSH2 0xDCB JUMP JUMPDEST PUSH2 0x748 JUMPI PUSH1 0x40 MLOAD PUSH32 0x8C379A000000000000000000000000000000000000000000000000000000000 DUP2 MSTORE PUSH1 0x4 ADD PUSH2 0x73F SWAP1 PUSH2 0x1D64 JUMP JUMPDEST PUSH1 0x40 MLOAD DUP1 SWAP2 SUB SWAP1 REVERT JUMPDEST PUSH2 0x754 DUP2 DUP6 DUP6 DUP6 PUSH2 0xEF6 JUMP JUMPDEST POP POP POP POP JUMP JUMPDEST PUSH0 DUP2 LT ISZERO DUP1 ISZERO PUSH2 0x76B JUMPI POP PUSH1 0x6 SLOAD DUP2 LT JUMPDEST PUSH2 0x7AA JUMPI PUSH1 0x40 MLOAD PUSH32 0x8C379A000000000000000000000000000000000000000000000000000000000 DUP2 MSTORE PUSH1 0x4 ADD PUSH2 0x7A1 SWAP1 PUSH2 0x1DCC JUMP JUMPDEST PUSH1 0x40 MLOAD DUP1 SWAP2 SUB SWAP1 REVERT JUMPDEST PUSH2 0x7B4 DUP3 DUP3 PUSH2 0x1135 JUMP JUMPDEST POP POP JUMP JUMPDEST PUSH2 0x7D2 DUP4 DUP4 DUP4 PUSH1 0x40 MLOAD DUP1 PUSH1 0x20 ADD PUSH1 0x40 MSTORE DUP1 PUSH0 DUP2 MSTORE POP PUSH2 0xB24 JUMP JUMPDEST POP POP POP JUMP JUMPDEST PUSH0 PUSH1 0x2 PUSH0 DUP4 DUP2 MSTORE PUSH1 0x20 ADD SWAP1 DUP2 MSTORE PUSH1 0x20 ADD PUSH0 KECCAK256 PUSH0 SWAP1 SLOAD SWAP1 PUSH2 0x100 EXP SWAP1 DIV PUSH20 0xFFFFFFFFFFFFFFFFFFFFFFFFFFFFFFFFFFFFFFFF AND SWAP1 POP PUSH0 PUSH20 0xFFFFFFFFFFFFFFFFFFFFFFFFFFFFFFFFFFFFFFFF AND DUP2 PUSH20 0xFFFFFFFFFFFFFFFFFFFFFFFFFFFFFFFFFFFFFFFF AND SUB PUSH2 0x879 JUMPI PUSH1 0x40 MLOAD PUSH32 0x8C379A000000000000000000000000000000000000000000000000000000000 DUP2 MSTORE PUSH1 0x4 ADD PUSH2 0x870 SWAP1 PUSH2 0x1C94 JUMP JUMPDEST PUSH1 0x40 MLOAD DUP1 SWAP2 SUB SWAP1 REVERT JUMPDEST SWAP2 SWAP1 POP JUMP JUMPDEST PUSH0 DUP1 PUSH20 0xFFFFFFFFFFFFFFFFFFFFFFFFFFFFFFFFFFFFFFFF AND DUP3 PUSH20 0xFFFFFFFFFFFFFFFFFFFFFFFFFFFFFFFFFFFFFFFF AND SUB PUSH2 0x8ED JUMPI PUSH1 0x40 MLOAD PUSH32 0x8C379A000000000000000000000000000000000000000000000000000000000 DUP2 MSTORE PUSH1 0x4 ADD PUSH2 0x8E4 SWAP1 PUSH2 0x1E34 JUMP JUMPDEST PUSH1 0x40 MLOAD DUP1 SWAP2 SUB SWAP1 REVERT JUMPDEST PUSH1 0x3 PUSH0 DUP4 PUSH20 0xFFFFFFFFFFFFFFFFFFFFFFFFFFFFFFFFFFFFFFFF AND PUSH20 0xFFFFFFFFFFFFFFFFFFFFFFFFFFFFFFFFFFFFFFFF AND DUP2 MSTORE PUSH1 0x20 ADD SWAP1 DUP2 MSTORE PUSH1 0x20 ADD PUSH0 KECCAK256 SLOAD SWAP1 POP SWAP2 SWAP1 POP JUMP JUMPDEST PUSH1 0x1 DUP1 SLOAD PUSH2 0x93F SWAP1 PUSH2 0x1C1A JUMP JUMPDEST DUP1 PUSH1 0x1F ADD PUSH1 0x20 DUP1 SWAP2 DIV MUL PUSH1 0x20 ADD PUSH1 0x40 MLOAD SWAP1 DUP2 ADD PUSH1 0x40 MSTORE DUP1 SWAP3 SWAP2 SWAP1 DUP2 DUP2 MSTORE PUSH1 0x20 ADD DUP3 DUP1 SLOAD PUSH2 0x96B SWAP1 PUSH2 0x1C1A JUMP JUMPDEST DUP1 ISZERO PUSH2 0x9B6 JUMPI DUP1 PUSH1 0x1F LT PUSH2 0x98D JUMPI PUSH2 0x100 DUP1 DUP4 SLOAD DIV MUL DUP4 MSTORE SWAP2 PUSH1 0x20 ADD SWAP2 PUSH2 0x9B6 JUMP JUMPDEST DUP3 ADD SWAP2 SWAP1 PUSH0 MSTORE PUSH1 0x20 PUSH0 KECCAK256 SWAP1 JUMPDEST DUP2 SLOAD DUP2 MSTORE SWAP1 PUSH1 0x1 ADD SWAP1 PUSH1 0x20 ADD DUP1 DUP4 GT PUSH2 0x999 JUMPI DUP3 SWAP1 SUB PUSH1 0x1F AND DUP3 ADD SWAP2 JUMPDEST POP POP POP POP POP DUP2 JUMP JUMPDEST CALLER PUSH20 0xFFFFFFFFFFFFFFFFFFFFFFFFFFFFFFFFFFFFFFFF AND DUP3 PUSH20 0xFFFFFFFFFFFFFFFFFFFFFFFFFFFFFFFFFFFFFFFF AND SUB PUSH2 0xA2C JUMPI PUSH1 0x40 MLOAD PUSH32 0x8C379A000000000000000000000000000000000000000000000000000000000 DUP2 MSTORE PUSH1 0x4 ADD PUSH2 0xA23 SWAP1 PUSH2 0x1EC2 JUMP JUMPDEST PUSH1 0x40 MLOAD DUP1 SWAP2 SUB SWAP1 REVERT JUMPDEST DUP1 PUSH1 0x5 PUSH0 CALLER PUSH20 0xFFFFFFFFFFFFFFFFFFFFFFFFFFFFFFFFFFFFFFFF AND PUSH20 0xFFFFFFFFFFFFFFFFFFFFFFFFFFFFFFFFFFFFFFFF AND DUP2 MSTORE PUSH1 0x20 ADD SWAP1 DUP2 MSTORE PUSH1 0x20 ADD PUSH0 KECCAK256 PUSH0 DUP5 PUSH20 0xFFFFFFFFFFFFFFFFFFFFFFFFFFFFFFFFFFFFFFFF AND PUSH20 0xFFFFFFFFFFFFFFFFFFFFFFFFFFFFFFFFFFFFFFFF AND DUP2 MSTORE PUSH1 0x20 ADD SWAP1 DUP2 MSTORE PUSH1 0x20 ADD PUSH0 KECCAK256 PUSH0 PUSH2 0x100 EXP DUP2 SLOAD DUP2 PUSH1 0xFF MUL NOT AND SWAP1 DUP4 ISZERO ISZERO MUL OR SWAP1 SSTORE POP DUP2 PUSH20 0xFFFFFFFFFFFFFFFFFFFFFFFFFFFFFFFFFFFFFFFF AND CALLER PUSH20 0xFFFFFFFFFFFFFFFFFFFFFFFFFFFFFFFFFFFFFFFF AND PUSH32 0x17307EAB39AB6107E8899845AD3D59BD9653F200F220920489CA2B5937696C31 DUP4 PUSH1 0x40 MLOAD PUSH2 0xB18 SWAP2 SWAP1 PUSH2 0x1731 JUMP JUMPDEST PUSH1 0x40 MLOAD DUP1 SWAP2 SUB SWAP1 LOG3 POP POP JUMP JUMPDEST PUSH0 PUSH2 0xB2E DUP4 PUSH2 0x7D7 JUMP JUMPDEST SWAP1 POP PUSH2 0xB3B DUP2 CALLER DUP6 PUSH2 0xDCB JUMP JUMPDEST PUSH2 0xB7A JUMPI PUSH1 0x40 MLOAD PUSH32 0x8C379A000000000000000000000000000000000000000000000000000000000 DUP2 MSTORE PUSH1 0x4 ADD PUSH2 0xB71 SWAP1 PUSH2 0x1D64 JUMP JUMPDEST PUSH1 0x40 MLOAD DUP1 SWAP2 SUB SWAP1 REVERT JUMPDEST PUSH2 0xB87 DUP2 DUP7 DUP7 DUP7 DUP7 PUSH2 0x1343 JUMP JUMPDEST POP POP POP POP POP JUMP JUMPDEST PUSH1 0x6 SLOAD DUP2 JUMP JUMPDEST PUSH1 0x60 PUSH0 PUSH20 0xFFFFFFFFFFFFFFFFFFFFFFFFFFFFFFFFFFFFFFFF AND PUSH1 0x2 PUSH0 DUP5 DUP2 MSTORE PUSH1 0x20 ADD SWAP1 DUP2 MSTORE PUSH1 0x20 ADD PUSH0 KECCAK256 PUSH0 SWAP1 SLOAD SWAP1 PUSH2 0x100 EXP SWAP1 DIV PUSH20 0xFFFFFFFFFFFFFFFFFFFFFFFFFFFFFFFFFFFFFFFF AND PUSH20 0xFFFFFFFFFFFFFFFFFFFFFFFFFFFFFFFFFFFFFFFF AND SUB PUSH2 0xC34 JUMPI PUSH1 0x40 MLOAD PUSH32 0x8C379A000000000000000000000000000000000000000000000000000000000 DUP2 MSTORE PUSH1 0x4 ADD PUSH2 0xC2B SWAP1 PUSH2 0x1F2A JUMP JUMPDEST PUSH1 0x40 MLOAD DUP1 SWAP2 SUB SWAP1 REVERT JUMPDEST PUSH0 PUSH2 0xC3D PUSH2 0x1362 JUMP JUMPDEST SWAP1 POP PUSH0 DUP2 MLOAD GT PUSH2 0xC5B JUMPI PUSH1 0x40 MLOAD DUP1 PUSH1 0x20 ADD PUSH1 0x40 MSTORE DUP1 PUSH0 DUP2 MSTORE POP PUSH2 0xC86 JUMP JUMPDEST DUP1 PUSH2 0xC65 DUP5 PUSH2 0x1382 JUMP JUMPDEST PUSH1 0x40 MLOAD PUSH1 0x20 ADD PUSH2 0xC76 SWAP3 SWAP2 SWAP1 PUSH2 0x1F82 JUMP JUMPDEST PUSH1 0x40 MLOAD PUSH1 0x20 DUP2 DUP4 SUB SUB DUP2 MSTORE SWAP1 PUSH1 0x40 MSTORE JUMPDEST SWAP2 POP POP SWAP2 SWAP1 POP JUMP JUMPDEST PUSH0 PUSH1 0x5 PUSH0 DUP5 PUSH20 0xFFFFFFFFFFFFFFFFFFFFFFFFFFFFFFFFFFFFFFFF AND PUSH20 0xFFFFFFFFFFFFFFFFFFFFFFFFFFFFFFFFFFFFFFFF AND DUP2 MSTORE PUSH1 0x20 ADD SWAP1 DUP2 MSTORE PUSH1 0x20 ADD PUSH0 KECCAK256 PUSH0 DUP4 PUSH20 0xFFFFFFFFFFFFFFFFFFFFFFFFFFFFFFFFFFFFFFFF AND PUSH20 0xFFFFFFFFFFFFFFFFFFFFFFFFFFFFFFFFFFFFFFFF AND DUP2 MSTORE PUSH1 0x20 ADD SWAP1 DUP2 MSTORE PUSH1 0x20 ADD PUSH0 KECCAK256 PUSH0 SWAP1 SLOAD SWAP1 PUSH2 0x100 EXP SWAP1 DIV PUSH1 0xFF AND SWAP1 POP SWAP3 SWAP2 POP POP JUMP JUMPDEST DUP2 PUSH1 0x4 PUSH0 DUP4 DUP2 MSTORE PUSH1 0x20 ADD SWAP1 DUP2 MSTORE PUSH1 0x20 ADD PUSH0 KECCAK256 PUSH0 PUSH2 0x100 EXP DUP2 SLOAD DUP2 PUSH20 0xFFFFFFFFFFFFFFFFFFFFFFFFFFFFFFFFFFFFFFFF MUL NOT AND SWAP1 DUP4 PUSH20 0xFFFFFFFFFFFFFFFFFFFFFFFFFFFFFFFFFFFFFFFF AND MUL OR SWAP1 SSTORE POP DUP1 DUP3 PUSH20 0xFFFFFFFFFFFFFFFFFFFFFFFFFFFFFFFFFFFFFFFF AND DUP5 PUSH20 0xFFFFFFFFFFFFFFFFFFFFFFFFFFFFFFFFFFFFFFFF AND PUSH32 0x8C5BE1E5EBEC7D5BD14F71427D1E84F3DD0314C0F7B2291E5B200AC8C7C3B925 PUSH1 0x40 MLOAD PUSH1 0x40 MLOAD DUP1 SWAP2 SUB SWAP1 LOG4 POP POP POP JUMP JUMPDEST PUSH0 DUP4 PUSH20 0xFFFFFFFFFFFFFFFFFFFFFFFFFFFFFFFFFFFFFFFF AND DUP4 PUSH20 0xFFFFFFFFFFFFFFFFFFFFFFFFFFFFFFFFFFFFFFFF AND EQ DUP1 PUSH2 0xE61 JUMPI POP DUP3 PUSH20 0xFFFFFFFFFFFFFFFFFFFFFFFFFFFFFFFFFFFFFFFF AND PUSH1 0x4 PUSH0 DUP5 DUP2 MSTORE PUSH1 0x20 ADD SWAP1 DUP2 MSTORE PUSH1 0x20 ADD PUSH0 KECCAK256 PUSH0 SWAP1 SLOAD SWAP1 PUSH2 0x100 EXP SWAP1 DIV PUSH20 0xFFFFFFFFFFFFFFFFFFFFFFFFFFFFFFFFFFFFFFFF AND PUSH20 0xFFFFFFFFFFFFFFFFFFFFFFFFFFFFFFFFFFFFFFFF AND EQ JUMPDEST DUP1 PUSH2 0xEED JUMPI POP PUSH1 0x5 PUSH0 DUP6 PUSH20 0xFFFFFFFFFFFFFFFFFFFFFFFFFFFFFFFFFFFFFFFF AND PUSH20 0xFFFFFFFFFFFFFFFFFFFFFFFFFFFFFFFFFFFFFFFF AND DUP2 MSTORE PUSH1 0x20 ADD SWAP1 DUP2 MSTORE PUSH1 0x20 ADD PUSH0 KECCAK256 PUSH0 DUP5 PUSH20 0xFFFFFFFFFFFFFFFFFFFFFFFFFFFFFFFFFFFFFFFF AND PUSH20 0xFFFFFFFFFFFFFFFFFFFFFFFFFFFFFFFFFFFFFFFF AND DUP2 MSTORE PUSH1 0x20 ADD SWAP1 DUP2 MSTORE PUSH1 0x20 ADD PUSH0 KECCAK256 PUSH0 SWAP1 SLOAD SWAP1 PUSH2 0x100 EXP SWAP1 DIV PUSH1 0xFF AND JUMPDEST SWAP1 POP SWAP4 SWAP3 POP POP POP JUMP JUMPDEST DUP4 PUSH20 0xFFFFFFFFFFFFFFFFFFFFFFFFFFFFFFFFFFFFFFFF AND DUP4 PUSH20 0xFFFFFFFFFFFFFFFFFFFFFFFFFFFFFFFFFFFFFFFF AND EQ PUSH2 0xF64 JUMPI PUSH1 0x40 MLOAD PUSH32 0x8C379A000000000000000000000000000000000000000000000000000000000 DUP2 MSTORE PUSH1 0x4 ADD PUSH2 0xF5B SWAP1 PUSH2 0x1FEF JUMP JUMPDEST PUSH1 0x40 MLOAD DUP1 SWAP2 SUB SWAP1 REVERT JUMPDEST PUSH0 PUSH20 0xFFFFFFFFFFFFFFFFFFFFFFFFFFFFFFFFFFFFFFFF AND DUP3 PUSH20 0xFFFFFFFFFFFFFFFFFFFFFFFFFFFFFFFFFFFFFFFF AND SUB PUSH2 0xFD2 JUMPI PUSH1 0x40 MLOAD PUSH32 0x8C379A000000000000000000000000000000000000000000000000000000000 DUP2 MSTORE PUSH1 0x4 ADD PUSH2 0xFC9 SWAP1 PUSH2 0x2057 JUMP JUMPDEST PUSH1 0x40 MLOAD DUP1 SWAP2 SUB SWAP1 REVERT JUMPDEST PUSH2 0xFDD DUP5 PUSH0 DUP4 PUSH2 0xD1C JUMP JUMPDEST PUSH1 0x1 PUSH1 0x3 PUSH0 DUP6 PUSH20 0xFFFFFFFFFFFFFFFFFFFFFFFFFFFFFFFFFFFFFFFF AND PUSH20 0xFFFFFFFFFFFFFFFFFFFFFFFFFFFFFFFFFFFFFFFF AND DUP2 MSTORE PUSH1 0x20 ADD SWAP1 DUP2 MSTORE PUSH1 0x20 ADD PUSH0 KECCAK256 PUSH0 DUP3 DUP3 SLOAD PUSH2 0x102A SWAP2 SWAP1 PUSH2 0x20A2 JUMP JUMPDEST SWAP3 POP POP DUP2 SWAP1 SSTORE POP PUSH1 0x1 PUSH1 0x3 PUSH0 DUP5 PUSH20 0xFFFFFFFFFFFFFFFFFFFFFFFFFFFFFFFFFFFFFFFF AND PUSH20 0xFFFFFFFFFFFFFFFFFFFFFFFFFFFFFFFFFFFFFFFF AND DUP2 MSTORE PUSH1 0x20 ADD SWAP1 DUP2 MSTORE PUSH1 0x20 ADD PUSH0 KECCAK256 PUSH0 DUP3 DUP3 SLOAD PUSH2 0x107E SWAP2 SWAP1 PUSH2 0x20D5 JUMP JUMPDEST SWAP3 POP POP DUP2 SWAP1 SSTORE POP DUP2 PUSH1 0x2 PUSH0 DUP4 DUP2 MSTORE PUSH1 0x20 ADD SWAP1 DUP2 MSTORE PUSH1 0x20 ADD PUSH0 KECCAK256 PUSH0 PUSH2 0x100 EXP DUP2 SLOAD DUP2 PUSH20 0xFFFFFFFFFFFFFFFFFFFFFFFFFFFFFFFFFFFFFFFF MUL NOT AND SWAP1 DUP4 PUSH20 0xFFFFFFFFFFFFFFFFFFFFFFFFFFFFFFFFFFFFFFFF AND MUL OR SWAP1 SSTORE POP DUP1 DUP3 PUSH20 0xFFFFFFFFFFFFFFFFFFFFFFFFFFFFFFFFFFFFFFFF AND DUP5 PUSH20 0xFFFFFFFFFFFFFFFFFFFFFFFFFFFFFFFFFFFFFFFF AND PUSH32 0xDDF252AD1BE2C89B69C2B068FC378DAA952BA7F163C4A11628F55A4DF523B3EF PUSH1 0x40 MLOAD PUSH1 0x40 MLOAD DUP1 SWAP2 SUB SWAP1 LOG4 POP POP POP POP JUMP JUMPDEST PUSH0 PUSH20 0xFFFFFFFFFFFFFFFFFFFFFFFFFFFFFFFFFFFFFFFF AND DUP3 PUSH20 0xFFFFFFFFFFFFFFFFFFFFFFFFFFFFFFFFFFFFFFFF AND SUB PUSH2 0x11A3 JUMPI PUSH1 0x40 MLOAD PUSH32 0x8C379A000000000000000000000000000000000000000000000000000000000 DUP2 MSTORE PUSH1 0x4 ADD PUSH2 0x119A SWAP1 PUSH2 0x2152 JUMP JUMPDEST PUSH1 0x40 MLOAD DUP1 SWAP2 SUB SWAP1 REVERT JUMPDEST PUSH0 PUSH20 0xFFFFFFFFFFFFFFFFFFFFFFFFFFFFFFFFFFFFFFFF AND PUSH1 0x2 PUSH0 DUP4 DUP2 MSTORE PUSH1 0x20 ADD SWAP1 DUP2 MSTORE PUSH1 0x20 ADD PUSH0 KECCAK256 PUSH0 SWAP1 SLOAD SWAP1 PUSH2 0x100 EXP SWAP1 DIV PUSH20 0xFFFFFFFFFFFFFFFFFFFFFFFFFFFFFFFFFFFFFFFF AND PUSH20 0xFFFFFFFFFFFFFFFFFFFFFFFFFFFFFFFFFFFFFFFF AND EQ PUSH2 0x1241 JUMPI PUSH1 0x40 MLOAD PUSH32 0x8C379A000000000000000000000000000000000000000000000000000000000 DUP2 MSTORE PUSH1 0x4 ADD PUSH2 0x1238 SWAP1 PUSH2 0x21BA JUMP JUMPDEST PUSH1 0x40 MLOAD DUP1 SWAP2 SUB SWAP1 REVERT JUMPDEST PUSH1 0x1 PUSH1 0x3 PUSH0 DUP5 PUSH20 0xFFFFFFFFFFFFFFFFFFFFFFFFFFFFFFFFFFFFFFFF AND PUSH20 0xFFFFFFFFFFFFFFFFFFFFFFFFFFFFFFFFFFFFFFFF AND DUP2 MSTORE PUSH1 0x20 ADD SWAP1 DUP2 MSTORE PUSH1 0x20 ADD PUSH0 KECCAK256 PUSH0 DUP3 DUP3 SLOAD PUSH2 0x128E SWAP2 SWAP1 PUSH2 0x20D5 JUMP JUMPDEST SWAP3 POP POP DUP2 SWAP1 SSTORE POP DUP2 PUSH1 0x2 PUSH0 DUP4 DUP2 MSTORE PUSH1 0x20 ADD SWAP1 DUP2 MSTORE PUSH1 0x20 ADD PUSH0 KECCAK256 PUSH0 PUSH2 0x100 EXP DUP2 SLOAD DUP2 PUSH20 0xFFFFFFFFFFFFFFFFFFFFFFFFFFFFFFFFFFFFFFFF MUL NOT AND SWAP1 DUP4 PUSH20 0xFFFFFFFFFFFFFFFFFFFFFFFFFFFFFFFFFFFFFFFF AND MUL OR SWAP1 SSTORE POP DUP1 DUP3 PUSH20 0xFFFFFFFFFFFFFFFFFFFFFFFFFFFFFFFFFFFFFFFF AND PUSH0 PUSH20 0xFFFFFFFFFFFFFFFFFFFFFFFFFFFFFFFFFFFFFFFF AND PUSH32 0xDDF252AD1BE2C89B69C2B068FC378DAA952BA7F163C4A11628F55A4DF523B3EF PUSH1 0x40 MLOAD PUSH1 0x40 MLOAD DUP1 SWAP2 SUB SWAP1 LOG4 POP POP JUMP JUMPDEST PUSH2 0x134F DUP6 DUP6 DUP6 DUP6 PUSH2 0xEF6 JUMP JUMPDEST PUSH2 0x135B DUP5 DUP5 DUP5 DUP5 PUSH2 0x14DB JUMP JUMPDEST POP POP POP POP POP JUMP JUMPDEST PUSH1 0x60 PUSH1 0x40 MLOAD DUP1 PUSH1 0x60 ADD PUSH1 0x40 MSTORE DUP1 PUSH1 0x36 DUP2 MSTORE PUSH1 0x20 ADD PUSH2 0x23B5 PUSH1 0x36 SWAP2 CODECOPY SWAP1 POP SWAP1 JUMP JUMPDEST PUSH1 0x60 PUSH0 DUP3 SUB PUSH2 0x13C8 JUMPI PUSH1 0x40 MLOAD DUP1 PUSH1 0x40 ADD PUSH1 0x40 MSTORE DUP1 PUSH1 0x1 DUP2 MSTORE PUSH1 0x20 ADD PUSH32 0x3000000000000000000000000000000000000000000000000000000000000000 DUP2 MSTORE POP SWAP1 POP PUSH2 0x14D6 JUMP JUMPDEST PUSH0 DUP3 SWAP1 POP PUSH0 JUMPDEST PUSH0 DUP3 EQ PUSH2 0x13F7 JUMPI DUP1 DUP1 PUSH2 0x13E0 SWAP1 PUSH2 0x21D8 JUMP JUMPDEST SWAP2 POP POP PUSH1 0xA DUP3 PUSH2 0x13F0 SWAP2 SWAP1 PUSH2 0x224C JUMP JUMPDEST SWAP2 POP PUSH2 0x13CE JUMP JUMPDEST PUSH0 DUP2 PUSH8 0xFFFFFFFFFFFFFFFF DUP2 GT ISZERO PUSH2 0x1412 JUMPI PUSH2 0x1411 PUSH2 0x1A0B JUMP JUMPDEST JUMPDEST PUSH1 0x40 MLOAD SWAP1 DUP1 DUP3 MSTORE DUP1 PUSH1 0x1F ADD PUSH1 0x1F NOT AND PUSH1 0x20 ADD DUP3 ADD PUSH1 0x40 MSTORE DUP1 ISZERO PUSH2 0x1444 JUMPI DUP2 PUSH1 0x20 ADD PUSH1 0x1 DUP3 MUL DUP1 CALLDATASIZE DUP4 CALLDATACOPY DUP1 DUP3 ADD SWAP2 POP POP SWAP1 POP JUMPDEST POP SWAP1 POP JUMPDEST PUSH0 DUP6 EQ PUSH2 0x14CF JUMPI PUSH1 0x1 DUP3 PUSH2 0x145C SWAP2 SWAP1 PUSH2 0x20A2 JUMP JUMPDEST SWAP2 POP PUSH1 0xA DUP6 PUSH2 0x146B SWAP2 SWAP1 PUSH2 0x227C JUMP JUMPDEST PUSH1 0x30 PUSH2 0x1477 SWAP2 SWAP1 PUSH2 0x20D5 JUMP JUMPDEST PUSH1 0xF8 SHL DUP2 DUP4 DUP2 MLOAD DUP2 LT PUSH2 0x148D JUMPI PUSH2 0x148C PUSH2 0x22AC JUMP JUMPDEST JUMPDEST PUSH1 0x20 ADD ADD SWAP1 PUSH31 0xFFFFFFFFFFFFFFFFFFFFFFFFFFFFFFFFFFFFFFFFFFFFFFFFFFFFFFFFFFFFFF NOT AND SWAP1 DUP2 PUSH0 BYTE SWAP1 MSTORE8 POP PUSH1 0xA DUP6 PUSH2 0x14C8 SWAP2 SWAP1 PUSH2 0x224C JUMP JUMPDEST SWAP5 POP PUSH2 0x1448 JUMP JUMPDEST DUP1 SWAP4 POP POP POP POP JUMPDEST SWAP2 SWAP1 POP JUMP JUMPDEST PUSH0 DUP4 PUSH20 0xFFFFFFFFFFFFFFFFFFFFFFFFFFFFFFFFFFFFFFFF AND EXTCODESIZE GT ISZERO PUSH2 0x1680 JUMPI DUP3 PUSH20 0xFFFFFFFFFFFFFFFFFFFFFFFFFFFFFFFFFFFFFFFF AND PUSH4 0x150B7A02 CALLER DUP7 DUP6 DUP6 PUSH1 0x40 MLOAD DUP6 PUSH4 0xFFFFFFFF AND PUSH1 0xE0 SHL DUP2 MSTORE PUSH1 0x4 ADD PUSH2 0x1539 SWAP5 SWAP4 SWAP3 SWAP2 SWAP1 PUSH2 0x232B JUMP JUMPDEST PUSH1 0x20 PUSH1 0x40 MLOAD DUP1 DUP4 SUB DUP2 PUSH0 DUP8 GAS CALL SWAP3 POP POP POP DUP1 ISZERO PUSH2 0x1574 JUMPI POP PUSH1 0x40 MLOAD RETURNDATASIZE PUSH1 0x1F NOT PUSH1 0x1F DUP3 ADD AND DUP3 ADD DUP1 PUSH1 0x40 MSTORE POP DUP2 ADD SWAP1 PUSH2 0x1571 SWAP2 SWAP1 PUSH2 0x2389 JUMP JUMPDEST PUSH1 0x1 JUMPDEST PUSH2 0x15F5 JUMPI RETURNDATASIZE DUP1 PUSH0 DUP2 EQ PUSH2 0x15A2 JUMPI PUSH1 0x40 MLOAD SWAP2 POP PUSH1 0x1F NOT PUSH1 0x3F RETURNDATASIZE ADD AND DUP3 ADD PUSH1 0x40 MSTORE RETURNDATASIZE DUP3 MSTORE RETURNDATASIZE PUSH0 PUSH1 0x20 DUP5 ADD RETURNDATACOPY PUSH2 0x15A7 JUMP JUMPDEST PUSH1 0x60 SWAP2 POP JUMPDEST POP PUSH0 DUP2 MLOAD SUB PUSH2 0x15ED JUMPI DUP4 PUSH1 0x40 MLOAD PUSH32 0x64A0AE9200000000000000000000000000000000000000000000000000000000 DUP2 MSTORE PUSH1 0x4 ADD PUSH2 0x15E4 SWAP2 SWAP1 PUSH2 0x1877 JUMP JUMPDEST PUSH1 0x40 MLOAD DUP1 SWAP2 SUB SWAP1 REVERT JUMPDEST DUP1 MLOAD DUP2 PUSH1 0x20 ADD REVERT JUMPDEST PUSH4 0x150B7A02 PUSH1 0xE0 SHL PUSH28 0xFFFFFFFFFFFFFFFFFFFFFFFFFFFFFFFFFFFFFFFFFFFFFFFFFFFFFFFF NOT AND DUP2 PUSH28 0xFFFFFFFFFFFFFFFFFFFFFFFFFFFFFFFFFFFFFFFFFFFFFFFFFFFFFFFF NOT AND EQ PUSH2 0x167E JUMPI DUP4 PUSH1 0x40 MLOAD PUSH32 0x64A0AE9200000000000000000000000000000000000000000000000000000000 DUP2 MSTORE PUSH1 0x4 ADD PUSH2 0x1675 SWAP2 SWAP1 PUSH2 0x1877 JUMP JUMPDEST PUSH1 0x40 MLOAD DUP1 SWAP2 SUB SWAP1 REVERT JUMPDEST POP JUMPDEST POP POP POP POP JUMP JUMPDEST PUSH0 PUSH1 0x40 MLOAD SWAP1 POP SWAP1 JUMP JUMPDEST PUSH0 DUP1 REVERT JUMPDEST PUSH0 DUP1 REVERT JUMPDEST PUSH0 PUSH32 0xFFFFFFFF00000000000000000000000000000000000000000000000000000000 DUP3 AND SWAP1 POP SWAP2 SWAP1 POP JUMP JUMPDEST PUSH2 0x16CB DUP2 PUSH2 0x1697 JUMP JUMPDEST DUP2 EQ PUSH2 0x16D5 JUMPI PUSH0 DUP1 REVERT JUMPDEST POP JUMP JUMPDEST PUSH0 DUP2 CALLDATALOAD SWAP1 POP PUSH2 0x16E6 DUP2 PUSH2 0x16C2 JUMP JUMPDEST SWAP3 SWAP2 POP POP JUMP JUMPDEST PUSH0 PUSH1 0x20 DUP3 DUP5 SUB SLT ISZERO PUSH2 0x1701 JUMPI PUSH2 0x1700 PUSH2 0x168F JUMP JUMPDEST JUMPDEST PUSH0 PUSH2 0x170E DUP5 DUP3 DUP6 ADD PUSH2 0x16D8 JUMP JUMPDEST SWAP2 POP POP SWAP3 SWAP2 POP POP JUMP JUMPDEST PUSH0 DUP2 ISZERO ISZERO SWAP1 POP SWAP2 SWAP1 POP JUMP JUMPDEST PUSH2 0x172B DUP2 PUSH2 0x1717 JUMP JUMPDEST DUP3 MSTORE POP POP JUMP JUMPDEST PUSH0 PUSH1 0x20 DUP3 ADD SWAP1 POP PUSH2 0x1744 PUSH0 DUP4 ADD DUP5 PUSH2 0x1722 JUMP JUMPDEST SWAP3 SWAP2 POP POP JUMP JUMPDEST PUSH0 DUP2 MLOAD SWAP1 POP SWAP2 SWAP1 POP JUMP JUMPDEST PUSH0 DUP3 DUP3 MSTORE PUSH1 0x20 DUP3 ADD SWAP1 POP SWAP3 SWAP2 POP POP JUMP JUMPDEST DUP3 DUP2 DUP4 MCOPY PUSH0 DUP4 DUP4 ADD MSTORE POP POP POP JUMP JUMPDEST PUSH0 PUSH1 0x1F NOT PUSH1 0x1F DUP4 ADD AND SWAP1 POP SWAP2 SWAP1 POP JUMP JUMPDEST PUSH0 PUSH2 0x178C DUP3 PUSH2 0x174A JUMP JUMPDEST PUSH2 0x1796 DUP2 DUP6 PUSH2 0x1754 JUMP JUMPDEST SWAP4 POP PUSH2 0x17A6 DUP2 DUP6 PUSH1 0x20 DUP7 ADD PUSH2 0x1764 JUMP JUMPDEST PUSH2 0x17AF DUP2 PUSH2 0x1772 JUMP JUMPDEST DUP5 ADD SWAP2 POP POP SWAP3 SWAP2 POP POP JUMP JUMPDEST PUSH0 PUSH1 0x20 DUP3 ADD SWAP1 POP DUP2 DUP2 SUB PUSH0 DUP4 ADD MSTORE PUSH2 0x17D2 DUP2 DUP5 PUSH2 0x1782 JUMP JUMPDEST SWAP1 POP SWAP3 SWAP2 POP POP JUMP JUMPDEST PUSH0 DUP2 SWAP1 POP SWAP2 SWAP1 POP JUMP JUMPDEST PUSH2 0x17EC DUP2 PUSH2 0x17DA JUMP JUMPDEST DUP2 EQ PUSH2 0x17F6 JUMPI PUSH0 DUP1 REVERT JUMPDEST POP JUMP JUMPDEST PUSH0 DUP2 CALLDATALOAD SWAP1 POP PUSH2 0x1807 DUP2 PUSH2 0x17E3 JUMP JUMPDEST SWAP3 SWAP2 POP POP JUMP JUMPDEST PUSH0 PUSH1 0x20 DUP3 DUP5 SUB SLT ISZERO PUSH2 0x1822 JUMPI PUSH2 0x1821 PUSH2 0x168F JUMP JUMPDEST JUMPDEST PUSH0 PUSH2 0x182F DUP5 DUP3 DUP6 ADD PUSH2 0x17F9 JUMP JUMPDEST SWAP2 POP POP SWAP3 SWAP2 POP POP JUMP JUMPDEST PUSH0 PUSH20 0xFFFFFFFFFFFFFFFFFFFFFFFFFFFFFFFFFFFFFFFF DUP3 AND SWAP1 POP SWAP2 SWAP1 POP JUMP JUMPDEST PUSH0 PUSH2 0x1861 DUP3 PUSH2 0x1838 JUMP JUMPDEST SWAP1 POP SWAP2 SWAP1 POP JUMP JUMPDEST PUSH2 0x1871 DUP2 PUSH2 0x1857 JUMP JUMPDEST DUP3 MSTORE POP POP JUMP JUMPDEST PUSH0 PUSH1 0x20 DUP3 ADD SWAP1 POP PUSH2 0x188A PUSH0 DUP4 ADD DUP5 PUSH2 0x1868 JUMP JUMPDEST SWAP3 SWAP2 POP POP JUMP JUMPDEST PUSH2 0x1899 DUP2 PUSH2 0x1857 JUMP JUMPDEST DUP2 EQ PUSH2 0x18A3 JUMPI PUSH0 DUP1 REVERT JUMPDEST POP JUMP JUMPDEST PUSH0 DUP2 CALLDATALOAD SWAP1 POP PUSH2 0x18B4 DUP2 PUSH2 0x1890 JUMP JUMPDEST SWAP3 SWAP2 POP POP JUMP JUMPDEST PUSH0 DUP1 PUSH1 0x40 DUP4 DUP6 SUB SLT ISZERO PUSH2 0x18D0 JUMPI PUSH2 0x18CF PUSH2 0x168F JUMP JUMPDEST JUMPDEST PUSH0 PUSH2 0x18DD DUP6 DUP3 DUP7 ADD PUSH2 0x18A6 JUMP JUMPDEST SWAP3 POP POP PUSH1 0x20 PUSH2 0x18EE DUP6 DUP3 DUP7 ADD PUSH2 0x17F9 JUMP JUMPDEST SWAP2 POP POP SWAP3 POP SWAP3 SWAP1 POP JUMP JUMPDEST PUSH0 DUP1 PUSH0 PUSH1 0x60 DUP5 DUP7 SUB SLT ISZERO PUSH2 0x190F JUMPI PUSH2 0x190E PUSH2 0x168F JUMP JUMPDEST JUMPDEST PUSH0 PUSH2 0x191C DUP7 DUP3 DUP8 ADD PUSH2 0x18A6 JUMP JUMPDEST SWAP4 POP POP PUSH1 0x20 PUSH2 0x192D DUP7 DUP3 DUP8 ADD PUSH2 0x18A6 JUMP JUMPDEST SWAP3 POP POP PUSH1 0x40 PUSH2 0x193E DUP7 DUP3 DUP8 ADD PUSH2 0x17F9 JUMP JUMPDEST SWAP2 POP POP SWAP3 POP SWAP3 POP SWAP3 JUMP JUMPDEST PUSH0 PUSH1 0x20 DUP3 DUP5 SUB SLT ISZERO PUSH2 0x195D JUMPI PUSH2 0x195C PUSH2 0x168F JUMP JUMPDEST JUMPDEST PUSH0 PUSH2 0x196A DUP5 DUP3 DUP6 ADD PUSH2 0x18A6 JUMP JUMPDEST SWAP2 POP POP SWAP3 SWAP2 POP POP JUMP JUMPDEST PUSH2 0x197C DUP2 PUSH2 0x17DA JUMP JUMPDEST DUP3 MSTORE POP POP JUMP JUMPDEST PUSH0 PUSH1 0x20 DUP3 ADD SWAP1 POP PUSH2 0x1995 PUSH0 DUP4 ADD DUP5 PUSH2 0x1973 JUMP JUMPDEST SWAP3 SWAP2 POP POP JUMP JUMPDEST PUSH2 0x19A4 DUP2 PUSH2 0x1717 JUMP JUMPDEST DUP2 EQ PUSH2 0x19AE JUMPI PUSH0 DUP1 REVERT JUMPDEST POP JUMP JUMPDEST PUSH0 DUP2 CALLDATALOAD SWAP1 POP PUSH2 0x19BF DUP2 PUSH2 0x199B JUMP JUMPDEST SWAP3 SWAP2 POP POP JUMP JUMPDEST PUSH0 DUP1 PUSH1 0x40 DUP4 DUP6 SUB SLT ISZERO PUSH2 0x19DB JUMPI PUSH2 0x19DA PUSH2 0x168F JUMP JUMPDEST JUMPDEST PUSH0 PUSH2 0x19E8 DUP6 DUP3 DUP7 ADD PUSH2 0x18A6 JUMP JUMPDEST SWAP3 POP POP PUSH1 0x20 PUSH2 0x19F9 DUP6 DUP3 DUP7 ADD PUSH2 0x19B1 JUMP JUMPDEST SWAP2 POP POP SWAP3 POP SWAP3 SWAP1 POP JUMP JUMPDEST PUSH0 DUP1 REVERT JUMPDEST PUSH0 DUP1 REVERT JUMPDEST PUSH32 0x4E487B7100000000000000000000000000000000000000000000000000000000 PUSH0 MSTORE PUSH1 0x41 PUSH1 0x4 MSTORE PUSH1 0x24 PUSH0 REVERT JUMPDEST PUSH2 0x1A41 DUP3 PUSH2 0x1772 JUMP JUMPDEST DUP2 ADD DUP2 DUP2 LT PUSH8 0xFFFFFFFFFFFFFFFF DUP3 GT OR ISZERO PUSH2 0x1A60 JUMPI PUSH2 0x1A5F PUSH2 0x1A0B JUMP JUMPDEST JUMPDEST DUP1 PUSH1 0x40 MSTORE POP POP POP JUMP JUMPDEST PUSH0 PUSH2 0x1A72 PUSH2 0x1686 JUMP JUMPDEST SWAP1 POP PUSH2 0x1A7E DUP3 DUP3 PUSH2 0x1A38 JUMP JUMPDEST SWAP2 SWAP1 POP JUMP JUMPDEST PUSH0 PUSH8 0xFFFFFFFFFFFFFFFF DUP3 GT ISZERO PUSH2 0x1A9D JUMPI PUSH2 0x1A9C PUSH2 0x1A0B JUMP JUMPDEST JUMPDEST PUSH2 0x1AA6 DUP3 PUSH2 0x1772 JUMP JUMPDEST SWAP1 POP PUSH1 0x20 DUP2 ADD SWAP1 POP SWAP2 SWAP1 POP JUMP JUMPDEST DUP3 DUP2 DUP4 CALLDATACOPY PUSH0 DUP4 DUP4 ADD MSTORE POP POP POP JUMP JUMPDEST PUSH0 PUSH2 0x1AD3 PUSH2 0x1ACE DUP5 PUSH2 0x1A83 JUMP JUMPDEST PUSH2 0x1A69 JUMP JUMPDEST SWAP1 POP DUP3 DUP2 MSTORE PUSH1 0x20 DUP2 ADD DUP5 DUP5 DUP5 ADD GT ISZERO PUSH2 0x1AEF JUMPI PUSH2 0x1AEE PUSH2 0x1A07 JUMP JUMPDEST JUMPDEST PUSH2 0x1AFA DUP5 DUP3 DUP6 PUSH2 0x1AB3 JUMP JUMPDEST POP SWAP4 SWAP3 POP POP POP JUMP JUMPDEST PUSH0 DUP3 PUSH1 0x1F DUP4 ADD SLT PUSH2 0x1B16 JUMPI PUSH2 0x1B15 PUSH2 0x1A03 JUMP JUMPDEST JUMPDEST DUP2 CALLDATALOAD PUSH2 0x1B26 DUP5 DUP3 PUSH1 0x20 DUP7 ADD PUSH2 0x1AC1 JUMP JUMPDEST SWAP2 POP POP SWAP3 SWAP2 POP POP JUMP JUMPDEST PUSH0 DUP1 PUSH0 DUP1 PUSH1 0x80 DUP6 DUP8 SUB SLT ISZERO PUSH2 0x1B47 JUMPI PUSH2 0x1B46 PUSH2 0x168F JUMP JUMPDEST JUMPDEST PUSH0 PUSH2 0x1B54 DUP8 DUP3 DUP9 ADD PUSH2 0x18A6 JUMP JUMPDEST SWAP5 POP POP PUSH1 0x20 PUSH2 0x1B65 DUP8 DUP3 DUP9 ADD PUSH2 0x18A6 JUMP JUMPDEST SWAP4 POP POP PUSH1 0x40 PUSH2 0x1B76 DUP8 DUP3 DUP9 ADD PUSH2 0x17F9 JUMP JUMPDEST SWAP3 POP POP PUSH1 0x60 DUP6 ADD CALLDATALOAD PUSH8 0xFFFFFFFFFFFFFFFF DUP2 GT ISZERO PUSH2 0x1B97 JUMPI PUSH2 0x1B96 PUSH2 0x1693 JUMP JUMPDEST JUMPDEST PUSH2 0x1BA3 DUP8 DUP3 DUP9 ADD PUSH2 0x1B02 JUMP JUMPDEST SWAP2 POP POP SWAP3 SWAP6 SWAP2 SWAP5 POP SWAP3 POP JUMP JUMPDEST PUSH0 DUP1 PUSH1 0x40 DUP4 DUP6 SUB SLT ISZERO PUSH2 0x1BC5 JUMPI PUSH2 0x1BC4 PUSH2 0x168F JUMP JUMPDEST JUMPDEST PUSH0 PUSH2 0x1BD2 DUP6 DUP3 DUP7 ADD PUSH2 0x18A6 JUMP JUMPDEST SWAP3 POP POP PUSH1 0x20 PUSH2 0x1BE3 DUP6 DUP3 DUP7 ADD PUSH2 0x18A6 JUMP JUMPDEST SWAP2 POP POP SWAP3 POP SWAP3 SWAP1 POP JUMP JUMPDEST PUSH32 0x4E487B7100000000000000000000000000000000000000000000000000000000 PUSH0 MSTORE PUSH1 0x22 PUSH1 0x4 MSTORE PUSH1 0x24 PUSH0 REVERT JUMPDEST PUSH0 PUSH1 0x2 DUP3 DIV SWAP1 POP PUSH1 0x1 DUP3 AND DUP1 PUSH2 0x1C31 JUMPI PUSH1 0x7F DUP3 AND SWAP2 POP JUMPDEST PUSH1 0x20 DUP3 LT DUP2 SUB PUSH2 0x1C44 JUMPI PUSH2 0x1C43 PUSH2 0x1BED JUMP JUMPDEST JUMPDEST POP SWAP2 SWAP1 POP JUMP JUMPDEST PUSH32 0x746F6B656E20646F65736E277420657869737400000000000000000000000000 PUSH0 DUP3 ADD MSTORE POP JUMP JUMPDEST PUSH0 PUSH2 0x1C7E PUSH1 0x13 DUP4 PUSH2 0x1754 JUMP JUMPDEST SWAP2 POP PUSH2 0x1C89 DUP3 PUSH2 0x1C4A JUMP JUMPDEST PUSH1 0x20 DUP3 ADD SWAP1 POP SWAP2 SWAP1 POP JUMP JUMPDEST PUSH0 PUSH1 0x20 DUP3 ADD SWAP1 POP DUP2 DUP2 SUB PUSH0 DUP4 ADD MSTORE PUSH2 0x1CAB DUP2 PUSH2 0x1C72 JUMP JUMPDEST SWAP1 POP SWAP2 SWAP1 POP JUMP JUMPDEST PUSH32 0x6E6F74206F776E6572206E6F7220617070726F76656420666F7220616C6C0000 PUSH0 DUP3 ADD MSTORE POP JUMP JUMPDEST PUSH0 PUSH2 0x1CE6 PUSH1 0x1E DUP4 PUSH2 0x1754 JUMP JUMPDEST SWAP2 POP PUSH2 0x1CF1 DUP3 PUSH2 0x1CB2 JUMP JUMPDEST PUSH1 0x20 DUP3 ADD SWAP1 POP SWAP2 SWAP1 POP JUMP JUMPDEST PUSH0 PUSH1 0x20 DUP3 ADD SWAP1 POP DUP2 DUP2 SUB PUSH0 DUP4 ADD MSTORE PUSH2 0x1D13 DUP2 PUSH2 0x1CDA JUMP JUMPDEST SWAP1 POP SWAP2 SWAP1 POP JUMP JUMPDEST PUSH32 0x6E6F74206F776E6572206E6F7220617070726F76656400000000000000000000 PUSH0 DUP3 ADD MSTORE POP JUMP JUMPDEST PUSH0 PUSH2 0x1D4E PUSH1 0x16 DUP4 PUSH2 0x1754 JUMP JUMPDEST SWAP2 POP PUSH2 0x1D59 DUP3 PUSH2 0x1D1A JUMP JUMPDEST PUSH1 0x20 DUP3 ADD SWAP1 POP SWAP2 SWAP1 POP JUMP JUMPDEST PUSH0 PUSH1 0x20 DUP3 ADD SWAP1 POP DUP2 DUP2 SUB PUSH0 DUP4 ADD MSTORE PUSH2 0x1D7B DUP2 PUSH2 0x1D42 JUMP JUMPDEST SWAP1 POP SWAP2 SWAP1 POP JUMP JUMPDEST PUSH32 0x746F6B656E4964206F7574206F662072616E6765000000000000000000000000 PUSH0 DUP3 ADD MSTORE POP JUMP JUMPDEST PUSH0 PUSH2 0x1DB6 PUSH1 0x14 DUP4 PUSH2 0x1754 JUMP JUMPDEST SWAP2 POP PUSH2 0x1DC1 DUP3 PUSH2 0x1D82 JUMP JUMPDEST PUSH1 0x20 DUP3 ADD SWAP1 POP SWAP2 SWAP1 POP JUMP JUMPDEST PUSH0 PUSH1 0x20 DUP3 ADD SWAP1 POP DUP2 DUP2 SUB PUSH0 DUP4 ADD MSTORE PUSH2 0x1DE3 DUP2 PUSH2 0x1DAA JUMP JUMPDEST SWAP1 POP SWAP2 SWAP1 POP JUMP JUMPDEST PUSH32 0x6F776E6572203D207A65726F2061646472657373000000000000000000000000 PUSH0 DUP3 ADD MSTORE POP JUMP JUMPDEST PUSH0 PUSH2 0x1E1E PUSH1 0x14 DUP4 PUSH2 0x1754 JUMP JUMPDEST SWAP2 POP PUSH2 0x1E29 DUP3 PUSH2 0x1DEA JUMP JUMPDEST PUSH1 0x20 DUP3 ADD SWAP1 POP SWAP2 SWAP1 POP JUMP JUMPDEST PUSH0 PUSH1 0x20 DUP3 ADD SWAP1 POP DUP2 DUP2 SUB PUSH0 DUP4 ADD MSTORE PUSH2 0x1E4B DUP2 PUSH2 0x1E12 JUMP JUMPDEST SWAP1 POP SWAP2 SWAP1 POP JUMP JUMPDEST PUSH32 0x4552433732312063616E277420617070726F766520666F7220796F757273656C PUSH0 DUP3 ADD MSTORE PUSH32 0x6600000000000000000000000000000000000000000000000000000000000000 PUSH1 0x20 DUP3 ADD MSTORE POP JUMP JUMPDEST PUSH0 PUSH2 0x1EAC PUSH1 0x21 DUP4 PUSH2 0x1754 JUMP JUMPDEST SWAP2 POP PUSH2 0x1EB7 DUP3 PUSH2 0x1E52 JUMP JUMPDEST PUSH1 0x40 DUP3 ADD SWAP1 POP SWAP2 SWAP1 POP JUMP JUMPDEST PUSH0 PUSH1 0x20 DUP3 ADD SWAP1 POP DUP2 DUP2 SUB PUSH0 DUP4 ADD MSTORE PUSH2 0x1ED9 DUP2 PUSH2 0x1EA0 JUMP JUMPDEST SWAP1 POP SWAP2 SWAP1 POP JUMP JUMPDEST PUSH32 0x546F6B656E204E6F742045786973740000000000000000000000000000000000 PUSH0 DUP3 ADD MSTORE POP JUMP JUMPDEST PUSH0 PUSH2 0x1F14 PUSH1 0xF DUP4 PUSH2 0x1754 JUMP JUMPDEST SWAP2 POP PUSH2 0x1F1F DUP3 PUSH2 0x1EE0 JUMP JUMPDEST PUSH1 0x20 DUP3 ADD SWAP1 POP SWAP2 SWAP1 POP JUMP JUMPDEST PUSH0 PUSH1 0x20 DUP3 ADD SWAP1 POP DUP2 DUP2 SUB PUSH0 DUP4 ADD MSTORE PUSH2 0x1F41 DUP2 PUSH2 0x1F08 JUMP JUMPDEST SWAP1 POP SWAP2 SWAP1 POP JUMP JUMPDEST PUSH0 DUP2 SWAP1 POP SWAP3 SWAP2 POP POP JUMP JUMPDEST PUSH0 PUSH2 0x1F5C DUP3 PUSH2 0x174A JUMP JUMPDEST PUSH2 0x1F66 DUP2 DUP6 PUSH2 0x1F48 JUMP JUMPDEST SWAP4 POP PUSH2 0x1F76 DUP2 DUP6 PUSH1 0x20 DUP7 ADD PUSH2 0x1764 JUMP JUMPDEST DUP1 DUP5 ADD SWAP2 POP POP SWAP3 SWAP2 POP POP JUMP JUMPDEST PUSH0 PUSH2 0x1F8D DUP3 DUP6 PUSH2 0x1F52 JUMP JUMPDEST SWAP2 POP PUSH2 0x1F99 DUP3 DUP5 PUSH2 0x1F52 JUMP JUMPDEST SWAP2 POP DUP2 SWAP1 POP SWAP4 SWAP3 POP POP POP JUMP JUMPDEST PUSH32 0x6E6F74206F776E65720000000000000000000000000000000000000000000000 PUSH0 DUP3 ADD MSTORE POP JUMP JUMPDEST PUSH0 PUSH2 0x1FD9 PUSH1 0x9 DUP4 PUSH2 0x1754 JUMP JUMPDEST SWAP2 POP PUSH2 0x1FE4 DUP3 PUSH2 0x1FA5 JUMP JUMPDEST PUSH1 0x20 DUP3 ADD SWAP1 POP SWAP2 SWAP1 POP JUMP JUMPDEST PUSH0 PUSH1 0x20 DUP3 ADD SWAP1 POP DUP2 DUP2 SUB PUSH0 DUP4 ADD MSTORE PUSH2 0x2006 DUP2 PUSH2 0x1FCD JUMP JUMPDEST SWAP1 POP SWAP2 SWAP1 POP JUMP JUMPDEST PUSH32 0x7472616E7366657220746F20746865207A65726F206164647265737300000000 PUSH0 DUP3 ADD MSTORE POP JUMP JUMPDEST PUSH0 PUSH2 0x2041 PUSH1 0x1C DUP4 PUSH2 0x1754 JUMP JUMPDEST SWAP2 POP PUSH2 0x204C DUP3 PUSH2 0x200D JUMP JUMPDEST PUSH1 0x20 DUP3 ADD SWAP1 POP SWAP2 SWAP1 POP JUMP JUMPDEST PUSH0 PUSH1 0x20 DUP3 ADD SWAP1 POP DUP2 DUP2 SUB PUSH0 DUP4 ADD MSTORE PUSH2 0x206E DUP2 PUSH2 0x2035 JUMP JUMPDEST SWAP1 POP SWAP2 SWAP1 POP JUMP JUMPDEST PUSH32 0x4E487B7100000000000000000000000000000000000000000000000000000000 PUSH0 MSTORE PUSH1 0x11 PUSH1 0x4 MSTORE PUSH1 0x24 PUSH0 REVERT JUMPDEST PUSH0 PUSH2 0x20AC DUP3 PUSH2 0x17DA JUMP JUMPDEST SWAP2 POP PUSH2 0x20B7 DUP4 PUSH2 0x17DA JUMP JUMPDEST SWAP3 POP DUP3 DUP3 SUB SWAP1 POP DUP2 DUP2 GT ISZERO PUSH2 0x20CF JUMPI PUSH2 0x20CE PUSH2 0x2075 JUMP JUMPDEST JUMPDEST SWAP3 SWAP2 POP POP JUMP JUMPDEST PUSH0 PUSH2 0x20DF DUP3 PUSH2 0x17DA JUMP JUMPDEST SWAP2 POP PUSH2 0x20EA DUP4 PUSH2 0x17DA JUMP JUMPDEST SWAP3 POP DUP3 DUP3 ADD SWAP1 POP DUP1 DUP3 GT ISZERO PUSH2 0x2102 JUMPI PUSH2 0x2101 PUSH2 0x2075 JUMP JUMPDEST JUMPDEST SWAP3 SWAP2 POP POP JUMP JUMPDEST PUSH32 0x6D696E7420746F207A65726F2061646472657373000000000000000000000000 PUSH0 DUP3 ADD MSTORE POP JUMP JUMPDEST PUSH0 PUSH2 0x213C PUSH1 0x14 DUP4 PUSH2 0x1754 JUMP JUMPDEST SWAP2 POP PUSH2 0x2147 DUP3 PUSH2 0x2108 JUMP JUMPDEST PUSH1 0x20 DUP3 ADD SWAP1 POP SWAP2 SWAP1 POP JUMP JUMPDEST PUSH0 PUSH1 0x20 DUP3 ADD SWAP1 POP DUP2 DUP2 SUB PUSH0 DUP4 ADD MSTORE PUSH2 0x2169 DUP2 PUSH2 0x2130 JUMP JUMPDEST SWAP1 POP SWAP2 SWAP1 POP JUMP JUMPDEST PUSH32 0x746F6B656E20616C7265616479206D696E746564000000000000000000000000 PUSH0 DUP3 ADD MSTORE POP JUMP JUMPDEST PUSH0 PUSH2 0x21A4 PUSH1 0x14 DUP4 PUSH2 0x1754 JUMP JUMPDEST SWAP2 POP PUSH2 0x21AF DUP3 PUSH2 0x2170 JUMP JUMPDEST PUSH1 0x20 DUP3 ADD SWAP1 POP SWAP2 SWAP1 POP JUMP JUMPDEST PUSH0 PUSH1 0x20 DUP3 ADD SWAP1 POP DUP2 DUP2 SUB PUSH0 DUP4 ADD MSTORE PUSH2 0x21D1 DUP2 PUSH2 0x2198 JUMP JUMPDEST SWAP1 POP SWAP2 SWAP1 POP JUMP JUMPDEST PUSH0 PUSH2 0x21E2 DUP3 PUSH2 0x17DA JUMP JUMPDEST SWAP2 POP PUSH32 0xFFFFFFFFFFFFFFFFFFFFFFFFFFFFFFFFFFFFFFFFFFFFFFFFFFFFFFFFFFFFFFFF DUP3 SUB PUSH2 0x2214 JUMPI PUSH2 0x2213 PUSH2 0x2075 JUMP JUMPDEST JUMPDEST PUSH1 0x1 DUP3 ADD SWAP1 POP SWAP2 SWAP1 POP JUMP JUMPDEST PUSH32 0x4E487B7100000000000000000000000000000000000000000000000000000000 PUSH0 MSTORE PUSH1 0x12 PUSH1 0x4 MSTORE PUSH1 0x24 PUSH0 REVERT JUMPDEST PUSH0 PUSH2 0x2256 DUP3 PUSH2 0x17DA JUMP JUMPDEST SWAP2 POP PUSH2 0x2261 DUP4 PUSH2 0x17DA JUMP JUMPDEST SWAP3 POP DUP3 PUSH2 0x2271 JUMPI PUSH2 0x2270 PUSH2 0x221F JUMP JUMPDEST JUMPDEST DUP3 DUP3 DIV SWAP1 POP SWAP3 SWAP2 POP POP JUMP JUMPDEST PUSH0 PUSH2 0x2286 DUP3 PUSH2 0x17DA JUMP JUMPDEST SWAP2 POP PUSH2 0x2291 DUP4 PUSH2 0x17DA JUMP JUMPDEST SWAP3 POP DUP3 PUSH2 0x22A1 JUMPI PUSH2 0x22A0 PUSH2 0x221F JUMP JUMPDEST JUMPDEST DUP3 DUP3 MOD SWAP1 POP SWAP3 SWAP2 POP POP JUMP JUMPDEST PUSH32 0x4E487B7100000000000000000000000000000000000000000000000000000000 PUSH0 MSTORE PUSH1 0x32 PUSH1 0x4 MSTORE PUSH1 0x24 PUSH0 REVERT JUMPDEST PUSH0 DUP2 MLOAD SWAP1 POP SWAP2 SWAP1 POP JUMP JUMPDEST PUSH0 DUP3 DUP3 MSTORE PUSH1 0x20 DUP3 ADD SWAP1 POP SWAP3 SWAP2 POP POP JUMP JUMPDEST PUSH0 PUSH2 0x22FD DUP3 PUSH2 0x22D9 JUMP JUMPDEST PUSH2 0x2307 DUP2 DUP6 PUSH2 0x22E3 JUMP JUMPDEST SWAP4 POP PUSH2 0x2317 DUP2 DUP6 PUSH1 0x20 DUP7 ADD PUSH2 0x1764 JUMP JUMPDEST PUSH2 0x2320 DUP2 PUSH2 0x1772 JUMP JUMPDEST DUP5 ADD SWAP2 POP POP SWAP3 SWAP2 POP POP JUMP JUMPDEST PUSH0 PUSH1 0x80 DUP3 ADD SWAP1 POP PUSH2 0x233E PUSH0 DUP4 ADD DUP8 PUSH2 0x1868 JUMP JUMPDEST PUSH2 0x234B PUSH1 0x20 DUP4 ADD DUP7 PUSH2 0x1868 JUMP JUMPDEST PUSH2 0x2358 PUSH1 0x40 DUP4 ADD DUP6 PUSH2 0x1973 JUMP JUMPDEST DUP2 DUP2 SUB PUSH1 0x60 DUP4 ADD MSTORE PUSH2 0x236A DUP2 DUP5 PUSH2 0x22F3 JUMP JUMPDEST SWAP1 POP SWAP6 SWAP5 POP POP POP POP POP JUMP JUMPDEST PUSH0 DUP2 MLOAD SWAP1 POP PUSH2 0x2383 DUP2 PUSH2 0x16C2 JUMP JUMPDEST SWAP3 SWAP2 POP POP JUMP JUMPDEST PUSH0 PUSH1 0x20 DUP3 DUP5 SUB SLT ISZERO PUSH2 0x239E JUMPI PUSH2 0x239D PUSH2 0x168F JUMP JUMPDEST JUMPDEST PUSH0 PUSH2 0x23AB DUP5 DUP3 DUP6 ADD PUSH2 0x2375 JUMP JUMPDEST SWAP2 POP POP SWAP3 SWAP2 POP POP JUMP INVALID PUSH10 0x7066733A2F2F516D6553 PUSH11 0x53696E4870506E6D586D73 PUSH17 0x4D6A776958794E367A533445397A636361 PUSH19 0x694752336A7863615774712FA2646970667358 0x22 SLT KECCAK256 STATICCALL EXTCODECOPY 0xE6 0xB1 0xF7 0xAA SWAP1 0xE4 SWAP7 SHR 0xA6 PUSH19 0xDBE79EC17CB32A75690387B1D7263EBD91C696 PUSH1 0x64 PUSH20 0x6F6C634300081A00330000000000000000000000 "
				},
				"gasEstimates": {
					"creation": {
						"codeDepositCost": "1849600",
						"executionCost": "infinite",
						"totalCost": "infinite"
					},
					"external": {
						"MAX_APES()": "2469",
						"approve(address,uint256)": "31536",
						"balanceOf(address)": "2909",
						"getApproved(uint256)": "5166",
						"isApprovedForAll(address,address)": "infinite",
						"mint(address,uint256)": "infinite",
						"name()": "infinite",
						"ownerOf(uint256)": "2961",
						"safeTransferFrom(address,address,uint256)": "infinite",
						"safeTransferFrom(address,address,uint256,bytes)": "infinite",
						"setApprovalForAll(address,bool)": "infinite",
						"supportsInterface(bytes4)": "745",
						"symbol()": "infinite",
						"tokenURI(uint256)": "infinite",
						"transferFrom(address,address,uint256)": "infinite"
					},
					"internal": {
						"_baseURI()": "infinite"
					}
				},
				"methodIdentifiers": {
					"MAX_APES()": "bb8a16bd",
					"approve(address,uint256)": "095ea7b3",
					"balanceOf(address)": "70a08231",
					"getApproved(uint256)": "081812fc",
					"isApprovedForAll(address,address)": "e985e9c5",
					"mint(address,uint256)": "40c10f19",
					"name()": "06fdde03",
					"ownerOf(uint256)": "6352211e",
					"safeTransferFrom(address,address,uint256)": "42842e0e",
					"safeTransferFrom(address,address,uint256,bytes)": "b88d4fde",
					"setApprovalForAll(address,bool)": "a22cb465",
					"supportsInterface(bytes4)": "01ffc9a7",
					"symbol()": "95d89b41",
					"tokenURI(uint256)": "c87b56dd",
					"transferFrom(address,address,uint256)": "23b872dd"
				}
			},
			"storageLayout": {
				"storage": [
					{
						"astId": 69,
						"contract": "contracts/ERC721/APE.sol:WTFApe",
						"label": "name",
						"offset": 0,
						"slot": "0",
						"type": "t_string_storage"
					},
					{
						"astId": 72,
						"contract": "contracts/ERC721/APE.sol:WTFApe",
						"label": "symbol",
						"offset": 0,
						"slot": "1",
						"type": "t_string_storage"
					},
					{
						"astId": 76,
						"contract": "contracts/ERC721/APE.sol:WTFApe",
						"label": "_owners",
						"offset": 0,
						"slot": "2",
						"type": "t_mapping(t_uint256,t_address)"
					},
					{
						"astId": 80,
						"contract": "contracts/ERC721/APE.sol:WTFApe",
						"label": "_balances",
						"offset": 0,
						"slot": "3",
						"type": "t_mapping(t_address,t_uint256)"
					},
					{
						"astId": 84,
						"contract": "contracts/ERC721/APE.sol:WTFApe",
						"label": "_tokenApprovals",
						"offset": 0,
						"slot": "4",
						"type": "t_mapping(t_uint256,t_address)"
					},
					{
						"astId": 90,
						"contract": "contracts/ERC721/APE.sol:WTFApe",
						"label": "_operatorApprovals",
						"offset": 0,
						"slot": "5",
						"type": "t_mapping(t_address,t_mapping(t_address,t_bool))"
					},
					{
						"astId": 7,
						"contract": "contracts/ERC721/APE.sol:WTFApe",
						"label": "MAX_APES",
						"offset": 0,
						"slot": "6",
						"type": "t_uint256"
					}
				],
				"types": {
					"t_address": {
						"encoding": "inplace",
						"label": "address",
						"numberOfBytes": "20"
					},
					"t_bool": {
						"encoding": "inplace",
						"label": "bool",
						"numberOfBytes": "1"
					},
					"t_mapping(t_address,t_bool)": {
						"encoding": "mapping",
						"key": "t_address",
						"label": "mapping(address => bool)",
						"numberOfBytes": "32",
						"value": "t_bool"
					},
					"t_mapping(t_address,t_mapping(t_address,t_bool))": {
						"encoding": "mapping",
						"key": "t_address",
						"label": "mapping(address => mapping(address => bool))",
						"numberOfBytes": "32",
						"value": "t_mapping(t_address,t_bool)"
					},
					"t_mapping(t_address,t_uint256)": {
						"encoding": "mapping",
						"key": "t_address",
						"label": "mapping(address => uint256)",
						"numberOfBytes": "32",
						"value": "t_uint256"
					},
					"t_mapping(t_uint256,t_address)": {
						"encoding": "mapping",
						"key": "t_uint256",
						"label": "mapping(uint256 => address)",
						"numberOfBytes": "32",
						"value": "t_address"
					},
					"t_string_storage": {
						"encoding": "bytes",
						"label": "string",
						"numberOfBytes": "32"
					},
					"t_uint256": {
						"encoding": "inplace",
						"label": "uint256",
						"numberOfBytes": "32"
					}
				}
			},
			"userdoc": {
				"kind": "user",
				"methods": {},
				"version": 1
			}
		}
	}
}